{
  "contractName": "Decentraland",
  "abi": [
    {
      "inputs": [],
      "stateMutability": "nonpayable",
      "type": "constructor"
    },
    {
      "anonymous": false,
      "inputs": [
        {
          "indexed": false,
          "internalType": "uint256",
          "name": "id",
          "type": "uint256"
        },
        {
          "indexed": false,
          "internalType": "uint256",
          "name": "idNumber",
          "type": "uint256"
        },
        {
          "indexed": false,
          "internalType": "string",
          "name": "fullName",
          "type": "string"
        },
        {
          "indexed": false,
          "internalType": "enum Decentraland.Gender",
          "name": "gender",
          "type": "uint8"
        },
        {
          "indexed": false,
          "internalType": "uint256",
          "name": "dob",
          "type": "uint256"
        },
        {
          "indexed": false,
          "internalType": "address",
          "name": "publishAdmin",
          "type": "address"
        },
        {
          "indexed": false,
          "internalType": "uint256",
          "name": "publishDate",
          "type": "uint256"
        }
      ],
      "name": "CitizenPublished",
      "type": "event"
    },
    {
      "anonymous": false,
      "inputs": [
        {
          "indexed": false,
          "internalType": "uint256",
          "name": "id",
          "type": "uint256"
        },
        {
          "indexed": false,
          "internalType": "uint256",
          "name": "parcelNumber",
          "type": "uint256"
        },
        {
          "indexed": false,
          "internalType": "string",
          "name": "landCode",
          "type": "string"
        },
        {
          "indexed": false,
          "internalType": "address",
          "name": "owner",
          "type": "address"
        },
        {
          "indexed": false,
          "internalType": "string",
          "name": "description",
          "type": "string"
        },
        {
          "indexed": false,
          "internalType": "string",
          "name": "landCoordinatorHash",
          "type": "string"
        },
        {
          "indexed": false,
          "internalType": "bool",
          "name": "isOccupied",
          "type": "bool"
        },
        {
          "indexed": false,
          "internalType": "address",
          "name": "publishAdmin",
          "type": "address"
        },
        {
          "indexed": false,
          "internalType": "uint256",
          "name": "publishDate",
          "type": "uint256"
        }
      ],
      "name": "LandPublished",
      "type": "event"
    },
    {
      "anonymous": false,
      "inputs": [
        {
          "indexed": false,
          "internalType": "uint256",
          "name": "id",
          "type": "uint256"
        },
        {
          "indexed": false,
          "internalType": "uint256",
          "name": "landId",
          "type": "uint256"
        },
        {
          "indexed": false,
          "internalType": "uint256",
          "name": "ownerId",
          "type": "uint256"
        },
        {
          "indexed": false,
          "internalType": "address",
          "name": "adminAddr",
          "type": "address"
        },
        {
          "indexed": false,
          "internalType": "uint256",
          "name": "trxTime",
          "type": "uint256"
        }
      ],
      "name": "LandTransfer",
      "type": "event"
    },
    {
      "inputs": [],
      "name": "citizenCount",
      "outputs": [
        {
          "internalType": "uint256",
          "name": "",
          "type": "uint256"
        }
      ],
      "stateMutability": "view",
      "type": "function",
      "constant": true
    },
    {
      "inputs": [
        {
          "internalType": "uint256",
          "name": "",
          "type": "uint256"
        },
        {
          "internalType": "uint256",
          "name": "",
          "type": "uint256"
        }
      ],
      "name": "citizenIdToOwnedLandTrxIds",
      "outputs": [
        {
          "internalType": "uint256",
          "name": "",
          "type": "uint256"
        }
      ],
      "stateMutability": "view",
      "type": "function",
      "constant": true
    },
    {
      "inputs": [
        {
          "internalType": "uint256",
          "name": "",
          "type": "uint256"
        }
      ],
      "name": "citizens",
      "outputs": [
        {
          "internalType": "uint256",
          "name": "id",
          "type": "uint256"
        },
        {
          "internalType": "uint256",
          "name": "idNumber",
          "type": "uint256"
        },
        {
          "internalType": "string",
          "name": "fullName",
          "type": "string"
        },
        {
          "internalType": "enum Decentraland.Gender",
          "name": "gender",
          "type": "uint8"
        },
        {
          "internalType": "uint256",
          "name": "dob",
          "type": "uint256"
        },
        {
          "internalType": "address",
          "name": "publishAdmin",
          "type": "address"
        },
        {
          "internalType": "uint256",
          "name": "publishDate",
          "type": "uint256"
        }
      ],
      "stateMutability": "view",
      "type": "function",
      "constant": true
    },
    {
      "inputs": [
        {
          "internalType": "uint256",
          "name": "",
          "type": "uint256"
        }
      ],
      "name": "idNumbersToCitizenId",
      "outputs": [
        {
          "internalType": "uint256",
          "name": "",
          "type": "uint256"
        }
      ],
      "stateMutability": "view",
      "type": "function",
      "constant": true
    },
    {
      "inputs": [],
      "name": "landCount",
      "outputs": [
        {
          "internalType": "uint256",
          "name": "",
          "type": "uint256"
        }
      ],
      "stateMutability": "view",
      "type": "function",
      "constant": true
    },
    {
      "inputs": [
        {
          "internalType": "uint256",
          "name": "",
          "type": "uint256"
        },
        {
          "internalType": "uint256",
          "name": "",
          "type": "uint256"
        }
      ],
      "name": "landIdToTrxIds",
      "outputs": [
        {
          "internalType": "uint256",
          "name": "",
          "type": "uint256"
        }
      ],
      "stateMutability": "view",
      "type": "function",
      "constant": true
    },
    {
      "inputs": [
        {
          "internalType": "uint256",
          "name": "",
          "type": "uint256"
        }
      ],
      "name": "landTransferedTrxs",
      "outputs": [
        {
          "internalType": "uint256",
          "name": "id",
          "type": "uint256"
        },
        {
          "internalType": "uint256",
          "name": "ownerId",
          "type": "uint256"
        },
        {
          "internalType": "uint256",
          "name": "ownerIdNumber",
          "type": "uint256"
        },
        {
          "internalType": "string",
          "name": "ownerFullname",
          "type": "string"
        },
        {
          "internalType": "uint256",
          "name": "landId",
          "type": "uint256"
        },
        {
          "internalType": "string",
          "name": "landCode",
          "type": "string"
        },
        {
          "internalType": "address",
          "name": "admin",
          "type": "address"
        },
        {
          "internalType": "uint256",
          "name": "transferDate",
          "type": "uint256"
        }
      ],
      "stateMutability": "view",
      "type": "function",
      "constant": true
    },
    {
      "inputs": [
        {
          "internalType": "uint256",
          "name": "",
          "type": "uint256"
        }
      ],
      "name": "lands",
      "outputs": [
        {
          "internalType": "uint256",
          "name": "id",
          "type": "uint256"
        },
        {
          "internalType": "uint256",
          "name": "parcelNumber",
          "type": "uint256"
        },
        {
          "internalType": "string",
          "name": "landCode",
          "type": "string"
        },
        {
          "internalType": "address",
          "name": "owner",
          "type": "address"
        },
        {
          "internalType": "string",
          "name": "description",
          "type": "string"
        },
        {
          "internalType": "string",
          "name": "landCoordinatorHash",
          "type": "string"
        },
        {
          "internalType": "bool",
          "name": "isOccupied",
          "type": "bool"
        },
        {
          "internalType": "address",
          "name": "publishAdmin",
          "type": "address"
        },
        {
          "internalType": "uint256",
          "name": "publishDate",
          "type": "uint256"
        }
      ],
      "stateMutability": "view",
      "type": "function",
      "constant": true
    },
    {
      "inputs": [],
      "name": "name",
      "outputs": [
        {
          "internalType": "string",
          "name": "",
          "type": "string"
        }
      ],
      "stateMutability": "view",
      "type": "function",
      "constant": true
    },
    {
      "inputs": [],
      "name": "owner",
      "outputs": [
        {
          "internalType": "address",
          "name": "",
          "type": "address"
        }
      ],
      "stateMutability": "view",
      "type": "function",
      "constant": true
    },
    {
      "inputs": [],
      "name": "parcelNumberSeed",
      "outputs": [
        {
          "internalType": "uint256",
          "name": "",
          "type": "uint256"
        }
      ],
      "stateMutability": "view",
      "type": "function",
      "constant": true
    },
    {
      "inputs": [],
      "name": "townshipCode",
      "outputs": [
        {
          "internalType": "string",
          "name": "",
          "type": "string"
        }
      ],
      "stateMutability": "view",
      "type": "function",
      "constant": true
    },
    {
      "inputs": [],
      "name": "transactionCount",
      "outputs": [
        {
          "internalType": "uint256",
          "name": "",
          "type": "uint256"
        }
      ],
      "stateMutability": "view",
      "type": "function",
      "constant": true
    },
    {
      "inputs": [
        {
          "internalType": "address",
          "name": "_landOwner",
          "type": "address"
        },
        {
          "internalType": "string",
          "name": "_description",
          "type": "string"
        },
        {
          "internalType": "string",
          "name": "_landCoordinatorHash",
          "type": "string"
        }
      ],
      "name": "publishLand",
      "outputs": [],
      "stateMutability": "nonpayable",
      "type": "function"
    },
    {
      "inputs": [
        {
          "internalType": "uint256",
          "name": "_idNumber",
          "type": "uint256"
        },
        {
          "internalType": "string",
          "name": "_fullName",
          "type": "string"
        },
        {
          "internalType": "enum Decentraland.Gender",
          "name": "_gender",
          "type": "uint8"
        },
        {
          "internalType": "uint256",
          "name": "_dob",
          "type": "uint256"
        }
      ],
      "name": "publishCitizen",
      "outputs": [],
      "stateMutability": "nonpayable",
      "type": "function"
    },
    {
      "inputs": [
        {
          "internalType": "uint256",
          "name": "_landId",
          "type": "uint256"
        },
        {
          "internalType": "uint256",
          "name": "_citizenIdNumber",
          "type": "uint256"
        }
      ],
      "name": "transferLand",
      "outputs": [],
      "stateMutability": "nonpayable",
      "type": "function"
    },
    {
      "inputs": [
        {
          "internalType": "uint256",
          "name": "_idNumber",
          "type": "uint256"
        }
      ],
      "name": "getCitizenByIdNumber",
      "outputs": [
        {
          "components": [
            {
              "internalType": "uint256",
              "name": "id",
              "type": "uint256"
            },
            {
              "internalType": "uint256",
              "name": "idNumber",
              "type": "uint256"
            },
            {
              "internalType": "string",
              "name": "fullName",
              "type": "string"
            },
            {
              "internalType": "enum Decentraland.Gender",
              "name": "gender",
              "type": "uint8"
            },
            {
              "internalType": "uint256",
              "name": "dob",
              "type": "uint256"
            },
            {
              "internalType": "address",
              "name": "publishAdmin",
              "type": "address"
            },
            {
              "internalType": "uint256",
              "name": "publishDate",
              "type": "uint256"
            }
          ],
          "internalType": "struct Decentraland.Citizen",
          "name": "",
          "type": "tuple"
        }
      ],
      "stateMutability": "view",
      "type": "function",
      "constant": true
    },
    {
      "inputs": [
        {
          "internalType": "uint256",
          "name": "_landId",
          "type": "uint256"
        }
      ],
      "name": "getLandTrxs",
      "outputs": [
        {
          "components": [
            {
              "internalType": "uint256",
              "name": "id",
              "type": "uint256"
            },
            {
              "internalType": "uint256",
              "name": "ownerId",
              "type": "uint256"
            },
            {
              "internalType": "uint256",
              "name": "ownerIdNumber",
              "type": "uint256"
            },
            {
              "internalType": "string",
              "name": "ownerFullname",
              "type": "string"
            },
            {
              "internalType": "uint256",
              "name": "landId",
              "type": "uint256"
            },
            {
              "internalType": "string",
              "name": "landCode",
              "type": "string"
            },
            {
              "internalType": "address",
              "name": "admin",
              "type": "address"
            },
            {
              "internalType": "uint256",
              "name": "transferDate",
              "type": "uint256"
            }
          ],
          "internalType": "struct Decentraland.landTransferedTrx[]",
          "name": "",
          "type": "tuple[]"
        }
      ],
      "stateMutability": "view",
      "type": "function",
      "constant": true
    },
    {
      "inputs": [
        {
          "internalType": "uint256",
          "name": "_citizenId",
          "type": "uint256"
        }
      ],
      "name": "getCitizenOwnedTrxs",
      "outputs": [
        {
          "components": [
            {
              "internalType": "uint256",
              "name": "id",
              "type": "uint256"
            },
            {
              "internalType": "uint256",
              "name": "ownerId",
              "type": "uint256"
            },
            {
              "internalType": "uint256",
              "name": "ownerIdNumber",
              "type": "uint256"
            },
            {
              "internalType": "string",
              "name": "ownerFullname",
              "type": "string"
            },
            {
              "internalType": "uint256",
              "name": "landId",
              "type": "uint256"
            },
            {
              "internalType": "string",
              "name": "landCode",
              "type": "string"
            },
            {
              "internalType": "address",
              "name": "admin",
              "type": "address"
            },
            {
              "internalType": "uint256",
              "name": "transferDate",
              "type": "uint256"
            }
          ],
          "internalType": "struct Decentraland.landTransferedTrx[]",
          "name": "",
          "type": "tuple[]"
        }
      ],
      "stateMutability": "view",
      "type": "function",
      "constant": true
    }
  ],
  "bytecode": "0x608060405261138860015560006002556000600355600060045534801561002557600080fd5b50336000806101000a81548173ffffffffffffffffffffffffffffffffffffffff021916908373ffffffffffffffffffffffffffffffffffffffff160217905550613328806100756000396000f3fe608060405234801561001057600080fd5b50600436106101215760003560e01c8063b77bf600116100ad578063c98a496f11610071578063c98a496f14610338578063d353b5ef1461036f578063d7bce6581461039f578063e261f1e5146103bd578063f8937fb8146103f557610121565b8063b77bf60014610280578063bba8f58d1461029e578063c6c6b98d146102ce578063c7566950146102fe578063c96e298d1461031a57610121565b80633c032cfd116100f45780633c032cfd146101c65780633ce8e513146101f65780635b4c777d146102265780638b88c86c146102445780638da5cb5b1461026257610121565b806306fdde031461012657806309a34f001461014457806311c4a2861461017a5780632ef5c4fb14610196575b600080fd5b61012e610411565b60405161013b919061243a565b60405180910390f35b61015e6004803603810190610159919061249c565b61044a565b6040516101719796959493929190612590565b60405180910390f35b610194600480360381019061018f9190612697565b610541565b005b6101b060048036038101906101ab919061249c565b6108bc565b6040516101bd919061290d565b60405180910390f35b6101e060048036038101906101db919061292f565b610c02565b6040516101ed919061296f565b60405180910390f35b610210600480360381019061020b919061249c565b610c33565b60405161021d919061296f565b60405180910390f35b61022e610c4b565b60405161023b919061296f565b60405180910390f35b61024c610c51565b604051610259919061296f565b60405180910390f35b61026a610c57565b604051610277919061298a565b60405180910390f35b610288610c7b565b604051610295919061296f565b60405180910390f35b6102b860048036038101906102b3919061249c565b610c81565b6040516102c59190612a50565b60405180910390f35b6102e860048036038101906102e3919061249c565b610e60565b6040516102f5919061290d565b60405180910390f35b6103186004803603810190610313919061292f565b6111a6565b005b610322611642565b60405161032f919061243a565b60405180910390f35b610352600480360381019061034d919061249c565b61167b565b604051610366989796959493929190612a72565b60405180910390f35b6103896004803603810190610384919061292f565b6117f3565b604051610396919061296f565b60405180910390f35b6103a7611824565b6040516103b4919061296f565b60405180910390f35b6103d760048036038101906103d2919061249c565b61182a565b6040516103ec99989796959493929190612b19565b60405180910390f35b61040f600480360381019061040a9190612be0565b611a5d565b005b6040518060400160405280600c81526020017f446563656e7472616c616e64000000000000000000000000000000000000000081525081565b600660205280600052604060002060009150905080600001549080600101549080600201805461047990612c97565b80601f01602080910402602001604051908101604052809291908181526020018280546104a590612c97565b80156104f25780601f106104c7576101008083540402835291602001916104f2565b820191906000526020600020905b8154815290600101906020018083116104d557829003601f168201915b5050505050908060030160009054906101000a900460ff16908060040154908060050160009054906101000a900473ffffffffffffffffffffffffffffffffffffffff16908060060154905087565b6000828290501161055157600080fd5b6000848490501161056157600080fd5b600073ffffffffffffffffffffffffffffffffffffffff163373ffffffffffffffffffffffffffffffffffffffff16141561059b57600080fd5b600260008154809291906105ae90612cf8565b919050555060006002546001546105c59190612d41565b905060006040518060400160405280600381526020017f415344000000000000000000000000000000000000000000000000000000000081525061060883611cd0565b604051602001610619929190612dd3565b6040516020818303038152906040529050600042905060405180610120016040528060025481526020018481526020018381526020018973ffffffffffffffffffffffffffffffffffffffff16815260200188888080601f016020809104026020016040519081016040528093929190818152602001838380828437600081840152601f19601f82011690508083019250505050505050815260200186868080601f016020809104026020016040519081016040528093929190818152602001838380828437600081840152601f19601f8201169050808301925050505050505081526020016000151581526020013373ffffffffffffffffffffffffffffffffffffffff168152602001828152506005600060025481526020019081526020016000206000820151816000015560208201518160010155604082015181600201908051906020019061076d92919061223e565b5060608201518160030160006101000a81548173ffffffffffffffffffffffffffffffffffffffff021916908373ffffffffffffffffffffffffffffffffffffffff16021790555060808201518160040190805190602001906107d192919061223e565b5060a08201518160050190805190602001906107ee92919061223e565b5060c08201518160060160006101000a81548160ff02191690831515021790555060e08201518160060160016101000a81548173ffffffffffffffffffffffffffffffffffffffff021916908373ffffffffffffffffffffffffffffffffffffffff16021790555061010082015181600701559050507f063a91ded2c27e3d382b01736085febc0ab4426cd4f2d284ffa05b196197f91560025484848b8b8b8b8b6000338b6040516108aa9b9a99989796959493929190612e33565b60405180910390a15050505050505050565b6060816000811180156108d157506003548111155b610910576040517f08c379a000000000000000000000000000000000000000000000000000000000815260040161090790612f25565b60405180910390fd5b6000600a600085815260200190815260200160002080548060200260200160405190810160405280929190818152602001828054801561096f57602002820191906000526020600020905b81548152602001906001019080831161095b575b5050505050905060008151905060008167ffffffffffffffff81111561099857610997612f45565b5b6040519080825280602002602001820160405280156109d157816020015b6109be6122c4565b8152602001906001900390816109b65790505b50905060005b82811015610bf557600860008583815181106109f6576109f5612f74565b5b6020026020010151815260200190815260200160002060405180610100016040529081600082015481526020016001820154815260200160028201548152602001600382018054610a4690612c97565b80601f0160208091040260200160405190810160405280929190818152602001828054610a7290612c97565b8015610abf5780601f10610a9457610100808354040283529160200191610abf565b820191906000526020600020905b815481529060010190602001808311610aa257829003601f168201915b5050505050815260200160048201548152602001600582018054610ae290612c97565b80601f0160208091040260200160405190810160405280929190818152602001828054610b0e90612c97565b8015610b5b5780601f10610b3057610100808354040283529160200191610b5b565b820191906000526020600020905b815481529060010190602001808311610b3e57829003601f168201915b505050505081526020016006820160009054906101000a900473ffffffffffffffffffffffffffffffffffffffff1673ffffffffffffffffffffffffffffffffffffffff1673ffffffffffffffffffffffffffffffffffffffff168152602001600782015481525050828281518110610bd757610bd6612f74565b5b60200260200101819052508080610bed90612cf8565b9150506109d7565b5080945050505050919050565b60096020528160005260406000208181548110610c1e57600080fd5b90600052602060002001600091509150505481565b60076020528060005260406000206000915090505481565b60035481565b60015481565b60008054906101000a900473ffffffffffffffffffffffffffffffffffffffff1681565b60045481565b610c8961231f565b816000600a610c9783611cd0565b5114905080610cdb576040517f08c379a0000000000000000000000000000000000000000000000000000000008152600401610cd290613015565b60405180910390fd5b60066000600760008781526020019081526020016000205481526020019081526020016000206040518060e00160405290816000820154815260200160018201548152602001600282018054610d3090612c97565b80601f0160208091040260200160405190810160405280929190818152602001828054610d5c90612c97565b8015610da95780601f10610d7e57610100808354040283529160200191610da9565b820191906000526020600020905b815481529060010190602001808311610d8c57829003601f168201915b505050505081526020016003820160009054906101000a900460ff166001811115610dd757610dd66124d8565b5b6001811115610de957610de86124d8565b5b8152602001600482015481526020016005820160009054906101000a900473ffffffffffffffffffffffffffffffffffffffff1673ffffffffffffffffffffffffffffffffffffffff1673ffffffffffffffffffffffffffffffffffffffff16815260200160068201548152505092505050919050565b606081600081118015610e7557506002548111155b610eb4576040517f08c379a0000000000000000000000000000000000000000000000000000000008152600401610eab90613081565b60405180910390fd5b600060096000858152602001908152602001600020805480602002602001604051908101604052809291908181526020018280548015610f1357602002820191906000526020600020905b815481526020019060010190808311610eff575b5050505050905060008151905060008167ffffffffffffffff811115610f3c57610f3b612f45565b5b604051908082528060200260200182016040528015610f7557816020015b610f626122c4565b815260200190600190039081610f5a5790505b50905060005b828110156111995760086000858381518110610f9a57610f99612f74565b5b6020026020010151815260200190815260200160002060405180610100016040529081600082015481526020016001820154815260200160028201548152602001600382018054610fea90612c97565b80601f016020809104026020016040519081016040528092919081815260200182805461101690612c97565b80156110635780601f1061103857610100808354040283529160200191611063565b820191906000526020600020905b81548152906001019060200180831161104657829003601f168201915b505050505081526020016004820154815260200160058201805461108690612c97565b80601f01602080910402602001604051908101604052809291908181526020018280546110b290612c97565b80156110ff5780601f106110d4576101008083540402835291602001916110ff565b820191906000526020600020905b8154815290600101906020018083116110e257829003601f168201915b505050505081526020016006820160009054906101000a900473ffffffffffffffffffffffffffffffffffffffff1673ffffffffffffffffffffffffffffffffffffffff1673ffffffffffffffffffffffffffffffffffffffff16815260200160078201548152505082828151811061117b5761117a612f74565b5b6020026020010181905250808061119190612cf8565b915050610f7b565b5080945050505050919050565b816000811180156111b957506002548111155b6111f8576040517f08c379a00000000000000000000000000000000000000000000000000000000081526004016111ef90613081565b60405180910390fd5b816000600a61120683611cd0565b511490508061124a576040517f08c379a000000000000000000000000000000000000000000000000000000000815260040161124190613015565b60405180910390fd5b60006007600086815260200190815260200160002054905060006009600088815260200190815260200160002080549050905060008111156112da576112908783611e31565b156112d0576040517f08c379a00000000000000000000000000000000000000000000000000000000081526004016112c790613113565b60405180910390fd5b6112d9876120ba565b5b600460008154809291906112ed90612cf8565b9190505550600060056000898152602001908152602001600020905060018160060160006101000a81548160ff02191690831515021790555060006006600085815260200190815260200160002090506040518061010001604052806004548152602001826000015481526020018260010154815260200182600201805461137490612c97565b80601f01602080910402602001604051908101604052809291908181526020018280546113a090612c97565b80156113ed5780601f106113c2576101008083540402835291602001916113ed565b820191906000526020600020905b8154815290600101906020018083116113d057829003601f168201915b505050505081526020018360000154815260200183600201805461141090612c97565b80601f016020809104026020016040519081016040528092919081815260200182805461143c90612c97565b80156114895780601f1061145e57610100808354040283529160200191611489565b820191906000526020600020905b81548152906001019060200180831161146c57829003601f168201915b505050505081526020013373ffffffffffffffffffffffffffffffffffffffff16815260200142815250600860006004548152602001908152602001600020600082015181600001556020820151816001015560408201518160020155606082015181600301908051906020019061150292919061223e565b506080820151816004015560a082015181600501908051906020019061152992919061223e565b5060c08201518160060160006101000a81548173ffffffffffffffffffffffffffffffffffffffff021916908373ffffffffffffffffffffffffffffffffffffffff16021790555060e08201518160070155905050600960008a81526020019081526020016000206004549080600181540180825580915050600190039060005260206000200160009091909190915055600a600085815260200190815260200160002060045490806001815401808255809150506001900390600052602060002001600090919091909150557f614b70eeb7f5cdc74e56cf37e259524ac64676dfdf177d611e8f74b707f64c0a6004548a86334260405161162f959493929190613133565b60405180910390a1505050505050505050565b6040518060400160405280600381526020017f415344000000000000000000000000000000000000000000000000000000000081525081565b60086020528060005260406000206000915090508060000154908060010154908060020154908060030180546116b090612c97565b80601f01602080910402602001604051908101604052809291908181526020018280546116dc90612c97565b80156117295780601f106116fe57610100808354040283529160200191611729565b820191906000526020600020905b81548152906001019060200180831161170c57829003601f168201915b50505050509080600401549080600501805461174490612c97565b80601f016020809104026020016040519081016040528092919081815260200182805461177090612c97565b80156117bd5780601f10611792576101008083540402835291602001916117bd565b820191906000526020600020905b8154815290600101906020018083116117a057829003601f168201915b5050505050908060060160009054906101000a900473ffffffffffffffffffffffffffffffffffffffff16908060070154905088565b600a602052816000526040600020818154811061180f57600080fd5b90600052602060002001600091509150505481565b60025481565b600560205280600052604060002060009150905080600001549080600101549080600201805461185990612c97565b80601f016020809104026020016040519081016040528092919081815260200182805461188590612c97565b80156118d25780601f106118a7576101008083540402835291602001916118d2565b820191906000526020600020905b8154815290600101906020018083116118b557829003601f168201915b5050505050908060030160009054906101000a900473ffffffffffffffffffffffffffffffffffffffff169080600401805461190d90612c97565b80601f016020809104026020016040519081016040528092919081815260200182805461193990612c97565b80156119865780601f1061195b57610100808354040283529160200191611986565b820191906000526020600020905b81548152906001019060200180831161196957829003601f168201915b50505050509080600501805461199b90612c97565b80601f01602080910402602001604051908101604052809291908181526020018280546119c790612c97565b8015611a145780601f106119e957610100808354040283529160200191611a14565b820191906000526020600020905b8154815290600101906020018083116119f757829003601f168201915b5050505050908060060160009054906101000a900460ff16908060060160019054906101000a900473ffffffffffffffffffffffffffffffffffffffff16908060070154905089565b846000600a611a6b83611cd0565b5114905080611aaf576040517f08c379a0000000000000000000000000000000000000000000000000000000008152600401611aa690613015565b60405180910390fd5b60028711611abc57600080fd5b60008686905011611acc57600080fd5b60008311611ad957600080fd5b60036000815480929190611aec90612cf8565b91905055506040518060e00160405280600354815260200188815260200187878080601f016020809104026020016040519081016040528093929190818152602001838380828437600081840152601f19601f820116905080830192505050505050508152602001856001811115611b6757611b666124d8565b5b81526020018481526020013373ffffffffffffffffffffffffffffffffffffffff1681526020014281525060066000600354815260200190815260200160002060008201518160000155602082015181600101556040820151816002019080519060200190611bd792919061223e565b5060608201518160030160006101000a81548160ff02191690836001811115611c0357611c026124d8565b5b02179055506080820151816004015560a08201518160050160006101000a81548173ffffffffffffffffffffffffffffffffffffffff021916908373ffffffffffffffffffffffffffffffffffffffff16021790555060c0820151816006015590505060035460076000898152602001908152602001600020819055507f9e452ff4b2f83dd156b789a1890a80b05cca0d5160993b984f6828013fff011660035488888888883342604051611cbf989796959493929190613186565b60405180910390a150505050505050565b60606000821415611d18576040518060400160405280600181526020017f30000000000000000000000000000000000000000000000000000000000000008152509050611e2c565b600082905060005b60008214611d4a578080611d3390612cf8565b915050600a82611d43919061322d565b9150611d20565b60008167ffffffffffffffff811115611d6657611d65612f45565b5b6040519080825280601f01601f191660200182016040528015611d985781602001600182028036833780820191505090505b5090505b60008514611e2557600182611db1919061325e565b9150600a85611dc09190613292565b6030611dcc9190612d41565b60f81b818381518110611de257611de1612f74565b5b60200101907effffffffffffffffffffffffffffffffffffffffffffffffffffffffffffff1916908160001a905350600a85611e1e919061322d565b9450611d9c565b8093505050505b919050565b60008060096000858152602001908152602001600020805490509050600060096000868152602001908152602001600020805480602002602001604051908101604052809291908181526020018280548015611eac57602002820191906000526020600020905b815481526020019060010190808311611e98575b5050505050905060006008600083600186611ec7919061325e565b81518110611ed857611ed7612f74565b5b6020026020010151815260200190815260200160002060405180610100016040529081600082015481526020016001820154815260200160028201548152602001600382018054611f2890612c97565b80601f0160208091040260200160405190810160405280929190818152602001828054611f5490612c97565b8015611fa15780601f10611f7657610100808354040283529160200191611fa1565b820191906000526020600020905b815481529060010190602001808311611f8457829003601f168201915b5050505050815260200160048201548152602001600582018054611fc490612c97565b80601f0160208091040260200160405190810160405280929190818152602001828054611ff090612c97565b801561203d5780601f106120125761010080835404028352916020019161203d565b820191906000526020600020905b81548152906001019060200180831161202057829003601f168201915b505050505081526020016006820160009054906101000a900473ffffffffffffffffffffffffffffffffffffffff1673ffffffffffffffffffffffffffffffffffffffff1673ffffffffffffffffffffffffffffffffffffffff168152602001600782015481525050905084816020015114935050505092915050565b6000600960008381526020019081526020016000208054905090506000600960008481526020019081526020016000206001836120f7919061325e565b8154811061210857612107612f74565b5b906000526020600020015490506000600860008381526020019081526020016000206001015490506000600a600083815260200190815260200160002090506000805b6001838054905061215c919061325e565b81101561220e5760006008600085848154811061217c5761217b612f74565b5b90600052602060002001548152602001908152602001600020600401549050878114156121a857600192505b82156121fa57836001836121bc9190612d41565b815481106121cd576121cc612f74565b5b90600052602060002001548483815481106121eb576121ea612f74565b5b90600052602060002001819055505b50808061220690612cf8565b91505061214b565b50818054806122205761221f6132c3565b5b60019003818190600052602060002001600090559055505050505050565b82805461224a90612c97565b90600052602060002090601f01602090048101928261226c57600085556122b3565b82601f1061228557805160ff19168380011785556122b3565b828001600101855582156122b3579182015b828111156122b2578251825591602001919060010190612297565b5b5090506122c09190612384565b5090565b604051806101000160405280600081526020016000815260200160008152602001606081526020016000815260200160608152602001600073ffffffffffffffffffffffffffffffffffffffff168152602001600081525090565b6040518060e0016040528060008152602001600081526020016060815260200160006001811115612353576123526124d8565b5b815260200160008152602001600073ffffffffffffffffffffffffffffffffffffffff168152602001600081525090565b5b8082111561239d576000816000905550600101612385565b5090565b600081519050919050565b600082825260208201905092915050565b60005b838110156123db5780820151818401526020810190506123c0565b838111156123ea576000848401525b50505050565b6000601f19601f8301169050919050565b600061240c826123a1565b61241681856123ac565b93506124268185602086016123bd565b61242f816123f0565b840191505092915050565b600060208201905081810360008301526124548184612401565b905092915050565b600080fd5b600080fd5b6000819050919050565b61247981612466565b811461248457600080fd5b50565b60008135905061249681612470565b92915050565b6000602082840312156124b2576124b161245c565b5b60006124c084828501612487565b91505092915050565b6124d281612466565b82525050565b7f4e487b7100000000000000000000000000000000000000000000000000000000600052602160045260246000fd5b60028110612518576125176124d8565b5b50565b600081905061252982612507565b919050565b60006125398261251b565b9050919050565b6125498161252e565b82525050565b600073ffffffffffffffffffffffffffffffffffffffff82169050919050565b600061257a8261254f565b9050919050565b61258a8161256f565b82525050565b600060e0820190506125a5600083018a6124c9565b6125b260208301896124c9565b81810360408301526125c48188612401565b90506125d36060830187612540565b6125e060808301866124c9565b6125ed60a0830185612581565b6125fa60c08301846124c9565b98975050505050505050565b61260f8161256f565b811461261a57600080fd5b50565b60008135905061262c81612606565b92915050565b600080fd5b600080fd5b600080fd5b60008083601f84011261265757612656612632565b5b8235905067ffffffffffffffff81111561267457612673612637565b5b6020830191508360018202830111156126905761268f61263c565b5b9250929050565b6000806000806000606086880312156126b3576126b261245c565b5b60006126c18882890161261d565b955050602086013567ffffffffffffffff8111156126e2576126e1612461565b5b6126ee88828901612641565b9450945050604086013567ffffffffffffffff81111561271157612710612461565b5b61271d88828901612641565b92509250509295509295909350565b600081519050919050565b600082825260208201905092915050565b6000819050602082019050919050565b61276181612466565b82525050565b600082825260208201905092915050565b6000612783826123a1565b61278d8185612767565b935061279d8185602086016123bd565b6127a6816123f0565b840191505092915050565b6127ba8161256f565b82525050565b6000610100830160008301516127d96000860182612758565b5060208301516127ec6020860182612758565b5060408301516127ff6040860182612758565b50606083015184820360608601526128178282612778565b915050608083015161282c6080860182612758565b5060a083015184820360a08601526128448282612778565b91505060c083015161285960c08601826127b1565b5060e083015161286c60e0860182612758565b508091505092915050565b600061288383836127c0565b905092915050565b6000602082019050919050565b60006128a38261272c565b6128ad8185612737565b9350836020820285016128bf85612748565b8060005b858110156128fb57848403895281516128dc8582612877565b94506128e78361288b565b925060208a019950506001810190506128c3565b50829750879550505050505092915050565b600060208201905081810360008301526129278184612898565b905092915050565b600080604083850312156129465761294561245c565b5b600061295485828601612487565b925050602061296585828601612487565b9150509250929050565b600060208201905061298460008301846124c9565b92915050565b600060208201905061299f6000830184612581565b92915050565b6129ae8161252e565b82525050565b600060e0830160008301516129cc6000860182612758565b5060208301516129df6020860182612758565b50604083015184820360408601526129f78282612778565b9150506060830151612a0c60608601826129a5565b506080830151612a1f6080860182612758565b5060a0830151612a3260a08601826127b1565b5060c0830151612a4560c0860182612758565b508091505092915050565b60006020820190508181036000830152612a6a81846129b4565b905092915050565b600061010082019050612a88600083018b6124c9565b612a95602083018a6124c9565b612aa260408301896124c9565b8181036060830152612ab48188612401565b9050612ac360808301876124c9565b81810360a0830152612ad58186612401565b9050612ae460c0830185612581565b612af160e08301846124c9565b9998505050505050505050565b60008115159050919050565b612b1381612afe565b82525050565b600061012082019050612b2f600083018c6124c9565b612b3c602083018b6124c9565b8181036040830152612b4e818a612401565b9050612b5d6060830189612581565b8181036080830152612b6f8188612401565b905081810360a0830152612b838187612401565b9050612b9260c0830186612b0a565b612b9f60e0830185612581565b612bad6101008301846124c9565b9a9950505050505050505050565b60028110612bc857600080fd5b50565b600081359050612bda81612bbb565b92915050565b600080600080600060808688031215612bfc57612bfb61245c565b5b6000612c0a88828901612487565b955050602086013567ffffffffffffffff811115612c2b57612c2a612461565b5b612c3788828901612641565b94509450506040612c4a88828901612bcb565b9250506060612c5b88828901612487565b9150509295509295909350565b7f4e487b7100000000000000000000000000000000000000000000000000000000600052602260045260246000fd5b60006002820490506001821680612caf57607f821691505b60208210811415612cc357612cc2612c68565b5b50919050565b7f4e487b7100000000000000000000000000000000000000000000000000000000600052601160045260246000fd5b6000612d0382612466565b91507fffffffffffffffffffffffffffffffffffffffffffffffffffffffffffffffff821415612d3657612d35612cc9565b5b600182019050919050565b6000612d4c82612466565b9150612d5783612466565b9250827fffffffffffffffffffffffffffffffffffffffffffffffffffffffffffffffff03821115612d8c57612d8b612cc9565b5b828201905092915050565b600081905092915050565b6000612dad826123a1565b612db78185612d97565b9350612dc78185602086016123bd565b80840191505092915050565b6000612ddf8285612da2565b9150612deb8284612da2565b91508190509392505050565b82818337600083830152505050565b6000612e1283856123ac565b9350612e1f838584612df7565b612e28836123f0565b840190509392505050565b600061012082019050612e49600083018e6124c9565b612e56602083018d6124c9565b8181036040830152612e68818c612401565b9050612e77606083018b612581565b8181036080830152612e8a81898b612e06565b905081810360a0830152612e9f818789612e06565b9050612eae60c0830186612b0a565b612ebb60e0830185612581565b612ec96101008301846124c9565b9c9b505050505050505050505050565b7f496e76616c696420636974697a656e2069640000000000000000000000000000600082015250565b6000612f0f6012836123ac565b9150612f1a82612ed9565b602082019050919050565b60006020820190508181036000830152612f3e81612f02565b9050919050565b7f4e487b7100000000000000000000000000000000000000000000000000000000600052604160045260246000fd5b7f4e487b7100000000000000000000000000000000000000000000000000000000600052603260045260246000fd5b7f436974697a656e206964206e756d626572206d75737420636f6e7461696e203160008201527f3020646967697400000000000000000000000000000000000000000000000000602082015250565b6000612fff6027836123ac565b915061300a82612fa3565b604082019050919050565b6000602082019050818103600083015261302e81612ff2565b9050919050565b7f496e76616c6964206c616e642069640000000000000000000000000000000000600082015250565b600061306b600f836123ac565b915061307682613035565b602082019050919050565b6000602082019050818103600083015261309a8161305e565b9050919050565b7f436974697a656e206973207468652063757272656e74206c616e642773206f7760008201527f6e65720000000000000000000000000000000000000000000000000000000000602082015250565b60006130fd6023836123ac565b9150613108826130a1565b604082019050919050565b6000602082019050818103600083015261312c816130f0565b9050919050565b600060a08201905061314860008301886124c9565b61315560208301876124c9565b61316260408301866124c9565b61316f6060830185612581565b61317c60808301846124c9565b9695505050505050565b600060e08201905061319b600083018b6124c9565b6131a8602083018a6124c9565b81810360408301526131bb81888a612e06565b90506131ca6060830187612540565b6131d760808301866124c9565b6131e460a0830185612581565b6131f160c08301846124c9565b9998505050505050505050565b7f4e487b7100000000000000000000000000000000000000000000000000000000600052601260045260246000fd5b600061323882612466565b915061324383612466565b925082613253576132526131fe565b5b828204905092915050565b600061326982612466565b915061327483612466565b92508282101561328757613286612cc9565b5b828203905092915050565b600061329d82612466565b91506132a883612466565b9250826132b8576132b76131fe565b5b828206905092915050565b7f4e487b7100000000000000000000000000000000000000000000000000000000600052603160045260246000fdfea26469706673582212200b6f6e6c81c23d118928305c4de36f04725f5795cc3a8648a953123d1e83920164736f6c634300080c0033",
  "immutableReferences": {},
  "source": "// SPDX-License-Identifier: MIT\r\npragma solidity ^0.8.0;\r\n\r\nimport \"@openzeppelin/contracts/utils/Strings.sol\";\r\n\r\ncontract Decentraland{\r\n    enum Gender{MALE, FEMALE}\r\n\r\n    //Store land\r\n    struct Land{\r\n        uint256 id;\r\n        uint256 parcelNumber;\r\n        string landCode;\r\n        address owner;\r\n        string description;\r\n        string landCoordinatorHash;\r\n        bool isOccupied;\r\n        address publishAdmin;\r\n        uint256 publishDate;\r\n    }\r\n\r\n    struct Citizen{\r\n        uint256 id;\r\n        uint256 idNumber;\r\n        string fullName;\r\n        Gender gender;\r\n        uint256 dob;\r\n        address publishAdmin;\r\n        uint256 publishDate;\r\n    }\r\n\r\n    struct landTransferedTrx{\r\n        uint256 id;\r\n        uint256 ownerId;\r\n        uint256 ownerIdNumber;\r\n        string ownerFullname;\r\n        uint256 landId;\r\n        string landCode;\r\n        address admin;\r\n        uint256 transferDate;\r\n    }\r\n\r\n    event LandPublished(\r\n        uint256 id,\r\n        uint256 parcelNumber,\r\n        string landCode,\r\n        address owner,\r\n        string description,\r\n        string landCoordinatorHash,\r\n        bool isOccupied,\r\n        address publishAdmin,\r\n        uint256 publishDate\r\n    );\r\n\r\n    event CitizenPublished(\r\n        uint256 id,\r\n        uint256 idNumber,\r\n        string fullName,\r\n        Gender gender,\r\n        uint256 dob,\r\n        address publishAdmin,\r\n        uint256 publishDate\r\n    );\r\n\r\n    event LandTransfer(\r\n        uint256 id,\r\n        uint256 landId,\r\n        uint256 ownerId,\r\n        address adminAddr,\r\n        uint256 trxTime\r\n    );\r\n\r\n    string public constant name = \"Decentraland\";\r\n    string public constant townshipCode = \"ASD\";\r\n    address public owner;\r\n    uint256 public parcelNumberSeed = 5000;\r\n    uint256 public landCount = 0;\r\n    uint256 public citizenCount = 0;\r\n    uint256 public transactionCount = 0;\r\n    mapping(uint256 => Land) public lands;\r\n    mapping(uint256 => Citizen) public citizens;\r\n    mapping(uint256 => uint256) public idNumbersToCitizenId;\r\n    mapping(uint256 => landTransferedTrx) public landTransferedTrxs;\r\n    mapping(uint256 => uint256[]) public landIdToTrxIds;\r\n    mapping(uint256 => uint256[]) public citizenIdToOwnedLandTrxIds;\r\n\r\n    constructor(){\r\n        owner = msg.sender;\r\n    }\r\n\r\n    function publishLand(\r\n        address _landOwner,\r\n        string calldata _description,\r\n        string calldata _landCoordinatorHash\r\n    ) external{\r\n        require(bytes(_landCoordinatorHash).length > 0);\r\n        require(bytes(_description).length > 0);\r\n        require(msg.sender != address(0));\r\n        landCount++;\r\n        uint256 parcelNumber = parcelNumberSeed + landCount;\r\n        string memory landCode = string(abi.encodePacked(townshipCode, Strings.toString(parcelNumber)));\r\n        uint256 publishDate = block.timestamp;\r\n\r\n        lands[landCount] = Land(\r\n            landCount,\r\n            parcelNumber,\r\n            landCode,\r\n            _landOwner,\r\n            _description,\r\n            _landCoordinatorHash,\r\n            false,\r\n            msg.sender,\r\n            publishDate\r\n        );\r\n\r\n        emit LandPublished(\r\n            landCount,\r\n            parcelNumber,\r\n            landCode,\r\n            _landOwner,\r\n            _description,\r\n            _landCoordinatorHash,\r\n            false,\r\n            msg.sender,\r\n            publishDate\r\n        );\r\n    }\r\n\r\n    function publishCitizen (\r\n        uint256 _idNumber, string calldata _fullName, Gender _gender, uint256 _dob\r\n    ) external validCitizenIdNumber(_idNumber){\r\n        require(_idNumber > 2);\r\n        require(bytes(_fullName).length > 0);\r\n        require(_dob > 0);\r\n        citizenCount++;\r\n        citizens[citizenCount] = Citizen(\r\n            citizenCount,\r\n            _idNumber,\r\n            _fullName,\r\n            _gender,\r\n            _dob,\r\n            msg.sender,\r\n            block.timestamp\r\n        );\r\n        idNumbersToCitizenId[_idNumber] = citizenCount;\r\n\r\n        emit CitizenPublished(\r\n            citizenCount,\r\n            _idNumber,\r\n            _fullName,\r\n            _gender,\r\n            _dob,\r\n            msg.sender,\r\n            block.timestamp\r\n        );\r\n    }\r\n\r\n    function isCitizenLandOwner(uint256 _landId, uint256 _citizenId) view private returns(bool){\r\n        uint256 landTrxsLength = landIdToTrxIds[_landId].length;\r\n        uint256[] memory landTrxIds = landIdToTrxIds[_landId];\r\n        landTransferedTrx memory lastLandTrx = landTransferedTrxs[landTrxIds[landTrxsLength - 1]];\r\n        return lastLandTrx.ownerId == _citizenId;\r\n    }\r\n\r\n    function revokeCurrentOwner(uint256 _landId) private{\r\n        uint256 landTrxsLength = landIdToTrxIds[_landId].length;\r\n        uint256 trxOwnerId = landIdToTrxIds[_landId][landTrxsLength - 1];\r\n        uint256 currentOwnerId = landTransferedTrxs[trxOwnerId].ownerId;\r\n\r\n        uint256[] storage ownerTrxIds = citizenIdToOwnedLandTrxIds[currentOwnerId];\r\n        bool isAfterIndex = false;\r\n        for(uint256 i = 0; i < ownerTrxIds.length - 1; i++){\r\n            uint256 currentLandId = landTransferedTrxs[ownerTrxIds[i]].landId;\r\n            if(currentLandId == _landId){\r\n                isAfterIndex = true;\r\n            }\r\n            if(isAfterIndex){\r\n                ownerTrxIds[i] = ownerTrxIds[i + 1];\r\n            }\r\n\r\n        }\r\n        ownerTrxIds.pop();\r\n    }\r\n\r\n    modifier validLandId(uint256 _landId){\r\n        require(_landId > 0 && _landId <= landCount, \"Invalid land id\");\r\n        _;\r\n    }\r\n\r\n    modifier validCitizenId(uint256 _citizenId){\r\n        require(_citizenId > 0 && _citizenId <= citizenCount, \"Invalid citizen id\");\r\n        _;\r\n    }\r\n\r\n    modifier validCitizenIdNumber(uint256 _citizenIdNumber){\r\n        bool is10Digit = bytes(Strings.toString(_citizenIdNumber)).length == 10;\r\n        require(is10Digit, \"Citizen id number must contain 10 digit\");\r\n        _;\r\n    }\r\n\r\n    function transferLand(uint256 _landId, uint256 _citizenIdNumber) external validLandId(_landId) validCitizenIdNumber(_citizenIdNumber){\r\n        uint256 citizenId = idNumbersToCitizenId[_citizenIdNumber];\r\n        uint256 landTrxsLength = landIdToTrxIds[_landId].length;\r\n        if(landTrxsLength > 0){\r\n            if(isCitizenLandOwner(_landId, citizenId)){\r\n                revert(\"Citizen is the current land's owner\");\r\n            }\r\n            revokeCurrentOwner(_landId);\r\n        }\r\n        transactionCount++;\r\n        Land storage land = lands[_landId];\r\n        land.isOccupied = true;\r\n        Citizen storage citizen = citizens[citizenId]; \r\n        landTransferedTrxs[transactionCount] = landTransferedTrx(\r\n            transactionCount,\r\n            citizen.id,\r\n            citizen.idNumber,\r\n            citizen.fullName,\r\n            land.id,\r\n            land.landCode,\r\n            msg.sender,\r\n            block.timestamp\r\n        );\r\n        landIdToTrxIds[_landId].push(transactionCount);\r\n        citizenIdToOwnedLandTrxIds[citizenId].push(transactionCount);\r\n        emit LandTransfer(transactionCount, _landId, citizenId, msg.sender, block.timestamp);\r\n    }\r\n\r\n    function getCitizenByIdNumber(uint256 _idNumber) public view validCitizenIdNumber(_idNumber) returns(Citizen memory){\r\n        return citizens[idNumbersToCitizenId[_idNumber]];\r\n    }\r\n\r\n    function getLandTrxs(uint256 _landId) external view validLandId(_landId) returns(landTransferedTrx[] memory) {\r\n        uint256[] memory trxIds = landIdToTrxIds[_landId];\r\n        uint256 arrLength = trxIds.length;\r\n        landTransferedTrx[] memory result = new landTransferedTrx[](arrLength);\r\n        for(uint256 i = 0; i < arrLength; i++){\r\n            result[i] = landTransferedTrxs[trxIds[i]];\r\n        }\r\n        return result;\r\n    }\r\n\r\n    function getCitizenOwnedTrxs(uint256 _citizenId) external view validCitizenId(_citizenId) returns(landTransferedTrx[] memory){\r\n        uint256[] memory trxIds = citizenIdToOwnedLandTrxIds[_citizenId];\r\n        uint256 arrLength = trxIds.length;\r\n        landTransferedTrx[] memory result = new landTransferedTrx[](arrLength);\r\n        for(uint256 i = 0; i < arrLength; i++){\r\n            result[i] = landTransferedTrxs[trxIds[i]];\r\n        }\r\n        return result;\r\n    }\r\n\r\n}",
  "sourcePath": "D:\\Study\\Fourth year\\BACHELOR THESIS\\code\\src\\blockchain\\contracts\\Decentraland.sol",
  "compiler": {
    "name": "solc",
    "version": "0.8.12+commit.f00d7308.Emscripten.clang"
  },
  "schemaVersion": "3.4.3",
  "updatedAt": "2022-02-26T06:21:07.251Z",
  "networkType": "ethereum",
  "devdoc": {
    "kind": "dev",
    "methods": {},
    "version": 1
  },
  "userdoc": {
    "kind": "user",
    "methods": {},
    "version": 1
  }
}