{
  "contractName": "Decentraland",
  "abi": [
    {
      "inputs": [],
      "stateMutability": "nonpayable",
      "type": "constructor"
    },
    {
      "anonymous": false,
      "inputs": [
        {
          "indexed": false,
          "internalType": "uint256",
          "name": "id",
          "type": "uint256"
        },
        {
          "indexed": false,
          "internalType": "uint256",
          "name": "idNumber",
          "type": "uint256"
        },
        {
          "indexed": false,
          "internalType": "string",
          "name": "fullName",
          "type": "string"
        },
        {
          "indexed": false,
          "internalType": "uint256",
          "name": "dob",
          "type": "uint256"
        },
        {
          "indexed": false,
          "internalType": "address",
          "name": "publishAdmin",
          "type": "address"
        },
        {
          "indexed": false,
          "internalType": "uint256",
          "name": "publishDate",
          "type": "uint256"
        }
      ],
      "name": "CitizenPublished",
      "type": "event"
    },
    {
      "anonymous": false,
      "inputs": [
        {
          "indexed": false,
          "internalType": "uint256",
          "name": "id",
          "type": "uint256"
        },
        {
          "indexed": false,
          "internalType": "uint256",
          "name": "parcelNumber",
          "type": "uint256"
        },
        {
          "indexed": false,
          "internalType": "string",
          "name": "landCode",
          "type": "string"
        },
        {
          "indexed": false,
          "internalType": "address",
          "name": "owner",
          "type": "address"
        },
        {
          "indexed": false,
          "internalType": "string",
          "name": "description",
          "type": "string"
        },
        {
          "indexed": false,
          "internalType": "string",
          "name": "landCoordinatorHash",
          "type": "string"
        },
        {
          "indexed": false,
          "internalType": "address",
          "name": "publishAdmin",
          "type": "address"
        },
        {
          "indexed": false,
          "internalType": "uint256",
          "name": "publishDate",
          "type": "uint256"
        }
      ],
      "name": "LandPublished",
      "type": "event"
    },
    {
      "inputs": [],
      "name": "citizenCount",
      "outputs": [
        {
          "internalType": "uint256",
          "name": "",
          "type": "uint256"
        }
      ],
      "stateMutability": "view",
      "type": "function",
      "constant": true
    },
    {
      "inputs": [
        {
          "internalType": "uint256",
          "name": "",
          "type": "uint256"
        },
        {
          "internalType": "uint256",
          "name": "",
          "type": "uint256"
        }
      ],
      "name": "citizenIdToOwnedTrxIds",
      "outputs": [
        {
          "internalType": "uint256",
          "name": "",
          "type": "uint256"
        }
      ],
      "stateMutability": "view",
      "type": "function",
      "constant": true
    },
    {
      "inputs": [
        {
          "internalType": "uint256",
          "name": "",
          "type": "uint256"
        }
      ],
      "name": "citizens",
      "outputs": [
        {
          "internalType": "uint256",
          "name": "id",
          "type": "uint256"
        },
        {
          "internalType": "uint256",
          "name": "idNumber",
          "type": "uint256"
        },
        {
          "internalType": "string",
          "name": "fullName",
          "type": "string"
        },
        {
          "internalType": "uint256",
          "name": "dob",
          "type": "uint256"
        },
        {
          "internalType": "address",
          "name": "publishAdmin",
          "type": "address"
        },
        {
          "internalType": "uint256",
          "name": "publishDate",
          "type": "uint256"
        }
      ],
      "stateMutability": "view",
      "type": "function",
      "constant": true
    },
    {
      "inputs": [],
      "name": "landCount",
      "outputs": [
        {
          "internalType": "uint256",
          "name": "",
          "type": "uint256"
        }
      ],
      "stateMutability": "view",
      "type": "function",
      "constant": true
    },
    {
      "inputs": [
        {
          "internalType": "uint256",
          "name": "",
          "type": "uint256"
        },
        {
          "internalType": "uint256",
          "name": "",
          "type": "uint256"
        }
      ],
      "name": "landIdToTrxIds",
      "outputs": [
        {
          "internalType": "uint256",
          "name": "",
          "type": "uint256"
        }
      ],
      "stateMutability": "view",
      "type": "function",
      "constant": true
    },
    {
      "inputs": [
        {
          "internalType": "uint256",
          "name": "",
          "type": "uint256"
        }
      ],
      "name": "lands",
      "outputs": [
        {
          "internalType": "uint256",
          "name": "id",
          "type": "uint256"
        },
        {
          "internalType": "uint256",
          "name": "parcelNumber",
          "type": "uint256"
        },
        {
          "internalType": "string",
          "name": "landCode",
          "type": "string"
        },
        {
          "internalType": "address",
          "name": "owner",
          "type": "address"
        },
        {
          "internalType": "string",
          "name": "description",
          "type": "string"
        },
        {
          "internalType": "string",
          "name": "landCoordinatorHash",
          "type": "string"
        },
        {
          "internalType": "address",
          "name": "publishAdmin",
          "type": "address"
        },
        {
          "internalType": "uint256",
          "name": "publishDate",
          "type": "uint256"
        }
      ],
      "stateMutability": "view",
      "type": "function",
      "constant": true
    },
    {
      "inputs": [],
      "name": "name",
      "outputs": [
        {
          "internalType": "string",
          "name": "",
          "type": "string"
        }
      ],
      "stateMutability": "view",
      "type": "function",
      "constant": true
    },
    {
      "inputs": [],
      "name": "owner",
      "outputs": [
        {
          "internalType": "address",
          "name": "",
          "type": "address"
        }
      ],
      "stateMutability": "view",
      "type": "function",
      "constant": true
    },
    {
      "inputs": [],
      "name": "parcelNumberSeed",
      "outputs": [
        {
          "internalType": "uint256",
          "name": "",
          "type": "uint256"
        }
      ],
      "stateMutability": "view",
      "type": "function",
      "constant": true
    },
    {
      "inputs": [],
      "name": "townshipCode",
      "outputs": [
        {
          "internalType": "string",
          "name": "",
          "type": "string"
        }
      ],
      "stateMutability": "view",
      "type": "function",
      "constant": true
    },
    {
      "inputs": [],
      "name": "transactionCount",
      "outputs": [
        {
          "internalType": "uint256",
          "name": "",
          "type": "uint256"
        }
      ],
      "stateMutability": "view",
      "type": "function",
      "constant": true
    },
    {
      "inputs": [
        {
          "internalType": "uint256",
          "name": "",
          "type": "uint256"
        }
      ],
      "name": "transactions",
      "outputs": [
        {
          "internalType": "uint256",
          "name": "id",
          "type": "uint256"
        },
        {
          "internalType": "uint256",
          "name": "ownerId",
          "type": "uint256"
        },
        {
          "internalType": "uint256",
          "name": "ownerIdNumber",
          "type": "uint256"
        },
        {
          "internalType": "string",
          "name": "ownerFullname",
          "type": "string"
        },
        {
          "internalType": "uint256",
          "name": "landId",
          "type": "uint256"
        },
        {
          "internalType": "string",
          "name": "landCode",
          "type": "string"
        },
        {
          "internalType": "address",
          "name": "publishAdmin",
          "type": "address"
        },
        {
          "internalType": "uint256",
          "name": "transferDate",
          "type": "uint256"
        }
      ],
      "stateMutability": "view",
      "type": "function",
      "constant": true
    },
    {
      "inputs": [
        {
          "internalType": "address",
          "name": "_landOwner",
          "type": "address"
        },
        {
          "internalType": "string",
          "name": "_description",
          "type": "string"
        },
        {
          "internalType": "string",
          "name": "_landCoordinatorHash",
          "type": "string"
        }
      ],
      "name": "publishLand",
      "outputs": [],
      "stateMutability": "nonpayable",
      "type": "function"
    },
    {
      "inputs": [
        {
          "internalType": "uint256",
          "name": "_idNumber",
          "type": "uint256"
        },
        {
          "internalType": "string",
          "name": "_fullName",
          "type": "string"
        },
        {
          "internalType": "uint256",
          "name": "_dob",
          "type": "uint256"
        }
      ],
      "name": "publishCitizen",
      "outputs": [],
      "stateMutability": "nonpayable",
      "type": "function"
    },
    {
      "inputs": [
        {
          "internalType": "uint256",
          "name": "_landId",
          "type": "uint256"
        },
        {
          "internalType": "uint256",
          "name": "_citizenId",
          "type": "uint256"
        }
      ],
      "name": "transferLand",
      "outputs": [],
      "stateMutability": "nonpayable",
      "type": "function"
    },
    {
      "inputs": [
        {
          "internalType": "uint256",
          "name": "_landId",
          "type": "uint256"
        }
      ],
      "name": "getLandTransactions",
      "outputs": [
        {
          "components": [
            {
              "internalType": "uint256",
              "name": "id",
              "type": "uint256"
            },
            {
              "internalType": "uint256",
              "name": "ownerId",
              "type": "uint256"
            },
            {
              "internalType": "uint256",
              "name": "ownerIdNumber",
              "type": "uint256"
            },
            {
              "internalType": "string",
              "name": "ownerFullname",
              "type": "string"
            },
            {
              "internalType": "uint256",
              "name": "landId",
              "type": "uint256"
            },
            {
              "internalType": "string",
              "name": "landCode",
              "type": "string"
            },
            {
              "internalType": "address",
              "name": "publishAdmin",
              "type": "address"
            },
            {
              "internalType": "uint256",
              "name": "transferDate",
              "type": "uint256"
            }
          ],
          "internalType": "struct Decentraland.OwnershipTransaction[]",
          "name": "",
          "type": "tuple[]"
        }
      ],
      "stateMutability": "view",
      "type": "function",
      "constant": true
    },
    {
      "inputs": [
        {
          "internalType": "uint256",
          "name": "_citizenId",
          "type": "uint256"
        }
      ],
      "name": "getCitizenTransactions",
      "outputs": [
        {
          "components": [
            {
              "internalType": "uint256",
              "name": "id",
              "type": "uint256"
            },
            {
              "internalType": "uint256",
              "name": "ownerId",
              "type": "uint256"
            },
            {
              "internalType": "uint256",
              "name": "ownerIdNumber",
              "type": "uint256"
            },
            {
              "internalType": "string",
              "name": "ownerFullname",
              "type": "string"
            },
            {
              "internalType": "uint256",
              "name": "landId",
              "type": "uint256"
            },
            {
              "internalType": "string",
              "name": "landCode",
              "type": "string"
            },
            {
              "internalType": "address",
              "name": "publishAdmin",
              "type": "address"
            },
            {
              "internalType": "uint256",
              "name": "transferDate",
              "type": "uint256"
            }
          ],
          "internalType": "struct Decentraland.OwnershipTransaction[]",
          "name": "",
          "type": "tuple[]"
        }
      ],
      "stateMutability": "view",
      "type": "function",
      "constant": true
    }
  ],
  "bytecode": "0x608060405261138860015560006002556000600355600060045534801561002557600080fd5b50336000806101000a81548173ffffffffffffffffffffffffffffffffffffffff021916908373ffffffffffffffffffffffffffffffffffffffff1602179055506129f5806100756000396000f3fe608060405234801561001057600080fd5b506004361061010b5760003560e01c80638da5cb5b116100a2578063c756695011610071578063c7566950146102ee578063c96e298d1461030a578063d7bce65814610328578063e261f1e514610346578063f3341cbd1461037d5761010b565b80638da5cb5b1461024b5780639ace38c214610269578063a17e6016146102a0578063b77bf600146102d05761010b565b80635b4c777d116100de5780635b4c777d146101af5780635e574b31146101cd57806380a29d7c146101fd5780638b88c86c1461022d5761010b565b806306fdde031461011057806309a34f001461012e57806311c4a286146101635780633c032cfd1461017f575b600080fd5b610118610399565b6040516101259190611e96565b60405180910390f35b61014860048036038101906101439190611ef8565b6103d2565b60405161015a96959493929190611f75565b60405180910390f35b61017d6004803603810190610178919061206e565b6104b6565b005b61019960048036038101906101949190612103565b610804565b6040516101a69190612143565b60405180910390f35b6101b7610835565b6040516101c49190612143565b60405180910390f35b6101e760048036038101906101e29190612103565b61083b565b6040516101f49190612143565b60405180910390f35b61021760048036038101906102129190611ef8565b61086c565b604051610224919061233f565b60405180910390f35b610235610b5f565b6040516102429190612143565b60405180910390f35b610253610b65565b6040516102609190612361565b60405180910390f35b610283600480360381019061027e9190611ef8565b610b89565b60405161029798979695949392919061237c565b60405180910390f35b6102ba60048036038101906102b59190611ef8565b610d01565b6040516102c7919061233f565b60405180910390f35b6102d8610ff4565b6040516102e59190612143565b60405180910390f35b61030860048036038101906103039190612103565b610ffa565b005b610312611378565b60405161031f9190611e96565b60405180910390f35b6103306113b1565b60405161033d9190612143565b60405180910390f35b610360600480360381019061035b9190611ef8565b6113b7565b604051610374989796959493929190612408565b60405180910390f35b6103976004803603810190610392919061249b565b6115d7565b005b6040518060400160405280600c81526020017f446563656e7472616c616e64000000000000000000000000000000000000000081525081565b60066020528060005260406000206000915090508060000154908060010154908060020180546104019061253e565b80601f016020809104026020016040519081016040528092919081815260200182805461042d9061253e565b801561047a5780601f1061044f5761010080835404028352916020019161047a565b820191906000526020600020905b81548152906001019060200180831161045d57829003601f168201915b5050505050908060030154908060040160009054906101000a900473ffffffffffffffffffffffffffffffffffffffff16908060050154905086565b600082829050116104c657600080fd5b600084849050116104d657600080fd5b600073ffffffffffffffffffffffffffffffffffffffff163373ffffffffffffffffffffffffffffffffffffffff16141561051057600080fd5b600260008154809291906105239061259f565b9190505550600060025460015461053a91906125e8565b905060006040518060400160405280600381526020017f415344000000000000000000000000000000000000000000000000000000000081525061057d83611791565b60405160200161058e92919061267a565b6040516020818303038152906040529050600042905060405180610100016040528060025481526020018481526020018381526020018973ffffffffffffffffffffffffffffffffffffffff16815260200188888080601f016020809104026020016040519081016040528093929190818152602001838380828437600081840152601f19601f82011690508083019250505050505050815260200186868080601f016020809104026020016040519081016040528093929190818152602001838380828437600081840152601f19601f8201169050808301925050505050505081526020013373ffffffffffffffffffffffffffffffffffffffff16815260200182815250600560006002548152602001908152602001600020600082015181600001556020820151816001015560408201518160020190805190602001906106d9929190611cff565b5060608201518160030160006101000a81548173ffffffffffffffffffffffffffffffffffffffff021916908373ffffffffffffffffffffffffffffffffffffffff160217905550608082015181600401908051906020019061073d929190611cff565b5060a082015181600501908051906020019061075a929190611cff565b5060c08201518160060160006101000a81548173ffffffffffffffffffffffffffffffffffffffff021916908373ffffffffffffffffffffffffffffffffffffffff16021790555060e082015181600701559050507fa1c6cfcab83b5964b0ec1c98c5e9db51acd020cb38a2594d92de221d9e5b63e360025484848b8b8b8b8b338a6040516107f29a999897969594939291906126da565b60405180910390a15050505050505050565b6008602052816000526040600020818154811061082057600080fd5b90600052602060002001600091509150505481565b60035481565b6009602052816000526040600020818154811061085757600080fd5b90600052602060002001600091509150505481565b60606000600960008481526020019081526020016000208054806020026020016040519081016040528092919081815260200182805480156108cd57602002820191906000526020600020905b8154815260200190600101908083116108b9575b5050505050905060008151905060008167ffffffffffffffff8111156108f6576108f5612771565b5b60405190808252806020026020018201604052801561092f57816020015b61091c611d85565b8152602001906001900390816109145790505b50905060005b82811015610b535760076000858381518110610954576109536127a0565b5b60200260200101518152602001908152602001600020604051806101000160405290816000820154815260200160018201548152602001600282015481526020016003820180546109a49061253e565b80601f01602080910402602001604051908101604052809291908181526020018280546109d09061253e565b8015610a1d5780601f106109f257610100808354040283529160200191610a1d565b820191906000526020600020905b815481529060010190602001808311610a0057829003601f168201915b5050505050815260200160048201548152602001600582018054610a409061253e565b80601f0160208091040260200160405190810160405280929190818152602001828054610a6c9061253e565b8015610ab95780601f10610a8e57610100808354040283529160200191610ab9565b820191906000526020600020905b815481529060010190602001808311610a9c57829003601f168201915b505050505081526020016006820160009054906101000a900473ffffffffffffffffffffffffffffffffffffffff1673ffffffffffffffffffffffffffffffffffffffff1673ffffffffffffffffffffffffffffffffffffffff168152602001600782015481525050828281518110610b3557610b346127a0565b5b60200260200101819052508080610b4b9061259f565b915050610935565b50809350505050919050565b60015481565b60008054906101000a900473ffffffffffffffffffffffffffffffffffffffff1681565b6007602052806000526040600020600091509050806000015490806001015490806002015490806003018054610bbe9061253e565b80601f0160208091040260200160405190810160405280929190818152602001828054610bea9061253e565b8015610c375780601f10610c0c57610100808354040283529160200191610c37565b820191906000526020600020905b815481529060010190602001808311610c1a57829003601f168201915b505050505090806004015490806005018054610c529061253e565b80601f0160208091040260200160405190810160405280929190818152602001828054610c7e9061253e565b8015610ccb5780601f10610ca057610100808354040283529160200191610ccb565b820191906000526020600020905b815481529060010190602001808311610cae57829003601f168201915b5050505050908060060160009054906101000a900473ffffffffffffffffffffffffffffffffffffffff16908060070154905088565b6060600060086000848152602001908152602001600020805480602002602001604051908101604052809291908181526020018280548015610d6257602002820191906000526020600020905b815481526020019060010190808311610d4e575b5050505050905060008151905060008167ffffffffffffffff811115610d8b57610d8a612771565b5b604051908082528060200260200182016040528015610dc457816020015b610db1611d85565b815260200190600190039081610da95790505b50905060005b82811015610fe85760076000858381518110610de957610de86127a0565b5b6020026020010151815260200190815260200160002060405180610100016040529081600082015481526020016001820154815260200160028201548152602001600382018054610e399061253e565b80601f0160208091040260200160405190810160405280929190818152602001828054610e659061253e565b8015610eb25780601f10610e8757610100808354040283529160200191610eb2565b820191906000526020600020905b815481529060010190602001808311610e9557829003601f168201915b5050505050815260200160048201548152602001600582018054610ed59061253e565b80601f0160208091040260200160405190810160405280929190818152602001828054610f019061253e565b8015610f4e5780601f10610f2357610100808354040283529160200191610f4e565b820191906000526020600020905b815481529060010190602001808311610f3157829003601f168201915b505050505081526020016006820160009054906101000a900473ffffffffffffffffffffffffffffffffffffffff1673ffffffffffffffffffffffffffffffffffffffff1673ffffffffffffffffffffffffffffffffffffffff168152602001600782015481525050828281518110610fca57610fc96127a0565b5b60200260200101819052508080610fe09061259f565b915050610dca565b50809350505050919050565b60045481565b60006008600084815260200190815260200160002080549050905060008111156110725761102883836118f2565b15611068576040517f08c379a000000000000000000000000000000000000000000000000000000000815260040161105f90612841565b60405180910390fd5b61107183611b7b565b5b600460008154809291906110859061259f565b919050555060006005600085815260200190815260200160002090506000600660008581526020019081526020016000209050604051806101000160405280600454815260200182600001548152602001826001015481526020018260020180546110ef9061253e565b80601f016020809104026020016040519081016040528092919081815260200182805461111b9061253e565b80156111685780601f1061113d57610100808354040283529160200191611168565b820191906000526020600020905b81548152906001019060200180831161114b57829003601f168201915b505050505081526020018360000154815260200183600201805461118b9061253e565b80601f01602080910402602001604051908101604052809291908181526020018280546111b79061253e565b80156112045780601f106111d957610100808354040283529160200191611204565b820191906000526020600020905b8154815290600101906020018083116111e757829003601f168201915b505050505081526020013373ffffffffffffffffffffffffffffffffffffffff16815260200142815250600760006004548152602001908152602001600020600082015181600001556020820151816001015560408201518160020155606082015181600301908051906020019061127d929190611cff565b506080820151816004015560a08201518160050190805190602001906112a4929190611cff565b5060c08201518160060160006101000a81548173ffffffffffffffffffffffffffffffffffffffff021916908373ffffffffffffffffffffffffffffffffffffffff16021790555060e082015181600701559050506008600086815260200190815260200160002060045490806001815401808255809150506001900390600052602060002001600090919091909150556009600085815260200190815260200160002060045490806001815401808255809150506001900390600052602060002001600090919091909150555050505050565b6040518060400160405280600381526020017f415344000000000000000000000000000000000000000000000000000000000081525081565b60025481565b60056020528060005260406000206000915090508060000154908060010154908060020180546113e69061253e565b80601f01602080910402602001604051908101604052809291908181526020018280546114129061253e565b801561145f5780601f106114345761010080835404028352916020019161145f565b820191906000526020600020905b81548152906001019060200180831161144257829003601f168201915b5050505050908060030160009054906101000a900473ffffffffffffffffffffffffffffffffffffffff169080600401805461149a9061253e565b80601f01602080910402602001604051908101604052809291908181526020018280546114c69061253e565b80156115135780601f106114e857610100808354040283529160200191611513565b820191906000526020600020905b8154815290600101906020018083116114f657829003601f168201915b5050505050908060050180546115289061253e565b80601f01602080910402602001604051908101604052809291908181526020018280546115549061253e565b80156115a15780601f10611576576101008083540402835291602001916115a1565b820191906000526020600020905b81548152906001019060200180831161158457829003601f168201915b5050505050908060060160009054906101000a900473ffffffffffffffffffffffffffffffffffffffff16908060070154905088565b600284116115e457600080fd5b600083839050116115f457600080fd5b6000811161160157600080fd5b600360008154809291906116149061259f565b91905055506040518060c00160405280600354815260200185815260200184848080601f016020809104026020016040519081016040528093929190818152602001838380828437600081840152601f19601f8201169050808301925050505050505081526020018281526020013373ffffffffffffffffffffffffffffffffffffffff16815260200142815250600660006003548152602001908152602001600020600082015181600001556020820151816001015560408201518160020190805190602001906116e7929190611cff565b506060820151816003015560808201518160040160006101000a81548173ffffffffffffffffffffffffffffffffffffffff021916908373ffffffffffffffffffffffffffffffffffffffff16021790555060a082015181600501559050507f904b343a0cd2cb29443cc12270e68998a8df0bccc77003a7ff46a0c642e2d5a16003548585858533426040516117839796959493929190612861565b60405180910390a150505050565b606060008214156117d9576040518060400160405280600181526020017f300000000000000000000000000000000000000000000000000000000000000081525090506118ed565b600082905060005b6000821461180b5780806117f49061259f565b915050600a8261180491906128fa565b91506117e1565b60008167ffffffffffffffff81111561182757611826612771565b5b6040519080825280601f01601f1916602001820160405280156118595781602001600182028036833780820191505090505b5090505b600085146118e657600182611872919061292b565b9150600a85611881919061295f565b603061188d91906125e8565b60f81b8183815181106118a3576118a26127a0565b5b60200101907effffffffffffffffffffffffffffffffffffffffffffffffffffffffffffff1916908160001a905350600a856118df91906128fa565b945061185d565b8093505050505b919050565b6000806008600085815260200190815260200160002080549050905060006008600086815260200190815260200160002080548060200260200160405190810160405280929190818152602001828054801561196d57602002820191906000526020600020905b815481526020019060010190808311611959575b5050505050905060006007600083600186611988919061292b565b81518110611999576119986127a0565b5b60200260200101518152602001908152602001600020604051806101000160405290816000820154815260200160018201548152602001600282015481526020016003820180546119e99061253e565b80601f0160208091040260200160405190810160405280929190818152602001828054611a159061253e565b8015611a625780601f10611a3757610100808354040283529160200191611a62565b820191906000526020600020905b815481529060010190602001808311611a4557829003601f168201915b5050505050815260200160048201548152602001600582018054611a859061253e565b80601f0160208091040260200160405190810160405280929190818152602001828054611ab19061253e565b8015611afe5780601f10611ad357610100808354040283529160200191611afe565b820191906000526020600020905b815481529060010190602001808311611ae157829003601f168201915b505050505081526020016006820160009054906101000a900473ffffffffffffffffffffffffffffffffffffffff1673ffffffffffffffffffffffffffffffffffffffff1673ffffffffffffffffffffffffffffffffffffffff168152602001600782015481525050905084816020015114935050505092915050565b600060086000838152602001908152602001600020805490509050600060086000848152602001908152602001600020600183611bb8919061292b565b81548110611bc957611bc86127a0565b5b9060005260206000200154905060006007600083815260200190815260200160002060010154905060006009600083815260200190815260200160002090506000805b60018380549050611c1d919061292b565b811015611ccf57600060076000858481548110611c3d57611c3c6127a0565b5b9060005260206000200154815260200190815260200160002060040154905087811415611c6957600192505b8215611cbb5783600183611c7d91906125e8565b81548110611c8e57611c8d6127a0565b5b9060005260206000200154848381548110611cac57611cab6127a0565b5b90600052602060002001819055505b508080611cc79061259f565b915050611c0c565b5081805480611ce157611ce0612990565b5b60019003818190600052602060002001600090559055505050505050565b828054611d0b9061253e565b90600052602060002090601f016020900481019282611d2d5760008555611d74565b82601f10611d4657805160ff1916838001178555611d74565b82800160010185558215611d74579182015b82811115611d73578251825591602001919060010190611d58565b5b509050611d819190611de0565b5090565b604051806101000160405280600081526020016000815260200160008152602001606081526020016000815260200160608152602001600073ffffffffffffffffffffffffffffffffffffffff168152602001600081525090565b5b80821115611df9576000816000905550600101611de1565b5090565b600081519050919050565b600082825260208201905092915050565b60005b83811015611e37578082015181840152602081019050611e1c565b83811115611e46576000848401525b50505050565b6000601f19601f8301169050919050565b6000611e6882611dfd565b611e728185611e08565b9350611e82818560208601611e19565b611e8b81611e4c565b840191505092915050565b60006020820190508181036000830152611eb08184611e5d565b905092915050565b600080fd5b600080fd5b6000819050919050565b611ed581611ec2565b8114611ee057600080fd5b50565b600081359050611ef281611ecc565b92915050565b600060208284031215611f0e57611f0d611eb8565b5b6000611f1c84828501611ee3565b91505092915050565b611f2e81611ec2565b82525050565b600073ffffffffffffffffffffffffffffffffffffffff82169050919050565b6000611f5f82611f34565b9050919050565b611f6f81611f54565b82525050565b600060c082019050611f8a6000830189611f25565b611f976020830188611f25565b8181036040830152611fa98187611e5d565b9050611fb86060830186611f25565b611fc56080830185611f66565b611fd260a0830184611f25565b979650505050505050565b611fe681611f54565b8114611ff157600080fd5b50565b60008135905061200381611fdd565b92915050565b600080fd5b600080fd5b600080fd5b60008083601f84011261202e5761202d612009565b5b8235905067ffffffffffffffff81111561204b5761204a61200e565b5b60208301915083600182028301111561206757612066612013565b5b9250929050565b60008060008060006060868803121561208a57612089611eb8565b5b600061209888828901611ff4565b955050602086013567ffffffffffffffff8111156120b9576120b8611ebd565b5b6120c588828901612018565b9450945050604086013567ffffffffffffffff8111156120e8576120e7611ebd565b5b6120f488828901612018565b92509250509295509295909350565b6000806040838503121561211a57612119611eb8565b5b600061212885828601611ee3565b925050602061213985828601611ee3565b9150509250929050565b60006020820190506121586000830184611f25565b92915050565b600081519050919050565b600082825260208201905092915050565b6000819050602082019050919050565b61219381611ec2565b82525050565b600082825260208201905092915050565b60006121b582611dfd565b6121bf8185612199565b93506121cf818560208601611e19565b6121d881611e4c565b840191505092915050565b6121ec81611f54565b82525050565b60006101008301600083015161220b600086018261218a565b50602083015161221e602086018261218a565b506040830151612231604086018261218a565b506060830151848203606086015261224982826121aa565b915050608083015161225e608086018261218a565b5060a083015184820360a086015261227682826121aa565b91505060c083015161228b60c08601826121e3565b5060e083015161229e60e086018261218a565b508091505092915050565b60006122b583836121f2565b905092915050565b6000602082019050919050565b60006122d58261215e565b6122df8185612169565b9350836020820285016122f18561217a565b8060005b8581101561232d578484038952815161230e85826122a9565b9450612319836122bd565b925060208a019950506001810190506122f5565b50829750879550505050505092915050565b6000602082019050818103600083015261235981846122ca565b905092915050565b60006020820190506123766000830184611f66565b92915050565b600061010082019050612392600083018b611f25565b61239f602083018a611f25565b6123ac6040830189611f25565b81810360608301526123be8188611e5d565b90506123cd6080830187611f25565b81810360a08301526123df8186611e5d565b90506123ee60c0830185611f66565b6123fb60e0830184611f25565b9998505050505050505050565b60006101008201905061241e600083018b611f25565b61242b602083018a611f25565b818103604083015261243d8189611e5d565b905061244c6060830188611f66565b818103608083015261245e8187611e5d565b905081810360a08301526124728186611e5d565b905061248160c0830185611f66565b61248e60e0830184611f25565b9998505050505050505050565b600080600080606085870312156124b5576124b4611eb8565b5b60006124c387828801611ee3565b945050602085013567ffffffffffffffff8111156124e4576124e3611ebd565b5b6124f087828801612018565b9350935050604061250387828801611ee3565b91505092959194509250565b7f4e487b7100000000000000000000000000000000000000000000000000000000600052602260045260246000fd5b6000600282049050600182168061255657607f821691505b6020821081141561256a5761256961250f565b5b50919050565b7f4e487b7100000000000000000000000000000000000000000000000000000000600052601160045260246000fd5b60006125aa82611ec2565b91507fffffffffffffffffffffffffffffffffffffffffffffffffffffffffffffffff8214156125dd576125dc612570565b5b600182019050919050565b60006125f382611ec2565b91506125fe83611ec2565b9250827fffffffffffffffffffffffffffffffffffffffffffffffffffffffffffffffff0382111561263357612632612570565b5b828201905092915050565b600081905092915050565b600061265482611dfd565b61265e818561263e565b935061266e818560208601611e19565b80840191505092915050565b60006126868285612649565b91506126928284612649565b91508190509392505050565b82818337600083830152505050565b60006126b98385611e08565b93506126c683858461269e565b6126cf83611e4c565b840190509392505050565b6000610100820190506126f0600083018d611f25565b6126fd602083018c611f25565b818103604083015261270f818b611e5d565b905061271e606083018a611f66565b818103608083015261273181888a6126ad565b905081810360a08301526127468186886126ad565b905061275560c0830185611f66565b61276260e0830184611f25565b9b9a5050505050505050505050565b7f4e487b7100000000000000000000000000000000000000000000000000000000600052604160045260246000fd5b7f4e487b7100000000000000000000000000000000000000000000000000000000600052603260045260246000fd5b7f436974697a656e206973207468652063757272656e74206c616e642773206f7760008201527f6e65720000000000000000000000000000000000000000000000000000000000602082015250565b600061282b602383611e08565b9150612836826127cf565b604082019050919050565b6000602082019050818103600083015261285a8161281e565b9050919050565b600060c082019050612876600083018a611f25565b6128836020830189611f25565b81810360408301526128968187896126ad565b90506128a56060830186611f25565b6128b26080830185611f66565b6128bf60a0830184611f25565b98975050505050505050565b7f4e487b7100000000000000000000000000000000000000000000000000000000600052601260045260246000fd5b600061290582611ec2565b915061291083611ec2565b9250826129205761291f6128cb565b5b828204905092915050565b600061293682611ec2565b915061294183611ec2565b92508282101561295457612953612570565b5b828203905092915050565b600061296a82611ec2565b915061297583611ec2565b925082612985576129846128cb565b5b828206905092915050565b7f4e487b7100000000000000000000000000000000000000000000000000000000600052603160045260246000fdfea2646970667358221220e457d6443cef15056abacce1c0422c528c9e7d055b0fefe041fb49a46f05637964736f6c634300080c0033",
  "immutableReferences": {},
  "source": "// SPDX-License-Identifier: MIT\r\npragma solidity ^0.8.0;\r\n\r\nimport \"@openzeppelin/contracts/utils/Strings.sol\";\r\n\r\ncontract Decentraland{\r\n    enum Gender{MALE, FEMALE}\r\n\r\n    //Store land\r\n    struct Land{\r\n        uint256 id;\r\n        uint256 parcelNumber;\r\n        string landCode;\r\n        address owner;\r\n        string description;\r\n        string landCoordinatorHash;\r\n        address publishAdmin;\r\n        uint256 publishDate;\r\n    }\r\n\r\n    struct Citizen{\r\n        uint256 id;\r\n        uint256 idNumber;\r\n        string fullName;\r\n        uint256 dob;\r\n        address publishAdmin;\r\n        uint256 publishDate;\r\n    }\r\n\r\n    struct OwnershipTransaction{\r\n        uint256 id;\r\n        uint256 ownerId;\r\n        uint256 ownerIdNumber;\r\n        string ownerFullname;\r\n        uint256 landId;\r\n        string landCode;\r\n        address publishAdmin;\r\n        uint256 transferDate;\r\n    }\r\n\r\n    event LandPublished(\r\n        uint256 id,\r\n        uint256 parcelNumber,\r\n        string landCode,\r\n        address owner,\r\n        string description,\r\n        string landCoordinatorHash,\r\n        address publishAdmin,\r\n        uint256 publishDate\r\n    );\r\n\r\n    event CitizenPublished(\r\n        uint256 id,\r\n        uint256 idNumber,\r\n        string fullName,\r\n        uint256 dob,\r\n        address publishAdmin,\r\n        uint256 publishDate\r\n    );\r\n\r\n    string public constant name = \"Decentraland\";\r\n    string public constant townshipCode = \"ASD\";\r\n    address public owner;\r\n    uint256 public parcelNumberSeed = 5000;\r\n    uint256 public landCount = 0;\r\n    uint256 public citizenCount = 0;\r\n    uint256 public transactionCount = 0;\r\n    mapping(uint256 => Land) public lands;\r\n    mapping(uint256 => Citizen) public citizens;\r\n    mapping(uint256 => OwnershipTransaction) public transactions;\r\n    mapping(uint256 => uint256[]) public landIdToTrxIds;\r\n    mapping(uint256 => uint256[]) public citizenIdToOwnedTrxIds;\r\n\r\n    constructor(){\r\n        owner = msg.sender;\r\n    }\r\n\r\n    function publishLand(\r\n        address _landOwner,\r\n        string calldata _description,\r\n        string calldata _landCoordinatorHash\r\n    ) external{\r\n        require(bytes(_landCoordinatorHash).length > 0);\r\n        require(bytes(_description).length > 0);\r\n        require(msg.sender != address(0));\r\n        landCount++;\r\n        uint256 parcelNumber = parcelNumberSeed + landCount;\r\n        string memory landCode = string(abi.encodePacked(townshipCode, Strings.toString(parcelNumber)));\r\n        uint256 publishDate = block.timestamp;\r\n\r\n        lands[landCount] = Land(\r\n            landCount,\r\n            parcelNumber,\r\n            landCode,\r\n            _landOwner,\r\n            _description,\r\n            _landCoordinatorHash,\r\n            msg.sender,\r\n            publishDate\r\n        );\r\n\r\n        emit LandPublished(\r\n            landCount,\r\n            parcelNumber,\r\n            landCode,\r\n            _landOwner,\r\n            _description,\r\n            _landCoordinatorHash,\r\n            msg.sender,\r\n            publishDate\r\n        );\r\n    }\r\n\r\n    function publishCitizen (\r\n        uint256 _idNumber, string calldata _fullName, uint256 _dob\r\n    ) external{\r\n        require(_idNumber > 2);\r\n        require(bytes(_fullName).length > 0);\r\n        require(_dob > 0);\r\n        citizenCount++;\r\n        citizens[citizenCount] = Citizen(\r\n            citizenCount,\r\n            _idNumber,\r\n            _fullName,\r\n            _dob,\r\n            msg.sender,\r\n            block.timestamp\r\n        );\r\n\r\n        emit CitizenPublished(\r\n            citizenCount,\r\n            _idNumber,\r\n            _fullName,\r\n            _dob,\r\n            msg.sender,\r\n            block.timestamp\r\n        );\r\n    }\r\n\r\n    function isCurrentCitizenLandOwner(uint256 _landId, uint256 _citizenId) view private returns(bool){\r\n        uint256 landTrxsLength = landIdToTrxIds[_landId].length;\r\n        uint256[] memory landTrxIds = landIdToTrxIds[_landId];\r\n        OwnershipTransaction memory lastLandTrx = transactions[landTrxIds[landTrxsLength - 1]];\r\n        return lastLandTrx.ownerId == _citizenId;\r\n    }\r\n\r\n    function revokeCurrentLandOwner(uint256 _landId) private{\r\n        uint256 landTrxsLength = landIdToTrxIds[_landId].length;\r\n        uint256 trxOwnerId = landIdToTrxIds[_landId][landTrxsLength - 1];\r\n        uint256 currentOwnerId = transactions[trxOwnerId].ownerId;\r\n\r\n        uint256[] storage ownerTrxIds = citizenIdToOwnedTrxIds[currentOwnerId];\r\n        bool isAfterIndex = false;\r\n        for(uint256 i = 0; i < ownerTrxIds.length - 1; i++){\r\n            uint256 currentLandId = transactions[ownerTrxIds[i]].landId;\r\n            if(currentLandId == _landId){\r\n                isAfterIndex = true;\r\n            }\r\n            if(isAfterIndex){\r\n                ownerTrxIds[i] = ownerTrxIds[i + 1];\r\n            }\r\n\r\n        }\r\n        ownerTrxIds.pop();\r\n    }\r\n\r\n    function transferLand(uint256 _landId, uint256 _citizenId) external{\r\n\r\n        uint256 landTrxsLength = landIdToTrxIds[_landId].length;\r\n        if(landTrxsLength > 0){\r\n            if(isCurrentCitizenLandOwner(_landId, _citizenId)){\r\n                revert(\"Citizen is the current land's owner\");\r\n            }\r\n            revokeCurrentLandOwner(_landId);\r\n        }\r\n\r\n        transactionCount++;\r\n        Land storage land = lands[_landId];\r\n        Citizen storage citizen = citizens[_citizenId]; \r\n        transactions[transactionCount] = OwnershipTransaction(\r\n            transactionCount,\r\n            citizen.id,\r\n            citizen.idNumber,\r\n            citizen.fullName,\r\n            land.id,\r\n            land.landCode,\r\n            msg.sender,\r\n            block.timestamp\r\n        );\r\n        \r\n        \r\n\r\n\r\n\r\n        landIdToTrxIds[_landId].push(transactionCount);\r\n        citizenIdToOwnedTrxIds[_citizenId].push(transactionCount);\r\n    }\r\n\r\n    function getLandTransactions(uint256 _landId) external view returns(OwnershipTransaction[] memory){\r\n        uint256[] memory trxIds = landIdToTrxIds[_landId];\r\n        uint256 arrLength = trxIds.length;\r\n        OwnershipTransaction[] memory result = new OwnershipTransaction[](arrLength);\r\n        for(uint256 i = 0; i < arrLength; i++){\r\n            result[i] = transactions[trxIds[i]];\r\n        }\r\n        return result;\r\n    }\r\n\r\n    function getCitizenTransactions(uint256 _citizenId) external view returns(OwnershipTransaction[] memory){\r\n        uint256[] memory trxIds = citizenIdToOwnedTrxIds[_citizenId];\r\n        uint256 arrLength = trxIds.length;\r\n        OwnershipTransaction[] memory result = new OwnershipTransaction[](arrLength);\r\n        for(uint256 i = 0; i < arrLength; i++){\r\n            result[i] = transactions[trxIds[i]];\r\n        }\r\n        return result;\r\n    }\r\n\r\n}",
  "sourcePath": "D:\\Study\\Fourth year\\BACHELOR THESIS\\code\\src\\blockchain\\contracts\\Decentraland.sol",
  "compiler": {
    "name": "solc",
    "version": "0.8.12+commit.f00d7308.Emscripten.clang"
  },
  "schemaVersion": "3.4.3",
  "updatedAt": "2022-02-23T15:16:50.473Z",
  "networkType": "ethereum",
  "devdoc": {
    "kind": "dev",
    "methods": {},
    "version": 1
  },
  "userdoc": {
    "kind": "user",
    "methods": {},
    "version": 1
  }
}