{
  "contractName": "Decentraland",
  "abi": [
    {
      "inputs": [],
      "stateMutability": "nonpayable",
      "type": "constructor"
    },
    {
      "anonymous": false,
      "inputs": [
        {
          "indexed": false,
          "internalType": "uint256",
          "name": "id",
          "type": "uint256"
        },
        {
          "indexed": false,
          "internalType": "uint256",
          "name": "idNumber",
          "type": "uint256"
        },
        {
          "indexed": false,
          "internalType": "string",
          "name": "fullName",
          "type": "string"
        },
        {
          "indexed": false,
          "internalType": "uint256",
          "name": "dob",
          "type": "uint256"
        },
        {
          "indexed": false,
          "internalType": "address",
          "name": "publishAdmin",
          "type": "address"
        },
        {
          "indexed": false,
          "internalType": "uint256",
          "name": "publishDate",
          "type": "uint256"
        }
      ],
      "name": "CitizenPublished",
      "type": "event"
    },
    {
      "anonymous": false,
      "inputs": [
        {
          "indexed": false,
          "internalType": "uint256",
          "name": "id",
          "type": "uint256"
        },
        {
          "indexed": false,
          "internalType": "uint256",
          "name": "parcelNumber",
          "type": "uint256"
        },
        {
          "indexed": false,
          "internalType": "string",
          "name": "landCode",
          "type": "string"
        },
        {
          "indexed": false,
          "internalType": "address",
          "name": "owner",
          "type": "address"
        },
        {
          "indexed": false,
          "internalType": "string",
          "name": "description",
          "type": "string"
        },
        {
          "indexed": false,
          "internalType": "string",
          "name": "landCoordinatorHash",
          "type": "string"
        },
        {
          "indexed": false,
          "internalType": "address",
          "name": "publishAdmin",
          "type": "address"
        },
        {
          "indexed": false,
          "internalType": "uint256",
          "name": "publishDate",
          "type": "uint256"
        }
      ],
      "name": "LandPublished",
      "type": "event"
    },
    {
      "inputs": [],
      "name": "citizenCount",
      "outputs": [
        {
          "internalType": "uint256",
          "name": "",
          "type": "uint256"
        }
      ],
      "stateMutability": "view",
      "type": "function",
      "constant": true
    },
    {
      "inputs": [
        {
          "internalType": "uint256",
          "name": "",
          "type": "uint256"
        }
      ],
      "name": "citizens",
      "outputs": [
        {
          "internalType": "uint256",
          "name": "id",
          "type": "uint256"
        },
        {
          "internalType": "uint256",
          "name": "idNumber",
          "type": "uint256"
        },
        {
          "internalType": "string",
          "name": "fullName",
          "type": "string"
        },
        {
          "internalType": "uint256",
          "name": "dob",
          "type": "uint256"
        },
        {
          "internalType": "address",
          "name": "publishAdmin",
          "type": "address"
        },
        {
          "internalType": "uint256",
          "name": "publishDate",
          "type": "uint256"
        }
      ],
      "stateMutability": "view",
      "type": "function",
      "constant": true
    },
    {
      "inputs": [],
      "name": "landCount",
      "outputs": [
        {
          "internalType": "uint256",
          "name": "",
          "type": "uint256"
        }
      ],
      "stateMutability": "view",
      "type": "function",
      "constant": true
    },
    {
      "inputs": [
        {
          "internalType": "uint256",
          "name": "",
          "type": "uint256"
        },
        {
          "internalType": "uint256",
          "name": "",
          "type": "uint256"
        }
      ],
      "name": "landToTransaction",
      "outputs": [
        {
          "internalType": "uint256",
          "name": "ownerId",
          "type": "uint256"
        },
        {
          "internalType": "uint256",
          "name": "ownerIdNumber",
          "type": "uint256"
        },
        {
          "internalType": "string",
          "name": "ownerFullname",
          "type": "string"
        },
        {
          "internalType": "address",
          "name": "publishAdmin",
          "type": "address"
        },
        {
          "internalType": "uint256",
          "name": "transferDate",
          "type": "uint256"
        }
      ],
      "stateMutability": "view",
      "type": "function",
      "constant": true
    },
    {
      "inputs": [
        {
          "internalType": "uint256",
          "name": "",
          "type": "uint256"
        }
      ],
      "name": "lands",
      "outputs": [
        {
          "internalType": "uint256",
          "name": "id",
          "type": "uint256"
        },
        {
          "internalType": "uint256",
          "name": "parcelNumber",
          "type": "uint256"
        },
        {
          "internalType": "string",
          "name": "landCode",
          "type": "string"
        },
        {
          "internalType": "address",
          "name": "owner",
          "type": "address"
        },
        {
          "internalType": "string",
          "name": "description",
          "type": "string"
        },
        {
          "internalType": "string",
          "name": "landCoordinatorHash",
          "type": "string"
        },
        {
          "internalType": "address",
          "name": "publishAdmin",
          "type": "address"
        },
        {
          "internalType": "uint256",
          "name": "publishDate",
          "type": "uint256"
        }
      ],
      "stateMutability": "view",
      "type": "function",
      "constant": true
    },
    {
      "inputs": [],
      "name": "name",
      "outputs": [
        {
          "internalType": "string",
          "name": "",
          "type": "string"
        }
      ],
      "stateMutability": "view",
      "type": "function",
      "constant": true
    },
    {
      "inputs": [],
      "name": "owner",
      "outputs": [
        {
          "internalType": "address",
          "name": "",
          "type": "address"
        }
      ],
      "stateMutability": "view",
      "type": "function",
      "constant": true
    },
    {
      "inputs": [
        {
          "internalType": "uint256",
          "name": "",
          "type": "uint256"
        },
        {
          "internalType": "uint256",
          "name": "",
          "type": "uint256"
        }
      ],
      "name": "ownerToLands",
      "outputs": [
        {
          "internalType": "uint256",
          "name": "id",
          "type": "uint256"
        },
        {
          "internalType": "uint256",
          "name": "parcelNumber",
          "type": "uint256"
        },
        {
          "internalType": "string",
          "name": "landCode",
          "type": "string"
        },
        {
          "internalType": "address",
          "name": "owner",
          "type": "address"
        },
        {
          "internalType": "string",
          "name": "description",
          "type": "string"
        },
        {
          "internalType": "string",
          "name": "landCoordinatorHash",
          "type": "string"
        },
        {
          "internalType": "address",
          "name": "publishAdmin",
          "type": "address"
        },
        {
          "internalType": "uint256",
          "name": "publishDate",
          "type": "uint256"
        }
      ],
      "stateMutability": "view",
      "type": "function",
      "constant": true
    },
    {
      "inputs": [],
      "name": "parcelNumberSeed",
      "outputs": [
        {
          "internalType": "uint256",
          "name": "",
          "type": "uint256"
        }
      ],
      "stateMutability": "view",
      "type": "function",
      "constant": true
    },
    {
      "inputs": [],
      "name": "townshipCode",
      "outputs": [
        {
          "internalType": "string",
          "name": "",
          "type": "string"
        }
      ],
      "stateMutability": "view",
      "type": "function",
      "constant": true
    },
    {
      "inputs": [
        {
          "internalType": "address",
          "name": "_landOwner",
          "type": "address"
        },
        {
          "internalType": "string",
          "name": "_description",
          "type": "string"
        },
        {
          "internalType": "string",
          "name": "_landCoordinatorHash",
          "type": "string"
        }
      ],
      "name": "publishLand",
      "outputs": [],
      "stateMutability": "nonpayable",
      "type": "function"
    },
    {
      "inputs": [
        {
          "internalType": "uint256",
          "name": "_idNumber",
          "type": "uint256"
        },
        {
          "internalType": "string",
          "name": "_fullName",
          "type": "string"
        },
        {
          "internalType": "uint256",
          "name": "_dob",
          "type": "uint256"
        }
      ],
      "name": "publishCitizen",
      "outputs": [],
      "stateMutability": "nonpayable",
      "type": "function"
    },
    {
      "inputs": [
        {
          "internalType": "uint256",
          "name": "_landId",
          "type": "uint256"
        },
        {
          "internalType": "uint256",
          "name": "_citizenId",
          "type": "uint256"
        }
      ],
      "name": "transferLand",
      "outputs": [],
      "stateMutability": "nonpayable",
      "type": "function"
    },
    {
      "inputs": [
        {
          "internalType": "uint256",
          "name": "_landId",
          "type": "uint256"
        }
      ],
      "name": "getLandTransaction",
      "outputs": [
        {
          "components": [
            {
              "internalType": "uint256",
              "name": "ownerId",
              "type": "uint256"
            },
            {
              "internalType": "uint256",
              "name": "ownerIdNumber",
              "type": "uint256"
            },
            {
              "internalType": "string",
              "name": "ownerFullname",
              "type": "string"
            },
            {
              "internalType": "address",
              "name": "publishAdmin",
              "type": "address"
            },
            {
              "internalType": "uint256",
              "name": "transferDate",
              "type": "uint256"
            }
          ],
          "internalType": "struct Decentraland.LandOwnershipTransaction[]",
          "name": "",
          "type": "tuple[]"
        }
      ],
      "stateMutability": "view",
      "type": "function",
      "constant": true
    }
  ],
  "bytecode": "0x60806040526113886001556000600255600060035534801561002057600080fd5b50336000806101000a81548173ffffffffffffffffffffffffffffffffffffffff021916908373ffffffffffffffffffffffffffffffffffffffff16021790555061210d806100706000396000f3fe608060405234801561001057600080fd5b50600436106100ea5760003560e01c80638b88c86c1161008c578063c96e298d11610066578063c96e298d1461026f578063d7bce6581461028d578063e261f1e5146102ab578063f3341cbd146102e2576100ea565b80638b88c86c146102175780638da5cb5b14610235578063c756695014610253576100ea565b806346f5b429116100c857806346f5b4291461015e5780635b4c777d146101925780637aea559e146101b057806381e6f27c146101e0576100ea565b806306fdde03146100ef57806309a34f001461010d57806311c4a28614610142575b600080fd5b6100f76102fe565b60405161010491906116e2565b60405180910390f35b61012760048036038101906101229190611744565b610337565b604051610139969594939291906117c1565b60405180910390f35b61015c600480360381019061015791906118ba565b61041b565b005b6101786004803603810190610173919061194f565b610769565b60405161018995949392919061198f565b60405180910390f35b61019a610864565b6040516101a791906119e9565b60405180910390f35b6101ca60048036038101906101c59190611744565b61086a565b6040516101d79190611ba4565b60405180910390f35b6101fa60048036038101906101f5919061194f565b6109e2565b60405161020e989796959493929190611bc6565b60405180910390f35b61021f610c1f565b60405161022c91906119e9565b60405180910390f35b61023d610c25565b60405161024a9190611c59565b60405180910390f35b61026d6004803603810190610268919061194f565b610c49565b005b610277610f9f565b60405161028491906116e2565b60405180910390f35b610295610fd8565b6040516102a291906119e9565b60405180910390f35b6102c560048036038101906102c09190611744565b610fde565b6040516102d9989796959493929190611bc6565b60405180910390f35b6102fc60048036038101906102f79190611c74565b6111fe565b005b6040518060400160405280600c81526020017f446563656e7472616c616e64000000000000000000000000000000000000000081525081565b600560205280600052604060002060009150905080600001549080600101549080600201805461036690611d17565b80601f016020809104026020016040519081016040528092919081815260200182805461039290611d17565b80156103df5780601f106103b4576101008083540402835291602001916103df565b820191906000526020600020905b8154815290600101906020018083116103c257829003601f168201915b5050505050908060030154908060040160009054906101000a900473ffffffffffffffffffffffffffffffffffffffff16908060050154905086565b6000828290501161042b57600080fd5b6000848490501161043b57600080fd5b600073ffffffffffffffffffffffffffffffffffffffff163373ffffffffffffffffffffffffffffffffffffffff16141561047557600080fd5b6002600081548092919061048890611d78565b9190505550600060025460015461049f9190611dc1565b905060006040518060400160405280600381526020017f41534400000000000000000000000000000000000000000000000000000000008152506104e2836113b8565b6040516020016104f3929190611e53565b6040516020818303038152906040529050600042905060405180610100016040528060025481526020018481526020018381526020018973ffffffffffffffffffffffffffffffffffffffff16815260200188888080601f016020809104026020016040519081016040528093929190818152602001838380828437600081840152601f19601f82011690508083019250505050505050815260200186868080601f016020809104026020016040519081016040528093929190818152602001838380828437600081840152601f19601f8201169050808301925050505050505081526020013373ffffffffffffffffffffffffffffffffffffffff168152602001828152506004600060025481526020019081526020016000206000820151816000015560208201518160010155604082015181600201908051906020019061063e929190611519565b5060608201518160030160006101000a81548173ffffffffffffffffffffffffffffffffffffffff021916908373ffffffffffffffffffffffffffffffffffffffff16021790555060808201518160040190805190602001906106a2929190611519565b5060a08201518160050190805190602001906106bf929190611519565b5060c08201518160060160006101000a81548173ffffffffffffffffffffffffffffffffffffffff021916908373ffffffffffffffffffffffffffffffffffffffff16021790555060e082015181600701559050507fa1c6cfcab83b5964b0ec1c98c5e9db51acd020cb38a2594d92de221d9e5b63e360025484848b8b8b8b8b338a6040516107579a99989796959493929190611eb3565b60405180910390a15050505050505050565b6006602052816000526040600020818154811061078557600080fd5b9060005260206000209060050201600091509150508060000154908060010154908060020180546107b590611d17565b80601f01602080910402602001604051908101604052809291908181526020018280546107e190611d17565b801561082e5780601f106108035761010080835404028352916020019161082e565b820191906000526020600020905b81548152906001019060200180831161081157829003601f168201915b5050505050908060030160009054906101000a900473ffffffffffffffffffffffffffffffffffffffff16908060040154905085565b60035481565b606060066000838152602001908152602001600020805480602002602001604051908101604052809291908181526020016000905b828210156109d757838290600052602060002090600502016040518060a001604052908160008201548152602001600182015481526020016002820180546108e690611d17565b80601f016020809104026020016040519081016040528092919081815260200182805461091290611d17565b801561095f5780601f106109345761010080835404028352916020019161095f565b820191906000526020600020905b81548152906001019060200180831161094257829003601f168201915b505050505081526020016003820160009054906101000a900473ffffffffffffffffffffffffffffffffffffffff1673ffffffffffffffffffffffffffffffffffffffff1673ffffffffffffffffffffffffffffffffffffffff1681526020016004820154815250508152602001906001019061089f565b505050509050919050565b600760205281600052604060002081815481106109fe57600080fd5b906000526020600020906008020160009150915050806000015490806001015490806002018054610a2e90611d17565b80601f0160208091040260200160405190810160405280929190818152602001828054610a5a90611d17565b8015610aa75780601f10610a7c57610100808354040283529160200191610aa7565b820191906000526020600020905b815481529060010190602001808311610a8a57829003601f168201915b5050505050908060030160009054906101000a900473ffffffffffffffffffffffffffffffffffffffff1690806004018054610ae290611d17565b80601f0160208091040260200160405190810160405280929190818152602001828054610b0e90611d17565b8015610b5b5780601f10610b3057610100808354040283529160200191610b5b565b820191906000526020600020905b815481529060010190602001808311610b3e57829003601f168201915b505050505090806005018054610b7090611d17565b80601f0160208091040260200160405190810160405280929190818152602001828054610b9c90611d17565b8015610be95780601f10610bbe57610100808354040283529160200191610be9565b820191906000526020600020905b815481529060010190602001808311610bcc57829003601f168201915b5050505050908060060160009054906101000a900473ffffffffffffffffffffffffffffffffffffffff16908060070154905088565b60015481565b60008054906101000a900473ffffffffffffffffffffffffffffffffffffffff1681565b6000600460008481526020019081526020016000209050600060056000848152602001908152602001600020905060006040518060a001604052808360000154815260200183600101548152602001836002018054610ca790611d17565b80601f0160208091040260200160405190810160405280929190818152602001828054610cd390611d17565b8015610d205780601f10610cf557610100808354040283529160200191610d20565b820191906000526020600020905b815481529060010190602001808311610d0357829003601f168201915b505050505081526020013373ffffffffffffffffffffffffffffffffffffffff1681526020014281525090506006600086815260200190815260200160002081908060018154018082558091505060019003906000526020600020906005020160009091909190915060008201518160000155602082015181600101556040820151816002019080519060200190610db9929190611519565b5060608201518160030160006101000a81548173ffffffffffffffffffffffffffffffffffffffff021916908373ffffffffffffffffffffffffffffffffffffffff1602179055506080820151816004015550506007600085815260200190815260200160002083908060018154018082558091505060019003906000526020600020906008020160009091909190915060008201548160000155600182015481600101556002820181600201908054610e7290611d17565b610e7d92919061159f565b506003820160009054906101000a900473ffffffffffffffffffffffffffffffffffffffff168160030160006101000a81548173ffffffffffffffffffffffffffffffffffffffff021916908373ffffffffffffffffffffffffffffffffffffffff1602179055506004820181600401908054610ef990611d17565b610f0492919061159f565b506005820181600501908054610f1990611d17565b610f2492919061159f565b506006820160009054906101000a900473ffffffffffffffffffffffffffffffffffffffff168160060160006101000a81548173ffffffffffffffffffffffffffffffffffffffff021916908373ffffffffffffffffffffffffffffffffffffffff1602179055506007820154816007015550505050505050565b6040518060400160405280600381526020017f415344000000000000000000000000000000000000000000000000000000000081525081565b60025481565b600460205280600052604060002060009150905080600001549080600101549080600201805461100d90611d17565b80601f016020809104026020016040519081016040528092919081815260200182805461103990611d17565b80156110865780601f1061105b57610100808354040283529160200191611086565b820191906000526020600020905b81548152906001019060200180831161106957829003601f168201915b5050505050908060030160009054906101000a900473ffffffffffffffffffffffffffffffffffffffff16908060040180546110c190611d17565b80601f01602080910402602001604051908101604052809291908181526020018280546110ed90611d17565b801561113a5780601f1061110f5761010080835404028352916020019161113a565b820191906000526020600020905b81548152906001019060200180831161111d57829003601f168201915b50505050509080600501805461114f90611d17565b80601f016020809104026020016040519081016040528092919081815260200182805461117b90611d17565b80156111c85780601f1061119d576101008083540402835291602001916111c8565b820191906000526020600020905b8154815290600101906020018083116111ab57829003601f168201915b5050505050908060060160009054906101000a900473ffffffffffffffffffffffffffffffffffffffff16908060070154905088565b6002841161120b57600080fd5b6000838390501161121b57600080fd5b6000811161122857600080fd5b6003600081548092919061123b90611d78565b91905055506040518060c00160405280600354815260200185815260200184848080601f016020809104026020016040519081016040528093929190818152602001838380828437600081840152601f19601f8201169050808301925050505050505081526020018281526020013373ffffffffffffffffffffffffffffffffffffffff168152602001428152506005600060035481526020019081526020016000206000820151816000015560208201518160010155604082015181600201908051906020019061130e929190611519565b506060820151816003015560808201518160040160006101000a81548173ffffffffffffffffffffffffffffffffffffffff021916908373ffffffffffffffffffffffffffffffffffffffff16021790555060a082015181600501559050507f904b343a0cd2cb29443cc12270e68998a8df0bccc77003a7ff46a0c642e2d5a16003548585858533426040516113aa9796959493929190611f4a565b60405180910390a150505050565b60606000821415611400576040518060400160405280600181526020017f30000000000000000000000000000000000000000000000000000000000000008152509050611514565b600082905060005b6000821461143257808061141b90611d78565b915050600a8261142b9190611fe3565b9150611408565b60008167ffffffffffffffff81111561144e5761144d612014565b5b6040519080825280601f01601f1916602001820160405280156114805781602001600182028036833780820191505090505b5090505b6000851461150d576001826114999190612043565b9150600a856114a89190612077565b60306114b49190611dc1565b60f81b8183815181106114ca576114c96120a8565b5b60200101907effffffffffffffffffffffffffffffffffffffffffffffffffffffffffffff1916908160001a905350600a856115069190611fe3565b9450611484565b8093505050505b919050565b82805461152590611d17565b90600052602060002090601f016020900481019282611547576000855561158e565b82601f1061156057805160ff191683800117855561158e565b8280016001018555821561158e579182015b8281111561158d578251825591602001919060010190611572565b5b50905061159b919061162c565b5090565b8280546115ab90611d17565b90600052602060002090601f0160209004810192826115cd576000855561161b565b82601f106115de578054855561161b565b8280016001018555821561161b57600052602060002091601f016020900482015b8281111561161a5782548255916001019190600101906115ff565b5b509050611628919061162c565b5090565b5b8082111561164557600081600090555060010161162d565b5090565b600081519050919050565b600082825260208201905092915050565b60005b83811015611683578082015181840152602081019050611668565b83811115611692576000848401525b50505050565b6000601f19601f8301169050919050565b60006116b482611649565b6116be8185611654565b93506116ce818560208601611665565b6116d781611698565b840191505092915050565b600060208201905081810360008301526116fc81846116a9565b905092915050565b600080fd5b600080fd5b6000819050919050565b6117218161170e565b811461172c57600080fd5b50565b60008135905061173e81611718565b92915050565b60006020828403121561175a57611759611704565b5b60006117688482850161172f565b91505092915050565b61177a8161170e565b82525050565b600073ffffffffffffffffffffffffffffffffffffffff82169050919050565b60006117ab82611780565b9050919050565b6117bb816117a0565b82525050565b600060c0820190506117d66000830189611771565b6117e36020830188611771565b81810360408301526117f581876116a9565b90506118046060830186611771565b61181160808301856117b2565b61181e60a0830184611771565b979650505050505050565b611832816117a0565b811461183d57600080fd5b50565b60008135905061184f81611829565b92915050565b600080fd5b600080fd5b600080fd5b60008083601f84011261187a57611879611855565b5b8235905067ffffffffffffffff8111156118975761189661185a565b5b6020830191508360018202830111156118b3576118b261185f565b5b9250929050565b6000806000806000606086880312156118d6576118d5611704565b5b60006118e488828901611840565b955050602086013567ffffffffffffffff81111561190557611904611709565b5b61191188828901611864565b9450945050604086013567ffffffffffffffff81111561193457611933611709565b5b61194088828901611864565b92509250509295509295909350565b6000806040838503121561196657611965611704565b5b60006119748582860161172f565b92505060206119858582860161172f565b9150509250929050565b600060a0820190506119a46000830188611771565b6119b16020830187611771565b81810360408301526119c381866116a9565b90506119d260608301856117b2565b6119df6080830184611771565b9695505050505050565b60006020820190506119fe6000830184611771565b92915050565b600081519050919050565b600082825260208201905092915050565b6000819050602082019050919050565b611a398161170e565b82525050565b600082825260208201905092915050565b6000611a5b82611649565b611a658185611a3f565b9350611a75818560208601611665565b611a7e81611698565b840191505092915050565b611a92816117a0565b82525050565b600060a083016000830151611ab06000860182611a30565b506020830151611ac36020860182611a30565b5060408301518482036040860152611adb8282611a50565b9150506060830151611af06060860182611a89565b506080830151611b036080860182611a30565b508091505092915050565b6000611b1a8383611a98565b905092915050565b6000602082019050919050565b6000611b3a82611a04565b611b448185611a0f565b935083602082028501611b5685611a20565b8060005b85811015611b925784840389528151611b738582611b0e565b9450611b7e83611b22565b925060208a01995050600181019050611b5a565b50829750879550505050505092915050565b60006020820190508181036000830152611bbe8184611b2f565b905092915050565b600061010082019050611bdc600083018b611771565b611be9602083018a611771565b8181036040830152611bfb81896116a9565b9050611c0a60608301886117b2565b8181036080830152611c1c81876116a9565b905081810360a0830152611c3081866116a9565b9050611c3f60c08301856117b2565b611c4c60e0830184611771565b9998505050505050505050565b6000602082019050611c6e60008301846117b2565b92915050565b60008060008060608587031215611c8e57611c8d611704565b5b6000611c9c8782880161172f565b945050602085013567ffffffffffffffff811115611cbd57611cbc611709565b5b611cc987828801611864565b93509350506040611cdc8782880161172f565b91505092959194509250565b7f4e487b7100000000000000000000000000000000000000000000000000000000600052602260045260246000fd5b60006002820490506001821680611d2f57607f821691505b60208210811415611d4357611d42611ce8565b5b50919050565b7f4e487b7100000000000000000000000000000000000000000000000000000000600052601160045260246000fd5b6000611d838261170e565b91507fffffffffffffffffffffffffffffffffffffffffffffffffffffffffffffffff821415611db657611db5611d49565b5b600182019050919050565b6000611dcc8261170e565b9150611dd78361170e565b9250827fffffffffffffffffffffffffffffffffffffffffffffffffffffffffffffffff03821115611e0c57611e0b611d49565b5b828201905092915050565b600081905092915050565b6000611e2d82611649565b611e378185611e17565b9350611e47818560208601611665565b80840191505092915050565b6000611e5f8285611e22565b9150611e6b8284611e22565b91508190509392505050565b82818337600083830152505050565b6000611e928385611654565b9350611e9f838584611e77565b611ea883611698565b840190509392505050565b600061010082019050611ec9600083018d611771565b611ed6602083018c611771565b8181036040830152611ee8818b6116a9565b9050611ef7606083018a6117b2565b8181036080830152611f0a81888a611e86565b905081810360a0830152611f1f818688611e86565b9050611f2e60c08301856117b2565b611f3b60e0830184611771565b9b9a5050505050505050505050565b600060c082019050611f5f600083018a611771565b611f6c6020830189611771565b8181036040830152611f7f818789611e86565b9050611f8e6060830186611771565b611f9b60808301856117b2565b611fa860a0830184611771565b98975050505050505050565b7f4e487b7100000000000000000000000000000000000000000000000000000000600052601260045260246000fd5b6000611fee8261170e565b9150611ff98361170e565b92508261200957612008611fb4565b5b828204905092915050565b7f4e487b7100000000000000000000000000000000000000000000000000000000600052604160045260246000fd5b600061204e8261170e565b91506120598361170e565b92508282101561206c5761206b611d49565b5b828203905092915050565b60006120828261170e565b915061208d8361170e565b92508261209d5761209c611fb4565b5b828206905092915050565b7f4e487b7100000000000000000000000000000000000000000000000000000000600052603260045260246000fdfea2646970667358221220004fcc8a491acb0874c7a689afefcf8c0930420772be0eda53c2a704bff5c82d64736f6c634300080c0033",
  "immutableReferences": {},
  "source": "// SPDX-License-Identifier: MIT\r\npragma solidity ^0.8.0;\r\n\r\nimport \"@openzeppelin/contracts/utils/Strings.sol\";\r\n\r\ncontract Decentraland{\r\n    enum Gender{MALE, FEMALE}\r\n\r\n    //Store land\r\n    struct Land{\r\n        uint256 id;\r\n        uint256 parcelNumber;\r\n        string landCode;\r\n        address owner;\r\n        string description;\r\n        string landCoordinatorHash;\r\n        address publishAdmin;\r\n        uint256 publishDate;\r\n    }\r\n\r\n    struct Citizen{\r\n        uint256 id;\r\n        uint256 idNumber;\r\n        string fullName;\r\n        uint256 dob;\r\n        address publishAdmin;\r\n        uint256 publishDate;\r\n    }\r\n\r\n    struct LandOwnershipTransaction{\r\n        uint256 ownerId;\r\n        uint256 ownerIdNumber;\r\n        string ownerFullname;\r\n        address publishAdmin;\r\n        uint256 transferDate;\r\n    }\r\n\r\n    event LandPublished(\r\n        uint256 id,\r\n        uint256 parcelNumber,\r\n        string landCode,\r\n        address owner,\r\n        string description,\r\n        string landCoordinatorHash,\r\n        address publishAdmin,\r\n        uint256 publishDate\r\n    );\r\n\r\n    event CitizenPublished(\r\n        uint256 id,\r\n        uint256 idNumber,\r\n        string fullName,\r\n        uint256 dob,\r\n        address publishAdmin,\r\n        uint256 publishDate\r\n    );\r\n\r\n    string public constant name = \"Decentraland\";\r\n    string public constant townshipCode = \"ASD\";\r\n    address public owner;\r\n    uint256 public parcelNumberSeed = 5000;\r\n    uint256 public landCount = 0;\r\n    uint256 public citizenCount = 0;\r\n    mapping(uint256 => Land) public lands;\r\n    mapping(uint256 => Citizen) public citizens;\r\n    mapping(uint256 => LandOwnershipTransaction[]) public landToTransaction;\r\n    mapping(uint256 => Land[]) public ownerToLands;\r\n\r\n    constructor(){\r\n        owner = msg.sender;\r\n    }\r\n\r\n    function publishLand(\r\n        address _landOwner,\r\n        string calldata _description,\r\n        string calldata _landCoordinatorHash\r\n    ) external{\r\n        require(bytes(_landCoordinatorHash).length > 0);\r\n        require(bytes(_description).length > 0);\r\n        require(msg.sender != address(0));\r\n        landCount++;\r\n        uint256 parcelNumber = parcelNumberSeed + landCount;\r\n        string memory landCode = string(abi.encodePacked(townshipCode, Strings.toString(parcelNumber)));\r\n        uint256 publishDate = block.timestamp;\r\n\r\n        lands[landCount] = Land(\r\n            landCount,\r\n            parcelNumber,\r\n            landCode,\r\n            _landOwner,\r\n            _description,\r\n            _landCoordinatorHash,\r\n            msg.sender,\r\n            publishDate\r\n        );\r\n\r\n        emit LandPublished(\r\n            landCount,\r\n            parcelNumber,\r\n            landCode,\r\n            _landOwner,\r\n            _description,\r\n            _landCoordinatorHash,\r\n            msg.sender,\r\n            publishDate\r\n        );\r\n    }\r\n\r\n    function publishCitizen (\r\n        uint256 _idNumber, string calldata _fullName, uint256 _dob\r\n    ) external{\r\n        require(_idNumber > 2);\r\n        require(bytes(_fullName).length > 0);\r\n        require(_dob > 0);\r\n        citizenCount++;\r\n        citizens[citizenCount] = Citizen(\r\n            citizenCount,\r\n            _idNumber,\r\n            _fullName,\r\n            _dob,\r\n            msg.sender,\r\n            block.timestamp\r\n        );\r\n\r\n        emit CitizenPublished(\r\n            citizenCount,\r\n             _idNumber,\r\n            _fullName,\r\n            _dob,\r\n            msg.sender,\r\n            block.timestamp\r\n        );\r\n    }\r\n\r\n    function transferLand(uint256 _landId, uint256 _citizenId) external{\r\n        Land storage land = lands[_landId];\r\n        Citizen storage citizen = citizens[_citizenId];\r\n        LandOwnershipTransaction memory transaction = LandOwnershipTransaction(citizen.id, citizen.idNumber, citizen.fullName, msg.sender, block.timestamp);\r\n        landToTransaction[_landId].push(transaction);\r\n        ownerToLands[_citizenId].push(land);\r\n    }\r\n\r\n    function getLandTransaction(uint256 _landId) external view returns(LandOwnershipTransaction[] memory){\r\n        return landToTransaction[_landId];\r\n    }\r\n}",
  "sourcePath": "D:\\Study\\Fourth year\\BACHELOR THESIS\\code\\src\\blockchain\\contracts\\Decentraland.sol",
  "compiler": {
    "name": "solc",
    "version": "0.8.12+commit.f00d7308.Emscripten.clang"
  },
  "schemaVersion": "3.4.3",
  "updatedAt": "2022-02-22T02:32:10.581Z",
  "networkType": "ethereum",
  "devdoc": {
    "kind": "dev",
    "methods": {},
    "version": 1
  },
  "userdoc": {
    "kind": "user",
    "methods": {},
    "version": 1
  }
}