{
  "contractName": "Decentraland",
  "abi": [
    {
      "inputs": [],
      "stateMutability": "nonpayable",
      "type": "constructor"
    },
    {
      "anonymous": false,
      "inputs": [
        {
          "indexed": false,
          "internalType": "uint256",
          "name": "id",
          "type": "uint256"
        },
        {
          "indexed": false,
          "internalType": "string",
          "name": "title",
          "type": "string"
        },
        {
          "indexed": false,
          "internalType": "string",
          "name": "admincode",
          "type": "string"
        },
        {
          "indexed": false,
          "internalType": "address",
          "name": "newAdmin",
          "type": "address"
        },
        {
          "indexed": false,
          "internalType": "address",
          "name": "publishAdmin",
          "type": "address"
        },
        {
          "indexed": false,
          "internalType": "uint256",
          "name": "publishDate",
          "type": "uint256"
        }
      ],
      "name": "AdminPublished",
      "type": "event"
    },
    {
      "anonymous": false,
      "inputs": [
        {
          "indexed": false,
          "internalType": "uint256",
          "name": "id",
          "type": "uint256"
        },
        {
          "indexed": false,
          "internalType": "uint256",
          "name": "idNumber",
          "type": "uint256"
        },
        {
          "indexed": false,
          "internalType": "string",
          "name": "fullName",
          "type": "string"
        },
        {
          "indexed": false,
          "internalType": "enum Decentraland.Gender",
          "name": "gender",
          "type": "uint8"
        },
        {
          "indexed": false,
          "internalType": "uint256",
          "name": "dob",
          "type": "uint256"
        },
        {
          "indexed": false,
          "internalType": "address",
          "name": "publishAdmin",
          "type": "address"
        },
        {
          "indexed": false,
          "internalType": "uint256",
          "name": "publishDate",
          "type": "uint256"
        }
      ],
      "name": "CitizenPublished",
      "type": "event"
    },
    {
      "anonymous": false,
      "inputs": [
        {
          "indexed": false,
          "internalType": "uint256",
          "name": "id",
          "type": "uint256"
        },
        {
          "indexed": false,
          "internalType": "uint256",
          "name": "parcelNumber",
          "type": "uint256"
        },
        {
          "indexed": false,
          "internalType": "string",
          "name": "landCode",
          "type": "string"
        },
        {
          "indexed": false,
          "internalType": "string",
          "name": "description",
          "type": "string"
        },
        {
          "indexed": false,
          "internalType": "string",
          "name": "landCoordinatorHash",
          "type": "string"
        },
        {
          "indexed": false,
          "internalType": "bool",
          "name": "isOccupied",
          "type": "bool"
        },
        {
          "indexed": false,
          "internalType": "address",
          "name": "publishAdmin",
          "type": "address"
        },
        {
          "indexed": false,
          "internalType": "uint256",
          "name": "publishDate",
          "type": "uint256"
        }
      ],
      "name": "LandPublished",
      "type": "event"
    },
    {
      "anonymous": false,
      "inputs": [
        {
          "indexed": false,
          "internalType": "uint256",
          "name": "id",
          "type": "uint256"
        },
        {
          "indexed": false,
          "internalType": "uint256",
          "name": "landId",
          "type": "uint256"
        },
        {
          "indexed": false,
          "internalType": "uint256",
          "name": "ownerId",
          "type": "uint256"
        },
        {
          "indexed": false,
          "internalType": "address",
          "name": "adminAddr",
          "type": "address"
        },
        {
          "indexed": false,
          "internalType": "uint256",
          "name": "trxTime",
          "type": "uint256"
        }
      ],
      "name": "LandTransfer",
      "type": "event"
    },
    {
      "inputs": [],
      "name": "NAME",
      "outputs": [
        {
          "internalType": "string",
          "name": "",
          "type": "string"
        }
      ],
      "stateMutability": "view",
      "type": "function",
      "constant": true
    },
    {
      "inputs": [
        {
          "internalType": "address",
          "name": "",
          "type": "address"
        }
      ],
      "name": "addressToAdminId",
      "outputs": [
        {
          "internalType": "uint256",
          "name": "",
          "type": "uint256"
        }
      ],
      "stateMutability": "view",
      "type": "function",
      "constant": true
    },
    {
      "inputs": [],
      "name": "adminCount",
      "outputs": [
        {
          "internalType": "uint256",
          "name": "",
          "type": "uint256"
        }
      ],
      "stateMutability": "view",
      "type": "function",
      "constant": true
    },
    {
      "inputs": [
        {
          "internalType": "uint256",
          "name": "",
          "type": "uint256"
        }
      ],
      "name": "admins",
      "outputs": [
        {
          "internalType": "uint256",
          "name": "id",
          "type": "uint256"
        },
        {
          "internalType": "string",
          "name": "title",
          "type": "string"
        },
        {
          "internalType": "string",
          "name": "adminCode",
          "type": "string"
        },
        {
          "internalType": "address",
          "name": "adminAddr",
          "type": "address"
        },
        {
          "internalType": "address",
          "name": "publishAdmin",
          "type": "address"
        },
        {
          "internalType": "uint256",
          "name": "publishDate",
          "type": "uint256"
        }
      ],
      "stateMutability": "view",
      "type": "function",
      "constant": true
    },
    {
      "inputs": [],
      "name": "citizenCount",
      "outputs": [
        {
          "internalType": "uint256",
          "name": "",
          "type": "uint256"
        }
      ],
      "stateMutability": "view",
      "type": "function",
      "constant": true
    },
    {
      "inputs": [
        {
          "internalType": "uint256",
          "name": "",
          "type": "uint256"
        }
      ],
      "name": "citizens",
      "outputs": [
        {
          "internalType": "uint256",
          "name": "id",
          "type": "uint256"
        },
        {
          "internalType": "uint256",
          "name": "idNumber",
          "type": "uint256"
        },
        {
          "internalType": "string",
          "name": "fullName",
          "type": "string"
        },
        {
          "internalType": "enum Decentraland.Gender",
          "name": "gender",
          "type": "uint8"
        },
        {
          "internalType": "uint256",
          "name": "dob",
          "type": "uint256"
        },
        {
          "internalType": "address",
          "name": "publishAdmin",
          "type": "address"
        },
        {
          "internalType": "uint256",
          "name": "publishDate",
          "type": "uint256"
        }
      ],
      "stateMutability": "view",
      "type": "function",
      "constant": true
    },
    {
      "inputs": [
        {
          "internalType": "uint256",
          "name": "",
          "type": "uint256"
        }
      ],
      "name": "idNumbersToCitizenId",
      "outputs": [
        {
          "internalType": "uint256",
          "name": "",
          "type": "uint256"
        }
      ],
      "stateMutability": "view",
      "type": "function",
      "constant": true
    },
    {
      "inputs": [],
      "name": "landCount",
      "outputs": [
        {
          "internalType": "uint256",
          "name": "",
          "type": "uint256"
        }
      ],
      "stateMutability": "view",
      "type": "function",
      "constant": true
    },
    {
      "inputs": [
        {
          "internalType": "uint256",
          "name": "",
          "type": "uint256"
        }
      ],
      "name": "landTransferedTrxs",
      "outputs": [
        {
          "internalType": "uint256",
          "name": "id",
          "type": "uint256"
        },
        {
          "internalType": "uint256",
          "name": "ownerId",
          "type": "uint256"
        },
        {
          "internalType": "uint256",
          "name": "ownerIdNumber",
          "type": "uint256"
        },
        {
          "internalType": "string",
          "name": "ownerFullname",
          "type": "string"
        },
        {
          "internalType": "uint256",
          "name": "landId",
          "type": "uint256"
        },
        {
          "internalType": "string",
          "name": "landCode",
          "type": "string"
        },
        {
          "internalType": "address",
          "name": "admin",
          "type": "address"
        },
        {
          "internalType": "uint256",
          "name": "transferDate",
          "type": "uint256"
        }
      ],
      "stateMutability": "view",
      "type": "function",
      "constant": true
    },
    {
      "inputs": [
        {
          "internalType": "uint256",
          "name": "",
          "type": "uint256"
        }
      ],
      "name": "lands",
      "outputs": [
        {
          "internalType": "uint256",
          "name": "id",
          "type": "uint256"
        },
        {
          "internalType": "uint256",
          "name": "parcelNumber",
          "type": "uint256"
        },
        {
          "internalType": "string",
          "name": "landCode",
          "type": "string"
        },
        {
          "internalType": "string",
          "name": "description",
          "type": "string"
        },
        {
          "internalType": "string",
          "name": "landCoordinatorHash",
          "type": "string"
        },
        {
          "internalType": "bool",
          "name": "isOccupied",
          "type": "bool"
        },
        {
          "internalType": "address",
          "name": "publishAdmin",
          "type": "address"
        },
        {
          "internalType": "uint256",
          "name": "publishDate",
          "type": "uint256"
        }
      ],
      "stateMutability": "view",
      "type": "function",
      "constant": true
    },
    {
      "inputs": [],
      "name": "owner",
      "outputs": [
        {
          "internalType": "address",
          "name": "",
          "type": "address"
        }
      ],
      "stateMutability": "view",
      "type": "function",
      "constant": true
    },
    {
      "inputs": [
        {
          "internalType": "uint256",
          "name": "_idNumber",
          "type": "uint256"
        }
      ],
      "name": "getCitizenByIdNumber",
      "outputs": [
        {
          "components": [
            {
              "internalType": "uint256",
              "name": "id",
              "type": "uint256"
            },
            {
              "internalType": "uint256",
              "name": "idNumber",
              "type": "uint256"
            },
            {
              "internalType": "string",
              "name": "fullName",
              "type": "string"
            },
            {
              "internalType": "enum Decentraland.Gender",
              "name": "gender",
              "type": "uint8"
            },
            {
              "internalType": "uint256",
              "name": "dob",
              "type": "uint256"
            },
            {
              "internalType": "address",
              "name": "publishAdmin",
              "type": "address"
            },
            {
              "internalType": "uint256",
              "name": "publishDate",
              "type": "uint256"
            }
          ],
          "internalType": "struct Decentraland.Citizen",
          "name": "",
          "type": "tuple"
        }
      ],
      "stateMutability": "view",
      "type": "function",
      "constant": true
    },
    {
      "inputs": [
        {
          "internalType": "uint256",
          "name": "_landId",
          "type": "uint256"
        }
      ],
      "name": "getLandTrxs",
      "outputs": [
        {
          "components": [
            {
              "internalType": "uint256",
              "name": "id",
              "type": "uint256"
            },
            {
              "internalType": "uint256",
              "name": "ownerId",
              "type": "uint256"
            },
            {
              "internalType": "uint256",
              "name": "ownerIdNumber",
              "type": "uint256"
            },
            {
              "internalType": "string",
              "name": "ownerFullname",
              "type": "string"
            },
            {
              "internalType": "uint256",
              "name": "landId",
              "type": "uint256"
            },
            {
              "internalType": "string",
              "name": "landCode",
              "type": "string"
            },
            {
              "internalType": "address",
              "name": "admin",
              "type": "address"
            },
            {
              "internalType": "uint256",
              "name": "transferDate",
              "type": "uint256"
            }
          ],
          "internalType": "struct Decentraland.landTransferedTrx[]",
          "name": "",
          "type": "tuple[]"
        }
      ],
      "stateMutability": "view",
      "type": "function",
      "constant": true
    },
    {
      "inputs": [
        {
          "internalType": "uint256",
          "name": "_citizenId",
          "type": "uint256"
        }
      ],
      "name": "getCitizenOwnedTrxs",
      "outputs": [
        {
          "components": [
            {
              "internalType": "uint256",
              "name": "id",
              "type": "uint256"
            },
            {
              "internalType": "uint256",
              "name": "ownerId",
              "type": "uint256"
            },
            {
              "internalType": "uint256",
              "name": "ownerIdNumber",
              "type": "uint256"
            },
            {
              "internalType": "string",
              "name": "ownerFullname",
              "type": "string"
            },
            {
              "internalType": "uint256",
              "name": "landId",
              "type": "uint256"
            },
            {
              "internalType": "string",
              "name": "landCode",
              "type": "string"
            },
            {
              "internalType": "address",
              "name": "admin",
              "type": "address"
            },
            {
              "internalType": "uint256",
              "name": "transferDate",
              "type": "uint256"
            }
          ],
          "internalType": "struct Decentraland.landTransferedTrx[]",
          "name": "",
          "type": "tuple[]"
        }
      ],
      "stateMutability": "view",
      "type": "function",
      "constant": true
    },
    {
      "inputs": [
        {
          "internalType": "string",
          "name": "_description",
          "type": "string"
        },
        {
          "internalType": "string",
          "name": "_landCoordinatorHash",
          "type": "string"
        }
      ],
      "name": "publishLand",
      "outputs": [],
      "stateMutability": "nonpayable",
      "type": "function"
    },
    {
      "inputs": [
        {
          "internalType": "uint256",
          "name": "_idNumber",
          "type": "uint256"
        },
        {
          "internalType": "string",
          "name": "_fullName",
          "type": "string"
        },
        {
          "internalType": "enum Decentraland.Gender",
          "name": "_gender",
          "type": "uint8"
        },
        {
          "internalType": "uint256",
          "name": "_dob",
          "type": "uint256"
        }
      ],
      "name": "publishCitizen",
      "outputs": [],
      "stateMutability": "nonpayable",
      "type": "function"
    },
    {
      "inputs": [
        {
          "internalType": "uint256",
          "name": "_landId",
          "type": "uint256"
        },
        {
          "internalType": "uint256",
          "name": "_citizenIdNumber",
          "type": "uint256"
        }
      ],
      "name": "transferLand",
      "outputs": [],
      "stateMutability": "nonpayable",
      "type": "function"
    },
    {
      "inputs": [
        {
          "internalType": "string",
          "name": "_title",
          "type": "string"
        },
        {
          "internalType": "address",
          "name": "_newAdmin",
          "type": "address"
        }
      ],
      "name": "publishAdmin",
      "outputs": [],
      "stateMutability": "nonpayable",
      "type": "function"
    },
    {
      "inputs": [
        {
          "internalType": "address",
          "name": "_address",
          "type": "address"
        }
      ],
      "name": "getAdminByAddress",
      "outputs": [
        {
          "components": [
            {
              "internalType": "uint256",
              "name": "id",
              "type": "uint256"
            },
            {
              "internalType": "string",
              "name": "title",
              "type": "string"
            },
            {
              "internalType": "string",
              "name": "adminCode",
              "type": "string"
            },
            {
              "internalType": "address",
              "name": "adminAddr",
              "type": "address"
            },
            {
              "internalType": "address",
              "name": "publishAdmin",
              "type": "address"
            },
            {
              "internalType": "uint256",
              "name": "publishDate",
              "type": "uint256"
            }
          ],
          "internalType": "struct Decentraland.Admin",
          "name": "",
          "type": "tuple"
        }
      ],
      "stateMutability": "view",
      "type": "function",
      "constant": true
    },
    {
      "inputs": [
        {
          "internalType": "address",
          "name": "_address",
          "type": "address"
        }
      ],
      "name": "checkIsContractOwner",
      "outputs": [
        {
          "internalType": "bool",
          "name": "",
          "type": "bool"
        }
      ],
      "stateMutability": "view",
      "type": "function",
      "constant": true
    }
  ],
  "bytecode": "0x608060405260006001556000600255600060035560006004553480156200002557600080fd5b50336000806101000a81548173ffffffffffffffffffffffffffffffffffffffff021916908373ffffffffffffffffffffffffffffffffffffffff160217905550620000ad6040518060400160405280600e81526020017f436f6e7472616374206f776e657200000000000000000000000000000000000081525033620000b360201b60201c565b62000d75565b338073ffffffffffffffffffffffffffffffffffffffff1660008054906101000a900473ffffffffffffffffffffffffffffffffffffffff1673ffffffffffffffffffffffffffffffffffffffff161462000145576040517f08c379a00000000000000000000000000000000000000000000000000000000081526004016200013c90620007fc565b60405180910390fd5b60008351116200018c576040517f08c379a000000000000000000000000000000000000000000000000000000000815260040162000183906200086e565b60405180910390fd5b6200019d826200046c60201b60201c565b620001df576040517f08c379a0000000000000000000000000000000000000000000000000000000008152600401620001d69062000906565b60405180910390fd5b60036000815480929190620001f49062000961565b91905055506000600354610bb86200020d9190620009ae565b905060006040518060400160405280600581526020017f41444d494e0000000000000000000000000000000000000000000000000000008152506200025d836200054c60201b6200256f1760201c565b6040516020016200027092919062000a8e565b604051602081830303815290604052905060004290506040518060c0016040528060035481526020018781526020018381526020018673ffffffffffffffffffffffffffffffffffffffff1681526020013373ffffffffffffffffffffffffffffffffffffffff168152602001828152506007600060035481526020019081526020016000206000820151816000015560208201518160010190805190602001906200031e929190620006c5565b5060408201518160020190805190602001906200033d929190620006c5565b5060608201518160030160006101000a81548173ffffffffffffffffffffffffffffffffffffffff021916908373ffffffffffffffffffffffffffffffffffffffff16021790555060808201518160040160006101000a81548173ffffffffffffffffffffffffffffffffffffffff021916908373ffffffffffffffffffffffffffffffffffffffff16021790555060a08201518160050155905050600354600960008773ffffffffffffffffffffffffffffffffffffffff1673ffffffffffffffffffffffffffffffffffffffff168152602001908152602001600020819055507fcbaf80e95607e2134643114a42193aa876bc29ea7e0cacd87d54b634a91f026160035487848833866040516200045c9695949392919062000b5e565b60405180910390a1505050505050565b60008073ffffffffffffffffffffffffffffffffffffffff168273ffffffffffffffffffffffffffffffffffffffff1603620004ac576000905062000547565b8173ffffffffffffffffffffffffffffffffffffffff168273ffffffffffffffffffffffffffffffffffffffff1614620004ea576000905062000547565b600080600960008573ffffffffffffffffffffffffffffffffffffffff1673ffffffffffffffffffffffffffffffffffffffff16815260200190815260200160002054149050806200054157600091505062000547565b60019150505b919050565b60606000820362000595576040518060400160405280600181526020017f30000000000000000000000000000000000000000000000000000000000000008152509050620006c0565b600082905060005b60008214620005cd578080620005b39062000961565b915050600a82620005c5919062000c08565b91506200059d565b60008167ffffffffffffffff811115620005ec57620005eb62000c40565b5b6040519080825280601f01601f1916602001820160405280156200061f5781602001600182028036833780820191505090505b5090505b60008514620006b9576001826200063b919062000c6f565b9150600a856200064c919062000caa565b60306200065a9190620009ae565b60f81b81838151811062000673576200067262000ce2565b5b60200101907effffffffffffffffffffffffffffffffffffffffffffffffffffffffffffff1916908160001a905350600a85620006b1919062000c08565b945062000623565b8093505050505b919050565b828054620006d39062000d40565b90600052602060002090601f016020900481019282620006f7576000855562000743565b82601f106200071257805160ff191683800117855562000743565b8280016001018555821562000743579182015b828111156200074257825182559160200191906001019062000725565b5b50905062000752919062000756565b5090565b5b808211156200077157600081600090555060010162000757565b5090565b600082825260208201905092915050565b7f53656e646572206d7573742062652074686520636f6e7472616374206372656160008201527f746f720000000000000000000000000000000000000000000000000000000000602082015250565b6000620007e460238362000775565b9150620007f18262000786565b604082019050919050565b600060208201905081810360008301526200081781620007d5565b9050919050565b7f5469746c65206d757374206e6f7420626520656d707479000000000000000000600082015250565b60006200085660178362000775565b915062000863826200081e565b602082019050919050565b60006020820190508181036000830152620008898162000847565b9050919050565b7f41646d696e2061646472657373206e6f742076616c6964206f7220616c64726560008201527f6164792065786973740000000000000000000000000000000000000000000000602082015250565b6000620008ee60298362000775565b9150620008fb8262000890565b604082019050919050565b600060208201905081810360008301526200092181620008df565b9050919050565b7f4e487b7100000000000000000000000000000000000000000000000000000000600052601160045260246000fd5b6000819050919050565b60006200096e8262000957565b91507fffffffffffffffffffffffffffffffffffffffffffffffffffffffffffffffff8203620009a357620009a262000928565b5b600182019050919050565b6000620009bb8262000957565b9150620009c88362000957565b9250827fffffffffffffffffffffffffffffffffffffffffffffffffffffffffffffffff0382111562000a0057620009ff62000928565b5b828201905092915050565b600081519050919050565b600081905092915050565b60005b8381101562000a4157808201518184015260208101905062000a24565b8381111562000a51576000848401525b50505050565b600062000a648262000a0b565b62000a70818562000a16565b935062000a8281856020860162000a21565b80840191505092915050565b600062000a9c828562000a57565b915062000aaa828462000a57565b91508190509392505050565b62000ac18162000957565b82525050565b6000601f19601f8301169050919050565b600062000ae58262000a0b565b62000af1818562000775565b935062000b0381856020860162000a21565b62000b0e8162000ac7565b840191505092915050565b600073ffffffffffffffffffffffffffffffffffffffff82169050919050565b600062000b468262000b19565b9050919050565b62000b588162000b39565b82525050565b600060c08201905062000b75600083018962000ab6565b818103602083015262000b89818862000ad8565b9050818103604083015262000b9f818762000ad8565b905062000bb0606083018662000b4d565b62000bbf608083018562000b4d565b62000bce60a083018462000ab6565b979650505050505050565b7f4e487b7100000000000000000000000000000000000000000000000000000000600052601260045260246000fd5b600062000c158262000957565b915062000c228362000957565b92508262000c355762000c3462000bd9565b5b828204905092915050565b7f4e487b7100000000000000000000000000000000000000000000000000000000600052604160045260246000fd5b600062000c7c8262000957565b915062000c898362000957565b92508282101562000c9f5762000c9e62000928565b5b828203905092915050565b600062000cb78262000957565b915062000cc48362000957565b92508262000cd75762000cd662000bd9565b5b828206905092915050565b7f4e487b7100000000000000000000000000000000000000000000000000000000600052603260045260246000fd5b7f4e487b7100000000000000000000000000000000000000000000000000000000600052602260045260246000fd5b6000600282049050600182168062000d5957607f821691505b60208210810362000d6f5762000d6e62000d11565b5b50919050565b6144388062000d856000396000f3fe608060405234801561001057600080fd5b506004361061012c5760003560e01c80638da5cb5b116100ad578063c756695011610071578063c75669501461039c578063c98a496f146103b8578063d7bce658146103ef578063e261f1e51461040d578063f8937fb8146104445761012c565b80638da5cb5b146102e4578063a3f4df7e14610302578063b6a8fe0914610320578063bba8f58d1461033c578063c6c6b98d1461036c5761012c565b806336440f45116100f457806336440f45146102065780633ce8e513146102365780634f6bdb7c146102665780635b4c777d146102965780635f4942d8146102b45761012c565b806309a34f001461013157806314bfd6d0146101675780631cd531491461019c5780632b7832b3146101b85780632ef5c4fb146101d6575b600080fd5b61014b60048036038101906101469190612dc4565b610460565b60405161015e9796959493929190612f51565b60405180910390f35b610181600480360381019061017c9190612dc4565b610557565b60405161019396959493929190612fc7565b60405180910390f35b6101b660048036038101906101b19190613197565b6106e3565b005b6101c0610a72565b6040516101cd91906131f3565b60405180910390f35b6101f060048036038101906101eb9190612dc4565b610a78565b6040516101fd91906133ef565b60405180910390f35b610220600480360381019061021b9190613411565b610dbe565b60405161022d91906134ce565b60405180910390f35b610250600480360381019061024b9190612dc4565b61100e565b60405161025d91906131f3565b60405180910390f35b610280600480360381019061027b9190613411565b611026565b60405161028d91906131f3565b60405180910390f35b61029e61103e565b6040516102ab91906131f3565b60405180910390f35b6102ce60048036038101906102c99190613411565b611044565b6040516102db919061350b565b60405180910390f35b6102ec61109c565b6040516102f99190613526565b60405180910390f35b61030a6110c0565b6040516103179190613541565b60405180910390f35b61033a600480360381019061033591906135c3565b6110f9565b005b61035660048036038101906103519190612dc4565b6114ae565b60405161036391906136ef565b60405180910390f35b61038660048036038101906103819190612dc4565b61168d565b60405161039391906133ef565b60405180910390f35b6103b660048036038101906103b19190613711565b6119d3565b005b6103d260048036038101906103cd9190612dc4565b611eb2565b6040516103e6989796959493929190613751565b60405180910390f35b6103f761202a565b60405161040491906131f3565b60405180910390f35b61042760048036038101906104229190612dc4565b612030565b60405161043b9897969594939291906137dd565b60405180910390f35b61045e60048036038101906104599190613895565b61223d565b005b600660205280600052604060002060009150905080600001549080600101549080600201805461048f9061394c565b80601f01602080910402602001604051908101604052809291908181526020018280546104bb9061394c565b80156105085780601f106104dd57610100808354040283529160200191610508565b820191906000526020600020905b8154815290600101906020018083116104eb57829003601f168201915b5050505050908060030160009054906101000a900460ff16908060040154908060050160009054906101000a900473ffffffffffffffffffffffffffffffffffffffff16908060060154905087565b60076020528060005260406000206000915090508060000154908060010180546105809061394c565b80601f01602080910402602001604051908101604052809291908181526020018280546105ac9061394c565b80156105f95780601f106105ce576101008083540402835291602001916105f9565b820191906000526020600020905b8154815290600101906020018083116105dc57829003601f168201915b50505050509080600201805461060e9061394c565b80601f016020809104026020016040519081016040528092919081815260200182805461063a9061394c565b80156106875780601f1061065c57610100808354040283529160200191610687565b820191906000526020600020905b81548152906001019060200180831161066a57829003601f168201915b5050505050908060030160009054906101000a900473ffffffffffffffffffffffffffffffffffffffff16908060040160009054906101000a900473ffffffffffffffffffffffffffffffffffffffff16908060050154905086565b338073ffffffffffffffffffffffffffffffffffffffff1660008054906101000a900473ffffffffffffffffffffffffffffffffffffffff1673ffffffffffffffffffffffffffffffffffffffff1614610772576040517f08c379a0000000000000000000000000000000000000000000000000000000008152600401610769906139ef565b60405180910390fd5b60008351116107b6576040517f08c379a00000000000000000000000000000000000000000000000000000000081526004016107ad90613a5b565b60405180910390fd5b6107bf826126cf565b6107fe576040517f08c379a00000000000000000000000000000000000000000000000000000000081526004016107f590613aed565b60405180910390fd5b6003600081548092919061081190613b3c565b91905055506000600354610bb86108289190613b84565b905060006040518060400160405280600581526020017f41444d494e00000000000000000000000000000000000000000000000000000081525061086b8361256f565b60405160200161087c929190613c16565b604051602081830303815290604052905060004290506040518060c0016040528060035481526020018781526020018381526020018673ffffffffffffffffffffffffffffffffffffffff1681526020013373ffffffffffffffffffffffffffffffffffffffff16815260200182815250600760006003548152602001908152602001600020600082015181600001556020820151816001019080519060200190610928929190612bb5565b506040820151816002019080519060200190610945929190612bb5565b5060608201518160030160006101000a81548173ffffffffffffffffffffffffffffffffffffffff021916908373ffffffffffffffffffffffffffffffffffffffff16021790555060808201518160040160006101000a81548173ffffffffffffffffffffffffffffffffffffffff021916908373ffffffffffffffffffffffffffffffffffffffff16021790555060a08201518160050155905050600354600960008773ffffffffffffffffffffffffffffffffffffffff1673ffffffffffffffffffffffffffffffffffffffff168152602001908152602001600020819055507fcbaf80e95607e2134643114a42193aa876bc29ea7e0cacd87d54b634a91f02616003548784883386604051610a6296959493929190612fc7565b60405180910390a1505050505050565b60035481565b606081600081118015610a8d57506002548111155b610acc576040517f08c379a0000000000000000000000000000000000000000000000000000000008152600401610ac390613c86565b60405180910390fd5b6000600c6000858152602001908152602001600020805480602002602001604051908101604052809291908181526020018280548015610b2b57602002820191906000526020600020905b815481526020019060010190808311610b17575b5050505050905060008151905060008167ffffffffffffffff811115610b5457610b53613040565b5b604051908082528060200260200182016040528015610b8d57816020015b610b7a612c3b565b815260200190600190039081610b725790505b50905060005b82811015610db157600a6000858381518110610bb257610bb1613ca6565b5b6020026020010151815260200190815260200160002060405180610100016040529081600082015481526020016001820154815260200160028201548152602001600382018054610c029061394c565b80601f0160208091040260200160405190810160405280929190818152602001828054610c2e9061394c565b8015610c7b5780601f10610c5057610100808354040283529160200191610c7b565b820191906000526020600020905b815481529060010190602001808311610c5e57829003601f168201915b5050505050815260200160048201548152602001600582018054610c9e9061394c565b80601f0160208091040260200160405190810160405280929190818152602001828054610cca9061394c565b8015610d175780601f10610cec57610100808354040283529160200191610d17565b820191906000526020600020905b815481529060010190602001808311610cfa57829003601f168201915b505050505081526020016006820160009054906101000a900473ffffffffffffffffffffffffffffffffffffffff1673ffffffffffffffffffffffffffffffffffffffff1673ffffffffffffffffffffffffffffffffffffffff168152602001600782015481525050828281518110610d9357610d92613ca6565b5b60200260200101819052508080610da990613b3c565b915050610b93565b5080945050505050919050565b610dc6612c96565b60076000600960008573ffffffffffffffffffffffffffffffffffffffff1673ffffffffffffffffffffffffffffffffffffffff1681526020019081526020016000205481526020019081526020016000206040518060c001604052908160008201548152602001600182018054610e3d9061394c565b80601f0160208091040260200160405190810160405280929190818152602001828054610e699061394c565b8015610eb65780601f10610e8b57610100808354040283529160200191610eb6565b820191906000526020600020905b815481529060010190602001808311610e9957829003601f168201915b50505050508152602001600282018054610ecf9061394c565b80601f0160208091040260200160405190810160405280929190818152602001828054610efb9061394c565b8015610f485780601f10610f1d57610100808354040283529160200191610f48565b820191906000526020600020905b815481529060010190602001808311610f2b57829003601f168201915b505050505081526020016003820160009054906101000a900473ffffffffffffffffffffffffffffffffffffffff1673ffffffffffffffffffffffffffffffffffffffff1673ffffffffffffffffffffffffffffffffffffffff1681526020016004820160009054906101000a900473ffffffffffffffffffffffffffffffffffffffff1673ffffffffffffffffffffffffffffffffffffffff1673ffffffffffffffffffffffffffffffffffffffff1681526020016005820154815250509050919050565b60086020528060005260406000206000915090505481565b60096020528060005260406000206000915090505481565b60025481565b60008173ffffffffffffffffffffffffffffffffffffffff1660008054906101000a900473ffffffffffffffffffffffffffffffffffffffff1673ffffffffffffffffffffffffffffffffffffffff16149050919050565b60008054906101000a900473ffffffffffffffffffffffffffffffffffffffff1681565b6040518060400160405280600c81526020017f446563656e7472616c616e64000000000000000000000000000000000000000081525081565b6000828290501161113f576040517f08c379a000000000000000000000000000000000000000000000000000000000815260040161113690613d47565b60405180910390fd5b60008484905011611185576040517f08c379a000000000000000000000000000000000000000000000000000000000815260040161117c90613db3565b60405180910390fd5b600073ffffffffffffffffffffffffffffffffffffffff163373ffffffffffffffffffffffffffffffffffffffff16036111f4576040517f08c379a00000000000000000000000000000000000000000000000000000000081526004016111eb90613e1f565b60405180910390fd5b6001600081548092919061120790613b3c565b9190505550600060015461138861121e9190613b84565b905060006040518060400160405280600381526020017f41534400000000000000000000000000000000000000000000000000000000008152506112618361256f565b604051602001611272929190613c16565b60405160208183030381529060405290506000429050604051806101000160405280600154815260200184815260200183815260200188888080601f016020809104026020016040519081016040528093929190818152602001838380828437600081840152601f19601f82011690508083019250505050505050815260200186868080601f016020809104026020016040519081016040528093929190818152602001838380828437600081840152601f19601f8201169050808301925050505050505081526020016000151581526020013373ffffffffffffffffffffffffffffffffffffffff16815260200182815250600560006001548152602001908152602001600020600082015181600001556020820151816001015560408201518160020190805190602001906113aa929190612bb5565b5060608201518160030190805190602001906113c7929190612bb5565b5060808201518160040190805190602001906113e4929190612bb5565b5060a08201518160050160006101000a81548160ff02191690831515021790555060c08201518160050160016101000a81548173ffffffffffffffffffffffffffffffffffffffff021916908373ffffffffffffffffffffffffffffffffffffffff16021790555060e082015181600601559050507f65e024500d3a8772624bf394e514747f2718ca783604900949638998f5291d3b60015484848a8a8a8a6000338a60405161149d9a99989796959493929190613e6c565b60405180910390a150505050505050565b6114b6612cf8565b816000600a6114c48361256f565b5114905080611508576040517f08c379a00000000000000000000000000000000000000000000000000000000081526004016114ff90613f75565b60405180910390fd5b60066000600860008781526020019081526020016000205481526020019081526020016000206040518060e0016040529081600082015481526020016001820154815260200160028201805461155d9061394c565b80601f01602080910402602001604051908101604052809291908181526020018280546115899061394c565b80156115d65780601f106115ab576101008083540402835291602001916115d6565b820191906000526020600020905b8154815290600101906020018083116115b957829003601f168201915b505050505081526020016003820160009054906101000a900460ff16600181111561160457611603612e99565b5b600181111561161657611615612e99565b5b8152602001600482015481526020016005820160009054906101000a900473ffffffffffffffffffffffffffffffffffffffff1673ffffffffffffffffffffffffffffffffffffffff1673ffffffffffffffffffffffffffffffffffffffff16815260200160068201548152505092505050919050565b6060816000811180156116a257506001548111155b6116e1576040517f08c379a00000000000000000000000000000000000000000000000000000000081526004016116d890613fe1565b60405180910390fd5b6000600b600085815260200190815260200160002080548060200260200160405190810160405280929190818152602001828054801561174057602002820191906000526020600020905b81548152602001906001019080831161172c575b5050505050905060008151905060008167ffffffffffffffff81111561176957611768613040565b5b6040519080825280602002602001820160405280156117a257816020015b61178f612c3b565b8152602001906001900390816117875790505b50905060005b828110156119c657600a60008583815181106117c7576117c6613ca6565b5b60200260200101518152602001908152602001600020604051806101000160405290816000820154815260200160018201548152602001600282015481526020016003820180546118179061394c565b80601f01602080910402602001604051908101604052809291908181526020018280546118439061394c565b80156118905780601f1061186557610100808354040283529160200191611890565b820191906000526020600020905b81548152906001019060200180831161187357829003601f168201915b50505050508152602001600482015481526020016005820180546118b39061394c565b80601f01602080910402602001604051908101604052809291908181526020018280546118df9061394c565b801561192c5780601f106119015761010080835404028352916020019161192c565b820191906000526020600020905b81548152906001019060200180831161190f57829003601f168201915b505050505081526020016006820160009054906101000a900473ffffffffffffffffffffffffffffffffffffffff1673ffffffffffffffffffffffffffffffffffffffff1673ffffffffffffffffffffffffffffffffffffffff1681526020016007820154815250508282815181106119a8576119a7613ca6565b5b602002602001018190525080806119be90613b3c565b9150506117a8565b5080945050505050919050565b816000811180156119e657506001548111155b611a25576040517f08c379a0000000000000000000000000000000000000000000000000000000008152600401611a1c90613fe1565b60405180910390fd5b816000600a611a338361256f565b5114905080611a77576040517f08c379a0000000000000000000000000000000000000000000000000000000008152600401611a6e90613f75565b60405180910390fd5b60006008600086815260200190815260200160002054905060008103611ad2576040517f08c379a0000000000000000000000000000000000000000000000000000000008152600401611ac99061404d565b60405180910390fd5b6000600b60008881526020019081526020016000208054905090506000811115611b4a57611b0087836127a9565b15611b40576040517f08c379a0000000000000000000000000000000000000000000000000000000008152600401611b37906140df565b60405180910390fd5b611b4987612a32565b5b60046000815480929190611b5d90613b3c565b9190505550600060056000898152602001908152602001600020905060018160050160006101000a81548160ff021916908315150217905550600060066000858152602001908152602001600020905060405180610100016040528060045481526020018260000154815260200182600101548152602001826002018054611be49061394c565b80601f0160208091040260200160405190810160405280929190818152602001828054611c109061394c565b8015611c5d5780601f10611c3257610100808354040283529160200191611c5d565b820191906000526020600020905b815481529060010190602001808311611c4057829003601f168201915b5050505050815260200183600001548152602001836002018054611c809061394c565b80601f0160208091040260200160405190810160405280929190818152602001828054611cac9061394c565b8015611cf95780601f10611cce57610100808354040283529160200191611cf9565b820191906000526020600020905b815481529060010190602001808311611cdc57829003601f168201915b505050505081526020013373ffffffffffffffffffffffffffffffffffffffff16815260200142815250600a600060045481526020019081526020016000206000820151816000015560208201518160010155604082015181600201556060820151816003019080519060200190611d72929190612bb5565b506080820151816004015560a0820151816005019080519060200190611d99929190612bb5565b5060c08201518160060160006101000a81548173ffffffffffffffffffffffffffffffffffffffff021916908373ffffffffffffffffffffffffffffffffffffffff16021790555060e08201518160070155905050600b60008a81526020019081526020016000206004549080600181540180825580915050600190039060005260206000200160009091909190915055600c600085815260200190815260200160002060045490806001815401808255809150506001900390600052602060002001600090919091909150557f614b70eeb7f5cdc74e56cf37e259524ac64676dfdf177d611e8f74b707f64c0a6004548a863342604051611e9f9594939291906140ff565b60405180910390a1505050505050505050565b600a602052806000526040600020600091509050806000015490806001015490806002015490806003018054611ee79061394c565b80601f0160208091040260200160405190810160405280929190818152602001828054611f139061394c565b8015611f605780601f10611f3557610100808354040283529160200191611f60565b820191906000526020600020905b815481529060010190602001808311611f4357829003601f168201915b505050505090806004015490806005018054611f7b9061394c565b80601f0160208091040260200160405190810160405280929190818152602001828054611fa79061394c565b8015611ff45780601f10611fc957610100808354040283529160200191611ff4565b820191906000526020600020905b815481529060010190602001808311611fd757829003601f168201915b5050505050908060060160009054906101000a900473ffffffffffffffffffffffffffffffffffffffff16908060070154905088565b60015481565b600560205280600052604060002060009150905080600001549080600101549080600201805461205f9061394c565b80601f016020809104026020016040519081016040528092919081815260200182805461208b9061394c565b80156120d85780601f106120ad576101008083540402835291602001916120d8565b820191906000526020600020905b8154815290600101906020018083116120bb57829003601f168201915b5050505050908060030180546120ed9061394c565b80601f01602080910402602001604051908101604052809291908181526020018280546121199061394c565b80156121665780601f1061213b57610100808354040283529160200191612166565b820191906000526020600020905b81548152906001019060200180831161214957829003601f168201915b50505050509080600401805461217b9061394c565b80601f01602080910402602001604051908101604052809291908181526020018280546121a79061394c565b80156121f45780601f106121c9576101008083540402835291602001916121f4565b820191906000526020600020905b8154815290600101906020018083116121d757829003601f168201915b5050505050908060050160009054906101000a900460ff16908060050160019054906101000a900473ffffffffffffffffffffffffffffffffffffffff16908060060154905088565b846000600a61224b8361256f565b511490508061228f576040517f08c379a000000000000000000000000000000000000000000000000000000000815260040161228690613f75565b60405180910390fd5b600080600860008a815260200190815260200160002054149050806122e9576040517f08c379a00000000000000000000000000000000000000000000000000000000081526004016122e09061419e565b60405180910390fd5b6000878790501161232f576040517f08c379a00000000000000000000000000000000000000000000000000000000081526004016123269061420a565b60405180910390fd5b428410612371576040517f08c379a000000000000000000000000000000000000000000000000000000000815260040161236890614276565b60405180910390fd5b6002600081548092919061238490613b3c565b919050555060004290506040518060e0016040528060025481526020018a815260200189898080601f016020809104026020016040519081016040528093929190818152602001838380828437600081840152601f19601f82011690508083019250505050505050815260200187600181111561240457612403612e99565b5b81526020018681526020013373ffffffffffffffffffffffffffffffffffffffff1681526020018281525060066000600254815260200190815260200160002060008201518160000155602082015181600101556040820151816002019080519060200190612474929190612bb5565b5060608201518160030160006101000a81548160ff021916908360018111156124a05761249f612e99565b5b02179055506080820151816004015560a08201518160050160006101000a81548173ffffffffffffffffffffffffffffffffffffffff021916908373ffffffffffffffffffffffffffffffffffffffff16021790555060c08201518160060155905050600254600860008b8152602001908152602001600020819055507f9e452ff4b2f83dd156b789a1890a80b05cca0d5160993b984f6828013fff01166002548a8a8a8a8a338860405161255c989796959493929190614296565b60405180910390a1505050505050505050565b6060600082036125b6576040518060400160405280600181526020017f300000000000000000000000000000000000000000000000000000000000000081525090506126ca565b600082905060005b600082146125e85780806125d190613b3c565b915050600a826125e1919061433d565b91506125be565b60008167ffffffffffffffff81111561260457612603613040565b5b6040519080825280601f01601f1916602001820160405280156126365781602001600182028036833780820191505090505b5090505b600085146126c35760018261264f919061436e565b9150600a8561265e91906143a2565b603061266a9190613b84565b60f81b8183815181106126805761267f613ca6565b5b60200101907effffffffffffffffffffffffffffffffffffffffffffffffffffffffffffff1916908160001a905350600a856126bc919061433d565b945061263a565b8093505050505b919050565b60008073ffffffffffffffffffffffffffffffffffffffff168273ffffffffffffffffffffffffffffffffffffffff160361270d57600090506127a4565b8173ffffffffffffffffffffffffffffffffffffffff168273ffffffffffffffffffffffffffffffffffffffff161461274957600090506127a4565b600080600960008573ffffffffffffffffffffffffffffffffffffffff1673ffffffffffffffffffffffffffffffffffffffff168152602001908152602001600020541490508061279e5760009150506127a4565b60019150505b919050565b600080600b60008581526020019081526020016000208054905090506000600b600086815260200190815260200160002080548060200260200160405190810160405280929190818152602001828054801561282457602002820191906000526020600020905b815481526020019060010190808311612810575b505050505090506000600a60008360018661283f919061436e565b815181106128505761284f613ca6565b5b60200260200101518152602001908152602001600020604051806101000160405290816000820154815260200160018201548152602001600282015481526020016003820180546128a09061394c565b80601f01602080910402602001604051908101604052809291908181526020018280546128cc9061394c565b80156129195780601f106128ee57610100808354040283529160200191612919565b820191906000526020600020905b8154815290600101906020018083116128fc57829003601f168201915b505050505081526020016004820154815260200160058201805461293c9061394c565b80601f01602080910402602001604051908101604052809291908181526020018280546129689061394c565b80156129b55780601f1061298a576101008083540402835291602001916129b5565b820191906000526020600020905b81548152906001019060200180831161299857829003601f168201915b505050505081526020016006820160009054906101000a900473ffffffffffffffffffffffffffffffffffffffff1673ffffffffffffffffffffffffffffffffffffffff1673ffffffffffffffffffffffffffffffffffffffff168152602001600782015481525050905084816020015114935050505092915050565b6000600b60008381526020019081526020016000208054905090506000600b6000848152602001908152602001600020600183612a6f919061436e565b81548110612a8057612a7f613ca6565b5b906000526020600020015490506000600a60008381526020019081526020016000206001015490506000600c600083815260200190815260200160002090506000805b60018380549050612ad4919061436e565b811015612b85576000600a6000858481548110612af457612af3613ca6565b5b90600052602060002001548152602001908152602001600020600401549050878103612b1f57600192505b8215612b715783600183612b339190613b84565b81548110612b4457612b43613ca6565b5b9060005260206000200154848381548110612b6257612b61613ca6565b5b90600052602060002001819055505b508080612b7d90613b3c565b915050612ac3565b5081805480612b9757612b966143d3565b5b60019003818190600052602060002001600090559055505050505050565b828054612bc19061394c565b90600052602060002090601f016020900481019282612be35760008555612c2a565b82601f10612bfc57805160ff1916838001178555612c2a565b82800160010185558215612c2a579182015b82811115612c29578251825591602001919060010190612c0e565b5b509050612c379190612d5d565b5090565b604051806101000160405280600081526020016000815260200160008152602001606081526020016000815260200160608152602001600073ffffffffffffffffffffffffffffffffffffffff168152602001600081525090565b6040518060c00160405280600081526020016060815260200160608152602001600073ffffffffffffffffffffffffffffffffffffffff168152602001600073ffffffffffffffffffffffffffffffffffffffff168152602001600081525090565b6040518060e0016040528060008152602001600081526020016060815260200160006001811115612d2c57612d2b612e99565b5b815260200160008152602001600073ffffffffffffffffffffffffffffffffffffffff168152602001600081525090565b5b80821115612d76576000816000905550600101612d5e565b5090565b6000604051905090565b600080fd5b600080fd5b6000819050919050565b612da181612d8e565b8114612dac57600080fd5b50565b600081359050612dbe81612d98565b92915050565b600060208284031215612dda57612dd9612d84565b5b6000612de884828501612daf565b91505092915050565b612dfa81612d8e565b82525050565b600081519050919050565b600082825260208201905092915050565b60005b83811015612e3a578082015181840152602081019050612e1f565b83811115612e49576000848401525b50505050565b6000601f19601f8301169050919050565b6000612e6b82612e00565b612e758185612e0b565b9350612e85818560208601612e1c565b612e8e81612e4f565b840191505092915050565b7f4e487b7100000000000000000000000000000000000000000000000000000000600052602160045260246000fd5b60028110612ed957612ed8612e99565b5b50565b6000819050612eea82612ec8565b919050565b6000612efa82612edc565b9050919050565b612f0a81612eef565b82525050565b600073ffffffffffffffffffffffffffffffffffffffff82169050919050565b6000612f3b82612f10565b9050919050565b612f4b81612f30565b82525050565b600060e082019050612f66600083018a612df1565b612f736020830189612df1565b8181036040830152612f858188612e60565b9050612f946060830187612f01565b612fa16080830186612df1565b612fae60a0830185612f42565b612fbb60c0830184612df1565b98975050505050505050565b600060c082019050612fdc6000830189612df1565b8181036020830152612fee8188612e60565b905081810360408301526130028187612e60565b90506130116060830186612f42565b61301e6080830185612f42565b61302b60a0830184612df1565b979650505050505050565b600080fd5b600080fd5b7f4e487b7100000000000000000000000000000000000000000000000000000000600052604160045260246000fd5b61307882612e4f565b810181811067ffffffffffffffff8211171561309757613096613040565b5b80604052505050565b60006130aa612d7a565b90506130b6828261306f565b919050565b600067ffffffffffffffff8211156130d6576130d5613040565b5b6130df82612e4f565b9050602081019050919050565b82818337600083830152505050565b600061310e613109846130bb565b6130a0565b90508281526020810184848401111561312a5761312961303b565b5b6131358482856130ec565b509392505050565b600082601f83011261315257613151613036565b5b81356131628482602086016130fb565b91505092915050565b61317481612f30565b811461317f57600080fd5b50565b6000813590506131918161316b565b92915050565b600080604083850312156131ae576131ad612d84565b5b600083013567ffffffffffffffff8111156131cc576131cb612d89565b5b6131d88582860161313d565b92505060206131e985828601613182565b9150509250929050565b60006020820190506132086000830184612df1565b92915050565b600081519050919050565b600082825260208201905092915050565b6000819050602082019050919050565b61324381612d8e565b82525050565b600082825260208201905092915050565b600061326582612e00565b61326f8185613249565b935061327f818560208601612e1c565b61328881612e4f565b840191505092915050565b61329c81612f30565b82525050565b6000610100830160008301516132bb600086018261323a565b5060208301516132ce602086018261323a565b5060408301516132e1604086018261323a565b50606083015184820360608601526132f9828261325a565b915050608083015161330e608086018261323a565b5060a083015184820360a0860152613326828261325a565b91505060c083015161333b60c0860182613293565b5060e083015161334e60e086018261323a565b508091505092915050565b600061336583836132a2565b905092915050565b6000602082019050919050565b60006133858261320e565b61338f8185613219565b9350836020820285016133a18561322a565b8060005b858110156133dd57848403895281516133be8582613359565b94506133c98361336d565b925060208a019950506001810190506133a5565b50829750879550505050505092915050565b60006020820190508181036000830152613409818461337a565b905092915050565b60006020828403121561342757613426612d84565b5b600061343584828501613182565b91505092915050565b600060c083016000830151613456600086018261323a565b506020830151848203602086015261346e828261325a565b91505060408301518482036040860152613488828261325a565b915050606083015161349d6060860182613293565b5060808301516134b06080860182613293565b5060a08301516134c360a086018261323a565b508091505092915050565b600060208201905081810360008301526134e8818461343e565b905092915050565b60008115159050919050565b613505816134f0565b82525050565b600060208201905061352060008301846134fc565b92915050565b600060208201905061353b6000830184612f42565b92915050565b6000602082019050818103600083015261355b8184612e60565b905092915050565b600080fd5b600080fd5b60008083601f84011261358357613582613036565b5b8235905067ffffffffffffffff8111156135a05761359f613563565b5b6020830191508360018202830111156135bc576135bb613568565b5b9250929050565b600080600080604085870312156135dd576135dc612d84565b5b600085013567ffffffffffffffff8111156135fb576135fa612d89565b5b6136078782880161356d565b9450945050602085013567ffffffffffffffff81111561362a57613629612d89565b5b6136368782880161356d565b925092505092959194509250565b61364d81612eef565b82525050565b600060e08301600083015161366b600086018261323a565b50602083015161367e602086018261323a565b5060408301518482036040860152613696828261325a565b91505060608301516136ab6060860182613644565b5060808301516136be608086018261323a565b5060a08301516136d160a0860182613293565b5060c08301516136e460c086018261323a565b508091505092915050565b600060208201905081810360008301526137098184613653565b905092915050565b6000806040838503121561372857613727612d84565b5b600061373685828601612daf565b925050602061374785828601612daf565b9150509250929050565b600061010082019050613767600083018b612df1565b613774602083018a612df1565b6137816040830189612df1565b81810360608301526137938188612e60565b90506137a26080830187612df1565b81810360a08301526137b48186612e60565b90506137c360c0830185612f42565b6137d060e0830184612df1565b9998505050505050505050565b6000610100820190506137f3600083018b612df1565b613800602083018a612df1565b81810360408301526138128189612e60565b905081810360608301526138268188612e60565b9050818103608083015261383a8187612e60565b905061384960a08301866134fc565b61385660c0830185612f42565b61386360e0830184612df1565b9998505050505050505050565b6002811061387d57600080fd5b50565b60008135905061388f81613870565b92915050565b6000806000806000608086880312156138b1576138b0612d84565b5b60006138bf88828901612daf565b955050602086013567ffffffffffffffff8111156138e0576138df612d89565b5b6138ec8882890161356d565b945094505060406138ff88828901613880565b925050606061391088828901612daf565b9150509295509295909350565b7f4e487b7100000000000000000000000000000000000000000000000000000000600052602260045260246000fd5b6000600282049050600182168061396457607f821691505b6020821081036139775761397661391d565b5b50919050565b7f53656e646572206d7573742062652074686520636f6e7472616374206372656160008201527f746f720000000000000000000000000000000000000000000000000000000000602082015250565b60006139d9602383612e0b565b91506139e48261397d565b604082019050919050565b60006020820190508181036000830152613a08816139cc565b9050919050565b7f5469746c65206d757374206e6f7420626520656d707479000000000000000000600082015250565b6000613a45601783612e0b565b9150613a5082613a0f565b602082019050919050565b60006020820190508181036000830152613a7481613a38565b9050919050565b7f41646d696e2061646472657373206e6f742076616c6964206f7220616c64726560008201527f6164792065786973740000000000000000000000000000000000000000000000602082015250565b6000613ad7602983612e0b565b9150613ae282613a7b565b604082019050919050565b60006020820190508181036000830152613b0681613aca565b9050919050565b7f4e487b7100000000000000000000000000000000000000000000000000000000600052601160045260246000fd5b6000613b4782612d8e565b91507fffffffffffffffffffffffffffffffffffffffffffffffffffffffffffffffff8203613b7957613b78613b0d565b5b600182019050919050565b6000613b8f82612d8e565b9150613b9a83612d8e565b9250827fffffffffffffffffffffffffffffffffffffffffffffffffffffffffffffffff03821115613bcf57613bce613b0d565b5b828201905092915050565b600081905092915050565b6000613bf082612e00565b613bfa8185613bda565b9350613c0a818560208601612e1c565b80840191505092915050565b6000613c228285613be5565b9150613c2e8284613be5565b91508190509392505050565b7f496e76616c696420636974697a656e2069640000000000000000000000000000600082015250565b6000613c70601283612e0b565b9150613c7b82613c3a565b602082019050919050565b60006020820190508181036000830152613c9f81613c63565b9050919050565b7f4e487b7100000000000000000000000000000000000000000000000000000000600052603260045260246000fd5b7f4c616e6420686173682073706563696669636174696f6e20697320726571756960008201527f7265640000000000000000000000000000000000000000000000000000000000602082015250565b6000613d31602383612e0b565b9150613d3c82613cd5565b604082019050919050565b60006020820190508181036000830152613d6081613d24565b9050919050565b7f4465736372697074696f6e206973207265717569726564000000000000000000600082015250565b6000613d9d601783612e0b565b9150613da882613d67565b602082019050919050565b60006020820190508181036000830152613dcc81613d90565b9050919050565b7f496e76616c696420616464726573730000000000000000000000000000000000600082015250565b6000613e09600f83612e0b565b9150613e1482613dd3565b602082019050919050565b60006020820190508181036000830152613e3881613dfc565b9050919050565b6000613e4b8385612e0b565b9350613e588385846130ec565b613e6183612e4f565b840190509392505050565b600061010082019050613e82600083018d612df1565b613e8f602083018c612df1565b8181036040830152613ea1818b612e60565b90508181036060830152613eb681898b613e3f565b90508181036080830152613ecb818789613e3f565b9050613eda60a08301866134fc565b613ee760c0830185612f42565b613ef460e0830184612df1565b9b9a5050505050505050505050565b7f436974697a656e206964206e756d626572206d75737420636f6e7461696e203160008201527f3020646967697400000000000000000000000000000000000000000000000000602082015250565b6000613f5f602783612e0b565b9150613f6a82613f03565b604082019050919050565b60006020820190508181036000830152613f8e81613f52565b9050919050565b7f496e76616c6964206c616e642069640000000000000000000000000000000000600082015250565b6000613fcb600f83612e0b565b9150613fd682613f95565b602082019050919050565b60006020820190508181036000830152613ffa81613fbe565b9050919050565b7f436974697a656e20696420646f6573206e6f7420657869737400000000000000600082015250565b6000614037601983612e0b565b915061404282614001565b602082019050919050565b600060208201905081810360008301526140668161402a565b9050919050565b7f436974697a656e206973207468652063757272656e74206c616e642773206f7760008201527f6e65720000000000000000000000000000000000000000000000000000000000602082015250565b60006140c9602383612e0b565b91506140d48261406d565b604082019050919050565b600060208201905081810360008301526140f8816140bc565b9050919050565b600060a0820190506141146000830188612df1565b6141216020830187612df1565b61412e6040830186612df1565b61413b6060830185612f42565b6141486080830184612df1565b9695505050505050565b7f436974697a656e206964206e756d62657220616c726561647920657869737400600082015250565b6000614188601f83612e0b565b915061419382614152565b602082019050919050565b600060208201905081810360008301526141b78161417b565b9050919050565b7f46756c6c206e616d652069732072657175697265640000000000000000000000600082015250565b60006141f4601583612e0b565b91506141ff826141be565b602082019050919050565b60006020820190508181036000830152614223816141e7565b9050919050565b7f496e76616c696420646f62000000000000000000000000000000000000000000600082015250565b6000614260600b83612e0b565b915061426b8261422a565b602082019050919050565b6000602082019050818103600083015261428f81614253565b9050919050565b600060e0820190506142ab600083018b612df1565b6142b8602083018a612df1565b81810360408301526142cb81888a613e3f565b90506142da6060830187612f01565b6142e76080830186612df1565b6142f460a0830185612f42565b61430160c0830184612df1565b9998505050505050505050565b7f4e487b7100000000000000000000000000000000000000000000000000000000600052601260045260246000fd5b600061434882612d8e565b915061435383612d8e565b9250826143635761436261430e565b5b828204905092915050565b600061437982612d8e565b915061438483612d8e565b92508282101561439757614396613b0d565b5b828203905092915050565b60006143ad82612d8e565b91506143b883612d8e565b9250826143c8576143c761430e565b5b828206905092915050565b7f4e487b7100000000000000000000000000000000000000000000000000000000600052603160045260246000fdfea2646970667358221220e0d381e7205ae02a5f8f8ae50f46dbb9b60a15b02d85c9926d068233521bb48164736f6c634300080d0033",
  "immutableReferences": {},
  "source": "// SPDX-License-Identifier: MIT\r\npragma solidity ^0.8.0;\r\n\r\nimport \"@openzeppelin/contracts/utils/Strings.sol\";\r\n\r\ncontract Decentraland{  \r\n    enum Gender{MALE, FEMALE}\r\n\r\n    struct Land{\r\n        uint256 id;\r\n        uint256 parcelNumber;\r\n        string landCode;\r\n        string description;\r\n        string landCoordinatorHash;\r\n        bool isOccupied;\r\n        address publishAdmin;\r\n        uint256 publishDate;\r\n    }\r\n\r\n    struct Citizen{\r\n        uint256 id;\r\n        uint256 idNumber;\r\n        string fullName;\r\n        Gender gender;\r\n        uint256 dob;\r\n        address publishAdmin;\r\n        uint256 publishDate;\r\n    }\r\n\r\n    struct Admin{\r\n        uint256 id;\r\n        string title;\r\n        string adminCode;\r\n        address adminAddr;\r\n        address publishAdmin;\r\n        uint256 publishDate;\r\n    }\r\n\r\n    struct landTransferedTrx{\r\n        uint256 id;\r\n        uint256 ownerId;\r\n        uint256 ownerIdNumber;\r\n        string ownerFullname;\r\n        uint256 landId;\r\n        string landCode;\r\n        address admin;\r\n        uint256 transferDate;\r\n    }\r\n\r\n    event LandPublished(\r\n        uint256 id,\r\n        uint256 parcelNumber,\r\n        string landCode,\r\n        string description,\r\n        string landCoordinatorHash,\r\n        bool isOccupied,\r\n        address publishAdmin,\r\n        uint256 publishDate\r\n    );\r\n\r\n    event CitizenPublished(\r\n        uint256 id,\r\n        uint256 idNumber,\r\n        string fullName,\r\n        Gender gender,\r\n        uint256 dob,\r\n        address publishAdmin,\r\n        uint256 publishDate\r\n    );\r\n\r\n    event AdminPublished(\r\n        uint256 id,\r\n        string title,\r\n        string admincode,\r\n        address newAdmin,\r\n        address publishAdmin,\r\n        uint256 publishDate\r\n    );\r\n\r\n    event LandTransfer(\r\n        uint256 id,\r\n        uint256 landId,\r\n        uint256 ownerId,\r\n        address adminAddr,\r\n        uint256 trxTime\r\n    );\r\n\r\n    string public constant NAME = \"Decentraland\";\r\n    string private constant TOWNSHIP_CODE = \"ASD\";\r\n    string private constant ADMIN_CODE = \"ADMIN\";\r\n    uint256 private constant PARCEL_NUMBER_SEED = 5000;\r\n    uint256 private constant ADMIN_NUMBER_SEED = 3000;\r\n    address public owner;\r\n    uint256 public landCount = 0;\r\n    uint256 public citizenCount = 0;\r\n    uint256 public adminCount = 0;\r\n    uint256 private transactionCount = 0;\r\n    mapping(uint256 => Land) public lands;\r\n    mapping(uint256 => Citizen) public citizens;\r\n    mapping(uint256 => Admin) public admins;\r\n\r\n    mapping(uint256 => uint256) public idNumbersToCitizenId;\r\n    mapping(address => uint256) public addressToAdminId;\r\n    mapping(uint256 => landTransferedTrx) public landTransferedTrxs;\r\n    mapping(uint256 => uint256[]) private landIdToTrxIds;\r\n    mapping(uint256 => uint256[]) private citizenIdToOwnedLandTrxIds;\r\n\r\n    constructor(){\r\n        owner = msg.sender;\r\n        publishAdmin(\"Contract owner\", msg.sender);\r\n    }\r\n\r\n    modifier validLandId(uint256 _landId){\r\n        require(_landId > 0 && _landId <= landCount, \"Invalid land id\");\r\n        _;\r\n    }\r\n\r\n    modifier validCitizenId(uint256 _citizenId){\r\n        require(_citizenId > 0 && _citizenId <= citizenCount, \"Invalid citizen id\");\r\n        _;\r\n    }\r\n\r\n    modifier validCitizenIdNumber(uint256 _citizenIdNumber){\r\n        bool is10Digit = bytes(Strings.toString(_citizenIdNumber)).length == 10;\r\n        require(is10Digit, \"Citizen id number must contain 10 digit\");\r\n        _;\r\n    }\r\n\r\n\r\n    modifier onlyOwner(address _sender){\r\n        require(owner == _sender, \"Sender must be the contract creator\");\r\n        _;\r\n    }\r\n\r\n    function isCitizenLandOwner(uint256 _landId, uint256 _citizenId) view private returns(bool){\r\n        uint256 landTrxsLength = landIdToTrxIds[_landId].length;\r\n        uint256[] memory landTrxIds = landIdToTrxIds[_landId];\r\n        landTransferedTrx memory lastLandTrx = landTransferedTrxs[landTrxIds[landTrxsLength - 1]];\r\n        return lastLandTrx.ownerId == _citizenId;\r\n    }\r\n\r\n    function isNewAdminAddressValid(address _newAdmin) private view returns(bool){\r\n        if(_newAdmin == address(0)){\r\n            return false;\r\n        }\r\n        if(_newAdmin != address(_newAdmin)){\r\n            return false;\r\n        }\r\n        bool isNewAdminUnique = addressToAdminId[_newAdmin] == 0;\r\n        if(!isNewAdminUnique){\r\n            return false;\r\n        }\r\n        return true;\r\n\r\n    }\r\n\r\n    function revokeCurrentOwner(uint256 _landId) private{\r\n        uint256 landTrxsLength = landIdToTrxIds[_landId].length;\r\n        uint256 trxOwnerId = landIdToTrxIds[_landId][landTrxsLength - 1];\r\n        uint256 currentOwnerId = landTransferedTrxs[trxOwnerId].ownerId;\r\n\r\n        uint256[] storage ownerTrxIds = citizenIdToOwnedLandTrxIds[currentOwnerId];\r\n        bool isAfterIndex = false;\r\n        for(uint256 i = 0; i < ownerTrxIds.length - 1; i++){\r\n            uint256 currentLandId = landTransferedTrxs[ownerTrxIds[i]].landId;\r\n            if(currentLandId == _landId){\r\n                isAfterIndex = true;\r\n            }\r\n            if(isAfterIndex){\r\n                ownerTrxIds[i] = ownerTrxIds[i + 1];\r\n            }\r\n\r\n        }\r\n        ownerTrxIds.pop();\r\n    }\r\n\r\n    function getCitizenByIdNumber(uint256 _idNumber) external view validCitizenIdNumber(_idNumber) returns(Citizen memory){\r\n        return citizens[idNumbersToCitizenId[_idNumber]];\r\n    }\r\n\r\n    function getLandTrxs(uint256 _landId) external view validLandId(_landId) returns(landTransferedTrx[] memory) {\r\n        uint256[] memory trxIds = landIdToTrxIds[_landId];\r\n        uint256 arrLength = trxIds.length;\r\n        landTransferedTrx[] memory result = new landTransferedTrx[](arrLength);\r\n        for(uint256 i = 0; i < arrLength; i++){\r\n            result[i] = landTransferedTrxs[trxIds[i]];\r\n        }\r\n        return result;\r\n    }\r\n\r\n    function getCitizenOwnedTrxs(uint256 _citizenId) external view validCitizenId(_citizenId) returns(landTransferedTrx[] memory){\r\n        uint256[] memory trxIds = citizenIdToOwnedLandTrxIds[_citizenId];\r\n        uint256 arrLength = trxIds.length;\r\n        landTransferedTrx[] memory result = new landTransferedTrx[](arrLength);\r\n        for(uint256 i = 0; i < arrLength; i++){\r\n            result[i] = landTransferedTrxs[trxIds[i]];\r\n        }\r\n        return result;\r\n    }\r\n\r\n    function publishLand(\r\n        string calldata _description,\r\n        string calldata _landCoordinatorHash\r\n    ) external{\r\n        require(bytes(_landCoordinatorHash).length > 0, \"Land hash specification is required\");\r\n        require(bytes(_description).length > 0, \"Description is required\");\r\n        require(msg.sender != address(0), \"Invalid address\");\r\n\r\n        landCount++;\r\n        uint256 parcelNumber = PARCEL_NUMBER_SEED + landCount;\r\n        string memory landCode = string(abi.encodePacked(TOWNSHIP_CODE, Strings.toString(parcelNumber)));\r\n        uint256 publishDate = block.timestamp;\r\n\r\n        lands[landCount] = Land(\r\n            landCount,\r\n            parcelNumber,\r\n            landCode,\r\n            _description,\r\n            _landCoordinatorHash,\r\n            false,\r\n            msg.sender,\r\n            publishDate\r\n        );\r\n        emit LandPublished(\r\n            landCount,\r\n            parcelNumber,\r\n            landCode,\r\n            _description,\r\n            _landCoordinatorHash,\r\n            false,\r\n            msg.sender,\r\n            publishDate\r\n        );\r\n    }\r\n\r\n    function publishCitizen (\r\n        uint256 _idNumber, string calldata _fullName, Gender _gender, uint256 _dob\r\n    ) external validCitizenIdNumber(_idNumber){\r\n        bool isIdNumberUnique = idNumbersToCitizenId[_idNumber] == 0;\r\n        require(isIdNumberUnique, \"Citizen id number already exist\");\r\n        require(bytes(_fullName).length > 0, \"Full name is required\");\r\n        require(_dob < block.timestamp, \"Invalid dob\");\r\n        citizenCount++;\r\n        uint256 publishDate = block.timestamp;\r\n        citizens[citizenCount] = Citizen(\r\n            citizenCount,\r\n            _idNumber,\r\n            _fullName,\r\n            _gender,\r\n            _dob,\r\n            msg.sender,\r\n            publishDate\r\n        );\r\n        idNumbersToCitizenId[_idNumber] = citizenCount;\r\n\r\n        emit CitizenPublished(\r\n            citizenCount,\r\n            _idNumber,\r\n            _fullName,\r\n            _gender,\r\n            _dob,\r\n            msg.sender,\r\n            publishDate\r\n        );\r\n    }\r\n\r\n    function transferLand(uint256 _landId, uint256 _citizenIdNumber) external validLandId(_landId) validCitizenIdNumber(_citizenIdNumber){\r\n        uint256 citizenId = idNumbersToCitizenId[_citizenIdNumber];\r\n        require(citizenId != 0, \"Citizen id does not exist\");\r\n        uint256 landTrxsLength = landIdToTrxIds[_landId].length;\r\n        if(landTrxsLength > 0){\r\n            if(isCitizenLandOwner(_landId, citizenId)){\r\n                revert(\"Citizen is the current land's owner\");\r\n            }\r\n            revokeCurrentOwner(_landId);\r\n        }\r\n        transactionCount++;\r\n        Land storage land = lands[_landId];\r\n        land.isOccupied = true;\r\n        Citizen storage citizen = citizens[citizenId]; \r\n        landTransferedTrxs[transactionCount] = landTransferedTrx(\r\n            transactionCount,\r\n            citizen.id,\r\n            citizen.idNumber,\r\n            citizen.fullName,\r\n            land.id,\r\n            land.landCode,\r\n            msg.sender,\r\n            block.timestamp\r\n        );\r\n        landIdToTrxIds[_landId].push(transactionCount);\r\n        citizenIdToOwnedLandTrxIds[citizenId].push(transactionCount);\r\n        emit LandTransfer(transactionCount, _landId, citizenId, msg.sender, block.timestamp);\r\n    }\r\n\r\n    function publishAdmin(string memory _title, address _newAdmin) public onlyOwner(msg.sender){\r\n        require(bytes(_title).length > 0, \"Title must not be empty\");\r\n        require(isNewAdminAddressValid(_newAdmin), \"Admin address not valid or aldready exist\");\r\n        adminCount++;\r\n        uint256 adminNumber = ADMIN_NUMBER_SEED + adminCount;\r\n        string memory adminCode = string(abi.encodePacked(ADMIN_CODE, Strings.toString(adminNumber)));\r\n        uint256 publishDate = block.timestamp;\r\n        admins[adminCount] = Admin(adminCount, _title, adminCode, _newAdmin, msg.sender, publishDate); \r\n        addressToAdminId[_newAdmin] = adminCount;\r\n\r\n        emit AdminPublished(adminCount, _title, adminCode, _newAdmin, msg.sender, publishDate);\r\n    }\r\n\r\n    function getAdminByAddress(address _address) external view returns(Admin memory){\r\n        return admins[addressToAdminId[_address]];\r\n    }\r\n\r\n    function checkIsContractOwner(address _address) external view returns(bool){\r\n        return owner == _address;\r\n    }\r\n}",
  "sourcePath": "D:\\Study\\Fourth year\\BACHELOR THESIS\\code\\src\\blockchain\\contracts\\Decentraland.sol",
  "compiler": {
    "name": "solc",
    "version": "0.8.13+commit.abaa5c0e.Emscripten.clang"
  },
  "schemaVersion": "3.4.3",
  "updatedAt": "2022-03-23T03:14:59.952Z",
  "networkType": "ethereum",
  "devdoc": {
    "kind": "dev",
    "methods": {},
    "version": 1
  },
  "userdoc": {
    "kind": "user",
    "methods": {},
    "version": 1
  }
}