{
  "contractName": "Decentraland",
  "abi": [
    {
      "inputs": [],
      "stateMutability": "nonpayable",
      "type": "constructor"
    },
    {
      "anonymous": false,
      "inputs": [
        {
          "indexed": false,
          "internalType": "uint256",
          "name": "id",
          "type": "uint256"
        },
        {
          "indexed": false,
          "internalType": "uint256",
          "name": "idNumber",
          "type": "uint256"
        },
        {
          "indexed": false,
          "internalType": "string",
          "name": "fullName",
          "type": "string"
        },
        {
          "indexed": false,
          "internalType": "enum Decentraland.Gender",
          "name": "gender",
          "type": "uint8"
        },
        {
          "indexed": false,
          "internalType": "uint256",
          "name": "dob",
          "type": "uint256"
        },
        {
          "indexed": false,
          "internalType": "address",
          "name": "publishAdmin",
          "type": "address"
        },
        {
          "indexed": false,
          "internalType": "uint256",
          "name": "publishDate",
          "type": "uint256"
        }
      ],
      "name": "CitizenPublished",
      "type": "event"
    },
    {
      "anonymous": false,
      "inputs": [
        {
          "indexed": false,
          "internalType": "uint256",
          "name": "id",
          "type": "uint256"
        },
        {
          "indexed": false,
          "internalType": "uint256",
          "name": "parcelNumber",
          "type": "uint256"
        },
        {
          "indexed": false,
          "internalType": "string",
          "name": "landCode",
          "type": "string"
        },
        {
          "indexed": false,
          "internalType": "string",
          "name": "description",
          "type": "string"
        },
        {
          "indexed": false,
          "internalType": "string",
          "name": "landCoordinatorHash",
          "type": "string"
        },
        {
          "indexed": false,
          "internalType": "bool",
          "name": "isOccupied",
          "type": "bool"
        },
        {
          "indexed": false,
          "internalType": "address",
          "name": "publishAdmin",
          "type": "address"
        },
        {
          "indexed": false,
          "internalType": "uint256",
          "name": "publishDate",
          "type": "uint256"
        }
      ],
      "name": "LandPublished",
      "type": "event"
    },
    {
      "anonymous": false,
      "inputs": [
        {
          "indexed": false,
          "internalType": "uint256",
          "name": "id",
          "type": "uint256"
        },
        {
          "indexed": false,
          "internalType": "uint256",
          "name": "landId",
          "type": "uint256"
        },
        {
          "indexed": false,
          "internalType": "uint256",
          "name": "ownerId",
          "type": "uint256"
        },
        {
          "indexed": false,
          "internalType": "address",
          "name": "adminAddr",
          "type": "address"
        },
        {
          "indexed": false,
          "internalType": "uint256",
          "name": "trxTime",
          "type": "uint256"
        }
      ],
      "name": "LandTransfer",
      "type": "event"
    },
    {
      "inputs": [],
      "name": "citizenCount",
      "outputs": [
        {
          "internalType": "uint256",
          "name": "",
          "type": "uint256"
        }
      ],
      "stateMutability": "view",
      "type": "function",
      "constant": true
    },
    {
      "inputs": [
        {
          "internalType": "uint256",
          "name": "",
          "type": "uint256"
        }
      ],
      "name": "citizens",
      "outputs": [
        {
          "internalType": "uint256",
          "name": "id",
          "type": "uint256"
        },
        {
          "internalType": "uint256",
          "name": "idNumber",
          "type": "uint256"
        },
        {
          "internalType": "string",
          "name": "fullName",
          "type": "string"
        },
        {
          "internalType": "enum Decentraland.Gender",
          "name": "gender",
          "type": "uint8"
        },
        {
          "internalType": "uint256",
          "name": "dob",
          "type": "uint256"
        },
        {
          "internalType": "address",
          "name": "publishAdmin",
          "type": "address"
        },
        {
          "internalType": "uint256",
          "name": "publishDate",
          "type": "uint256"
        }
      ],
      "stateMutability": "view",
      "type": "function",
      "constant": true
    },
    {
      "inputs": [
        {
          "internalType": "uint256",
          "name": "",
          "type": "uint256"
        }
      ],
      "name": "idNumbersToCitizenId",
      "outputs": [
        {
          "internalType": "uint256",
          "name": "",
          "type": "uint256"
        }
      ],
      "stateMutability": "view",
      "type": "function",
      "constant": true
    },
    {
      "inputs": [],
      "name": "landCount",
      "outputs": [
        {
          "internalType": "uint256",
          "name": "",
          "type": "uint256"
        }
      ],
      "stateMutability": "view",
      "type": "function",
      "constant": true
    },
    {
      "inputs": [
        {
          "internalType": "uint256",
          "name": "",
          "type": "uint256"
        }
      ],
      "name": "landTransferedTrxs",
      "outputs": [
        {
          "internalType": "uint256",
          "name": "id",
          "type": "uint256"
        },
        {
          "internalType": "uint256",
          "name": "ownerId",
          "type": "uint256"
        },
        {
          "internalType": "uint256",
          "name": "ownerIdNumber",
          "type": "uint256"
        },
        {
          "internalType": "string",
          "name": "ownerFullname",
          "type": "string"
        },
        {
          "internalType": "uint256",
          "name": "landId",
          "type": "uint256"
        },
        {
          "internalType": "string",
          "name": "landCode",
          "type": "string"
        },
        {
          "internalType": "address",
          "name": "admin",
          "type": "address"
        },
        {
          "internalType": "uint256",
          "name": "transferDate",
          "type": "uint256"
        }
      ],
      "stateMutability": "view",
      "type": "function",
      "constant": true
    },
    {
      "inputs": [
        {
          "internalType": "uint256",
          "name": "",
          "type": "uint256"
        }
      ],
      "name": "lands",
      "outputs": [
        {
          "internalType": "uint256",
          "name": "id",
          "type": "uint256"
        },
        {
          "internalType": "uint256",
          "name": "parcelNumber",
          "type": "uint256"
        },
        {
          "internalType": "string",
          "name": "landCode",
          "type": "string"
        },
        {
          "internalType": "string",
          "name": "description",
          "type": "string"
        },
        {
          "internalType": "string",
          "name": "landCoordinatorHash",
          "type": "string"
        },
        {
          "internalType": "bool",
          "name": "isOccupied",
          "type": "bool"
        },
        {
          "internalType": "address",
          "name": "publishAdmin",
          "type": "address"
        },
        {
          "internalType": "uint256",
          "name": "publishDate",
          "type": "uint256"
        }
      ],
      "stateMutability": "view",
      "type": "function",
      "constant": true
    },
    {
      "inputs": [],
      "name": "name",
      "outputs": [
        {
          "internalType": "string",
          "name": "",
          "type": "string"
        }
      ],
      "stateMutability": "view",
      "type": "function",
      "constant": true
    },
    {
      "inputs": [],
      "name": "owner",
      "outputs": [
        {
          "internalType": "address",
          "name": "",
          "type": "address"
        }
      ],
      "stateMutability": "view",
      "type": "function",
      "constant": true
    },
    {
      "inputs": [
        {
          "internalType": "uint256",
          "name": "_idNumber",
          "type": "uint256"
        }
      ],
      "name": "getCitizenByIdNumber",
      "outputs": [
        {
          "components": [
            {
              "internalType": "uint256",
              "name": "id",
              "type": "uint256"
            },
            {
              "internalType": "uint256",
              "name": "idNumber",
              "type": "uint256"
            },
            {
              "internalType": "string",
              "name": "fullName",
              "type": "string"
            },
            {
              "internalType": "enum Decentraland.Gender",
              "name": "gender",
              "type": "uint8"
            },
            {
              "internalType": "uint256",
              "name": "dob",
              "type": "uint256"
            },
            {
              "internalType": "address",
              "name": "publishAdmin",
              "type": "address"
            },
            {
              "internalType": "uint256",
              "name": "publishDate",
              "type": "uint256"
            }
          ],
          "internalType": "struct Decentraland.Citizen",
          "name": "",
          "type": "tuple"
        }
      ],
      "stateMutability": "view",
      "type": "function",
      "constant": true
    },
    {
      "inputs": [
        {
          "internalType": "uint256",
          "name": "_landId",
          "type": "uint256"
        }
      ],
      "name": "getLandTrxs",
      "outputs": [
        {
          "components": [
            {
              "internalType": "uint256",
              "name": "id",
              "type": "uint256"
            },
            {
              "internalType": "uint256",
              "name": "ownerId",
              "type": "uint256"
            },
            {
              "internalType": "uint256",
              "name": "ownerIdNumber",
              "type": "uint256"
            },
            {
              "internalType": "string",
              "name": "ownerFullname",
              "type": "string"
            },
            {
              "internalType": "uint256",
              "name": "landId",
              "type": "uint256"
            },
            {
              "internalType": "string",
              "name": "landCode",
              "type": "string"
            },
            {
              "internalType": "address",
              "name": "admin",
              "type": "address"
            },
            {
              "internalType": "uint256",
              "name": "transferDate",
              "type": "uint256"
            }
          ],
          "internalType": "struct Decentraland.landTransferedTrx[]",
          "name": "",
          "type": "tuple[]"
        }
      ],
      "stateMutability": "view",
      "type": "function",
      "constant": true
    },
    {
      "inputs": [
        {
          "internalType": "uint256",
          "name": "_citizenId",
          "type": "uint256"
        }
      ],
      "name": "getCitizenOwnedTrxs",
      "outputs": [
        {
          "components": [
            {
              "internalType": "uint256",
              "name": "id",
              "type": "uint256"
            },
            {
              "internalType": "uint256",
              "name": "ownerId",
              "type": "uint256"
            },
            {
              "internalType": "uint256",
              "name": "ownerIdNumber",
              "type": "uint256"
            },
            {
              "internalType": "string",
              "name": "ownerFullname",
              "type": "string"
            },
            {
              "internalType": "uint256",
              "name": "landId",
              "type": "uint256"
            },
            {
              "internalType": "string",
              "name": "landCode",
              "type": "string"
            },
            {
              "internalType": "address",
              "name": "admin",
              "type": "address"
            },
            {
              "internalType": "uint256",
              "name": "transferDate",
              "type": "uint256"
            }
          ],
          "internalType": "struct Decentraland.landTransferedTrx[]",
          "name": "",
          "type": "tuple[]"
        }
      ],
      "stateMutability": "view",
      "type": "function",
      "constant": true
    },
    {
      "inputs": [
        {
          "internalType": "string",
          "name": "_description",
          "type": "string"
        },
        {
          "internalType": "string",
          "name": "_landCoordinatorHash",
          "type": "string"
        }
      ],
      "name": "publishLand",
      "outputs": [],
      "stateMutability": "nonpayable",
      "type": "function"
    },
    {
      "inputs": [
        {
          "internalType": "uint256",
          "name": "_idNumber",
          "type": "uint256"
        },
        {
          "internalType": "string",
          "name": "_fullName",
          "type": "string"
        },
        {
          "internalType": "enum Decentraland.Gender",
          "name": "_gender",
          "type": "uint8"
        },
        {
          "internalType": "uint256",
          "name": "_dob",
          "type": "uint256"
        }
      ],
      "name": "publishCitizen",
      "outputs": [],
      "stateMutability": "nonpayable",
      "type": "function"
    },
    {
      "inputs": [
        {
          "internalType": "uint256",
          "name": "_landId",
          "type": "uint256"
        },
        {
          "internalType": "uint256",
          "name": "_citizenIdNumber",
          "type": "uint256"
        }
      ],
      "name": "transferLand",
      "outputs": [],
      "stateMutability": "nonpayable",
      "type": "function"
    }
  ],
  "bytecode": "0x608060405261138860015560006002556000600355600060045534801561002557600080fd5b50336000806101000a81548173ffffffffffffffffffffffffffffffffffffffff021916908373ffffffffffffffffffffffffffffffffffffffff1602179055506134b3806100756000396000f3fe608060405234801561001057600080fd5b50600436106100ea5760003560e01c8063bba8f58d1161008c578063c98a496f11610066578063c98a496f14610277578063d7bce658146102ae578063e261f1e5146102cc578063f8937fb814610303576100ea565b8063bba8f58d146101fb578063c6c6b98d1461022b578063c75669501461025b576100ea565b80633ce8e513116100c85780633ce8e513146101735780635b4c777d146101a35780638da5cb5b146101c1578063b6a8fe09146101df576100ea565b806306fdde03146100ef57806309a34f001461010d5780632ef5c4fb14610143575b600080fd5b6100f761031f565b6040516101049190612375565b60405180910390f35b610127600480360381019061012291906123d7565b610358565b60405161013a97969594939291906124cb565b60405180910390f35b61015d600480360381019061015891906123d7565b61044f565b60405161016a9190612722565b60405180910390f35b61018d600480360381019061018891906123d7565b610795565b60405161019a9190612744565b60405180910390f35b6101ab6107ad565b6040516101b89190612744565b60405180910390f35b6101c96107b3565b6040516101d6919061275f565b60405180910390f35b6101f960048036038101906101f491906127df565b6107d7565b005b610215600480360381019061021091906123d7565b610b8d565b604051610222919061290b565b60405180910390f35b610245600480360381019061024091906123d7565b610d6c565b6040516102529190612722565b60405180910390f35b6102756004803603810190610270919061292d565b6110b2565b005b610291600480360381019061028c91906123d7565b61154e565b6040516102a598979695949392919061296d565b60405180910390f35b6102b66116c6565b6040516102c39190612744565b60405180910390f35b6102e660048036038101906102e191906123d7565b6116cc565b6040516102fa989796959493929190612a14565b60405180910390f35b61031d60048036038101906103189190612acc565b6118d9565b005b6040518060400160405280600c81526020017f446563656e7472616c616e64000000000000000000000000000000000000000081525081565b600660205280600052604060002060009150905080600001549080600101549080600201805461038790612b83565b80601f01602080910402602001604051908101604052809291908181526020018280546103b390612b83565b80156104005780601f106103d557610100808354040283529160200191610400565b820191906000526020600020905b8154815290600101906020018083116103e357829003601f168201915b5050505050908060030160009054906101000a900460ff16908060040154908060050160009054906101000a900473ffffffffffffffffffffffffffffffffffffffff16908060060154905087565b60608160008111801561046457506003548111155b6104a3576040517f08c379a000000000000000000000000000000000000000000000000000000000815260040161049a90612c01565b60405180910390fd5b6000600a600085815260200190815260200160002080548060200260200160405190810160405280929190818152602001828054801561050257602002820191906000526020600020905b8154815260200190600101908083116104ee575b5050505050905060008151905060008167ffffffffffffffff81111561052b5761052a612c21565b5b60405190808252806020026020018201604052801561056457816020015b610551612179565b8152602001906001900390816105495790505b50905060005b82811015610788576008600085838151811061058957610588612c50565b5b60200260200101518152602001908152602001600020604051806101000160405290816000820154815260200160018201548152602001600282015481526020016003820180546105d990612b83565b80601f016020809104026020016040519081016040528092919081815260200182805461060590612b83565b80156106525780601f1061062757610100808354040283529160200191610652565b820191906000526020600020905b81548152906001019060200180831161063557829003601f168201915b505050505081526020016004820154815260200160058201805461067590612b83565b80601f01602080910402602001604051908101604052809291908181526020018280546106a190612b83565b80156106ee5780601f106106c3576101008083540402835291602001916106ee565b820191906000526020600020905b8154815290600101906020018083116106d157829003601f168201915b505050505081526020016006820160009054906101000a900473ffffffffffffffffffffffffffffffffffffffff1673ffffffffffffffffffffffffffffffffffffffff1673ffffffffffffffffffffffffffffffffffffffff16815260200160078201548152505082828151811061076a57610769612c50565b5b6020026020010181905250808061078090612cae565b91505061056a565b5080945050505050919050565b60076020528060005260406000206000915090505481565b60035481565b60008054906101000a900473ffffffffffffffffffffffffffffffffffffffff1681565b6000828290501161081d576040517f08c379a000000000000000000000000000000000000000000000000000000000815260040161081490612d69565b60405180910390fd5b60008484905011610863576040517f08c379a000000000000000000000000000000000000000000000000000000000815260040161085a90612dd5565b60405180910390fd5b600073ffffffffffffffffffffffffffffffffffffffff163373ffffffffffffffffffffffffffffffffffffffff1614156108d3576040517f08c379a00000000000000000000000000000000000000000000000000000000081526004016108ca90612e41565b60405180910390fd5b600260008154809291906108e690612cae565b919050555060006002546001546108fd9190612e61565b905060006040518060400160405280600381526020017f415344000000000000000000000000000000000000000000000000000000000081525061094083611c0b565b604051602001610951929190612ef3565b60405160208183030381529060405290506000429050604051806101000160405280600254815260200184815260200183815260200188888080601f016020809104026020016040519081016040528093929190818152602001838380828437600081840152601f19601f82011690508083019250505050505050815260200186868080601f016020809104026020016040519081016040528093929190818152602001838380828437600081840152601f19601f8201169050808301925050505050505081526020016000151581526020013373ffffffffffffffffffffffffffffffffffffffff1681526020018281525060056000600254815260200190815260200160002060008201518160000155602082015181600101556040820151816002019080519060200190610a899291906121d4565b506060820151816003019080519060200190610aa69291906121d4565b506080820151816004019080519060200190610ac39291906121d4565b5060a08201518160050160006101000a81548160ff02191690831515021790555060c08201518160050160016101000a81548173ffffffffffffffffffffffffffffffffffffffff021916908373ffffffffffffffffffffffffffffffffffffffff16021790555060e082015181600601559050507f65e024500d3a8772624bf394e514747f2718ca783604900949638998f5291d3b60025484848a8a8a8a6000338a604051610b7c9a99989796959493929190612f53565b60405180910390a150505050505050565b610b9561225a565b816000600a610ba383611c0b565b5114905080610be7576040517f08c379a0000000000000000000000000000000000000000000000000000000008152600401610bde9061305c565b60405180910390fd5b60066000600760008781526020019081526020016000205481526020019081526020016000206040518060e00160405290816000820154815260200160018201548152602001600282018054610c3c90612b83565b80601f0160208091040260200160405190810160405280929190818152602001828054610c6890612b83565b8015610cb55780601f10610c8a57610100808354040283529160200191610cb5565b820191906000526020600020905b815481529060010190602001808311610c9857829003601f168201915b505050505081526020016003820160009054906101000a900460ff166001811115610ce357610ce2612413565b5b6001811115610cf557610cf4612413565b5b8152602001600482015481526020016005820160009054906101000a900473ffffffffffffffffffffffffffffffffffffffff1673ffffffffffffffffffffffffffffffffffffffff1673ffffffffffffffffffffffffffffffffffffffff16815260200160068201548152505092505050919050565b606081600081118015610d8157506002548111155b610dc0576040517f08c379a0000000000000000000000000000000000000000000000000000000008152600401610db7906130c8565b60405180910390fd5b600060096000858152602001908152602001600020805480602002602001604051908101604052809291908181526020018280548015610e1f57602002820191906000526020600020905b815481526020019060010190808311610e0b575b5050505050905060008151905060008167ffffffffffffffff811115610e4857610e47612c21565b5b604051908082528060200260200182016040528015610e8157816020015b610e6e612179565b815260200190600190039081610e665790505b50905060005b828110156110a55760086000858381518110610ea657610ea5612c50565b5b6020026020010151815260200190815260200160002060405180610100016040529081600082015481526020016001820154815260200160028201548152602001600382018054610ef690612b83565b80601f0160208091040260200160405190810160405280929190818152602001828054610f2290612b83565b8015610f6f5780601f10610f4457610100808354040283529160200191610f6f565b820191906000526020600020905b815481529060010190602001808311610f5257829003601f168201915b5050505050815260200160048201548152602001600582018054610f9290612b83565b80601f0160208091040260200160405190810160405280929190818152602001828054610fbe90612b83565b801561100b5780601f10610fe05761010080835404028352916020019161100b565b820191906000526020600020905b815481529060010190602001808311610fee57829003601f168201915b505050505081526020016006820160009054906101000a900473ffffffffffffffffffffffffffffffffffffffff1673ffffffffffffffffffffffffffffffffffffffff1673ffffffffffffffffffffffffffffffffffffffff16815260200160078201548152505082828151811061108757611086612c50565b5b6020026020010181905250808061109d90612cae565b915050610e87565b5080945050505050919050565b816000811180156110c557506002548111155b611104576040517f08c379a00000000000000000000000000000000000000000000000000000000081526004016110fb906130c8565b60405180910390fd5b816000600a61111283611c0b565b5114905080611156576040517f08c379a000000000000000000000000000000000000000000000000000000000815260040161114d9061305c565b60405180910390fd5b60006007600086815260200190815260200160002054905060006009600088815260200190815260200160002080549050905060008111156111e65761119c8783611d6c565b156111dc576040517f08c379a00000000000000000000000000000000000000000000000000000000081526004016111d39061315a565b60405180910390fd5b6111e587611ff5565b5b600460008154809291906111f990612cae565b9190505550600060056000898152602001908152602001600020905060018160050160006101000a81548160ff02191690831515021790555060006006600085815260200190815260200160002090506040518061010001604052806004548152602001826000015481526020018260010154815260200182600201805461128090612b83565b80601f01602080910402602001604051908101604052809291908181526020018280546112ac90612b83565b80156112f95780601f106112ce576101008083540402835291602001916112f9565b820191906000526020600020905b8154815290600101906020018083116112dc57829003601f168201915b505050505081526020018360000154815260200183600201805461131c90612b83565b80601f016020809104026020016040519081016040528092919081815260200182805461134890612b83565b80156113955780601f1061136a57610100808354040283529160200191611395565b820191906000526020600020905b81548152906001019060200180831161137857829003601f168201915b505050505081526020013373ffffffffffffffffffffffffffffffffffffffff16815260200142815250600860006004548152602001908152602001600020600082015181600001556020820151816001015560408201518160020155606082015181600301908051906020019061140e9291906121d4565b506080820151816004015560a08201518160050190805190602001906114359291906121d4565b5060c08201518160060160006101000a81548173ffffffffffffffffffffffffffffffffffffffff021916908373ffffffffffffffffffffffffffffffffffffffff16021790555060e08201518160070155905050600960008a81526020019081526020016000206004549080600181540180825580915050600190039060005260206000200160009091909190915055600a600085815260200190815260200160002060045490806001815401808255809150506001900390600052602060002001600090919091909150557f614b70eeb7f5cdc74e56cf37e259524ac64676dfdf177d611e8f74b707f64c0a6004548a86334260405161153b95949392919061317a565b60405180910390a1505050505050505050565b600860205280600052604060002060009150905080600001549080600101549080600201549080600301805461158390612b83565b80601f01602080910402602001604051908101604052809291908181526020018280546115af90612b83565b80156115fc5780601f106115d1576101008083540402835291602001916115fc565b820191906000526020600020905b8154815290600101906020018083116115df57829003601f168201915b50505050509080600401549080600501805461161790612b83565b80601f016020809104026020016040519081016040528092919081815260200182805461164390612b83565b80156116905780601f1061166557610100808354040283529160200191611690565b820191906000526020600020905b81548152906001019060200180831161167357829003601f168201915b5050505050908060060160009054906101000a900473ffffffffffffffffffffffffffffffffffffffff16908060070154905088565b60025481565b60056020528060005260406000206000915090508060000154908060010154908060020180546116fb90612b83565b80601f016020809104026020016040519081016040528092919081815260200182805461172790612b83565b80156117745780601f1061174957610100808354040283529160200191611774565b820191906000526020600020905b81548152906001019060200180831161175757829003601f168201915b50505050509080600301805461178990612b83565b80601f01602080910402602001604051908101604052809291908181526020018280546117b590612b83565b80156118025780601f106117d757610100808354040283529160200191611802565b820191906000526020600020905b8154815290600101906020018083116117e557829003601f168201915b50505050509080600401805461181790612b83565b80601f016020809104026020016040519081016040528092919081815260200182805461184390612b83565b80156118905780601f1061186557610100808354040283529160200191611890565b820191906000526020600020905b81548152906001019060200180831161187357829003601f168201915b5050505050908060050160009054906101000a900460ff16908060050160019054906101000a900473ffffffffffffffffffffffffffffffffffffffff16908060060154905088565b846000600a6118e783611c0b565b511490508061192b576040517f08c379a00000000000000000000000000000000000000000000000000000000081526004016119229061305c565b60405180910390fd5b600080600760008a81526020019081526020016000205414905080611985576040517f08c379a000000000000000000000000000000000000000000000000000000000815260040161197c90613219565b60405180910390fd5b600087879050116119cb576040517f08c379a00000000000000000000000000000000000000000000000000000000081526004016119c290613285565b60405180910390fd5b428410611a0d576040517f08c379a0000000000000000000000000000000000000000000000000000000008152600401611a04906132f1565b60405180910390fd5b60036000815480929190611a2090612cae565b919050555060004290506040518060e0016040528060035481526020018a815260200189898080601f016020809104026020016040519081016040528093929190818152602001838380828437600081840152601f19601f820116905080830192505050505050508152602001876001811115611aa057611a9f612413565b5b81526020018681526020013373ffffffffffffffffffffffffffffffffffffffff1681526020018281525060066000600354815260200190815260200160002060008201518160000155602082015181600101556040820151816002019080519060200190611b109291906121d4565b5060608201518160030160006101000a81548160ff02191690836001811115611b3c57611b3b612413565b5b02179055506080820151816004015560a08201518160050160006101000a81548173ffffffffffffffffffffffffffffffffffffffff021916908373ffffffffffffffffffffffffffffffffffffffff16021790555060c08201518160060155905050600354600760008b8152602001908152602001600020819055507f9e452ff4b2f83dd156b789a1890a80b05cca0d5160993b984f6828013fff01166003548a8a8a8a8a3388604051611bf8989796959493929190613311565b60405180910390a1505050505050505050565b60606000821415611c53576040518060400160405280600181526020017f30000000000000000000000000000000000000000000000000000000000000008152509050611d67565b600082905060005b60008214611c85578080611c6e90612cae565b915050600a82611c7e91906133b8565b9150611c5b565b60008167ffffffffffffffff811115611ca157611ca0612c21565b5b6040519080825280601f01601f191660200182016040528015611cd35781602001600182028036833780820191505090505b5090505b60008514611d6057600182611cec91906133e9565b9150600a85611cfb919061341d565b6030611d079190612e61565b60f81b818381518110611d1d57611d1c612c50565b5b60200101907effffffffffffffffffffffffffffffffffffffffffffffffffffffffffffff1916908160001a905350600a85611d5991906133b8565b9450611cd7565b8093505050505b919050565b60008060096000858152602001908152602001600020805490509050600060096000868152602001908152602001600020805480602002602001604051908101604052809291908181526020018280548015611de757602002820191906000526020600020905b815481526020019060010190808311611dd3575b5050505050905060006008600083600186611e0291906133e9565b81518110611e1357611e12612c50565b5b6020026020010151815260200190815260200160002060405180610100016040529081600082015481526020016001820154815260200160028201548152602001600382018054611e6390612b83565b80601f0160208091040260200160405190810160405280929190818152602001828054611e8f90612b83565b8015611edc5780601f10611eb157610100808354040283529160200191611edc565b820191906000526020600020905b815481529060010190602001808311611ebf57829003601f168201915b5050505050815260200160048201548152602001600582018054611eff90612b83565b80601f0160208091040260200160405190810160405280929190818152602001828054611f2b90612b83565b8015611f785780601f10611f4d57610100808354040283529160200191611f78565b820191906000526020600020905b815481529060010190602001808311611f5b57829003601f168201915b505050505081526020016006820160009054906101000a900473ffffffffffffffffffffffffffffffffffffffff1673ffffffffffffffffffffffffffffffffffffffff1673ffffffffffffffffffffffffffffffffffffffff168152602001600782015481525050905084816020015114935050505092915050565b60006009600083815260200190815260200160002080549050905060006009600084815260200190815260200160002060018361203291906133e9565b8154811061204357612042612c50565b5b906000526020600020015490506000600860008381526020019081526020016000206001015490506000600a600083815260200190815260200160002090506000805b6001838054905061209791906133e9565b811015612149576000600860008584815481106120b7576120b6612c50565b5b90600052602060002001548152602001908152602001600020600401549050878114156120e357600192505b821561213557836001836120f79190612e61565b8154811061210857612107612c50565b5b906000526020600020015484838154811061212657612125612c50565b5b90600052602060002001819055505b50808061214190612cae565b915050612086565b508180548061215b5761215a61344e565b5b60019003818190600052602060002001600090559055505050505050565b604051806101000160405280600081526020016000815260200160008152602001606081526020016000815260200160608152602001600073ffffffffffffffffffffffffffffffffffffffff168152602001600081525090565b8280546121e090612b83565b90600052602060002090601f0160209004810192826122025760008555612249565b82601f1061221b57805160ff1916838001178555612249565b82800160010185558215612249579182015b8281111561224857825182559160200191906001019061222d565b5b50905061225691906122bf565b5090565b6040518060e001604052806000815260200160008152602001606081526020016000600181111561228e5761228d612413565b5b815260200160008152602001600073ffffffffffffffffffffffffffffffffffffffff168152602001600081525090565b5b808211156122d85760008160009055506001016122c0565b5090565b600081519050919050565b600082825260208201905092915050565b60005b838110156123165780820151818401526020810190506122fb565b83811115612325576000848401525b50505050565b6000601f19601f8301169050919050565b6000612347826122dc565b61235181856122e7565b93506123618185602086016122f8565b61236a8161232b565b840191505092915050565b6000602082019050818103600083015261238f818461233c565b905092915050565b600080fd5b600080fd5b6000819050919050565b6123b4816123a1565b81146123bf57600080fd5b50565b6000813590506123d1816123ab565b92915050565b6000602082840312156123ed576123ec612397565b5b60006123fb848285016123c2565b91505092915050565b61240d816123a1565b82525050565b7f4e487b7100000000000000000000000000000000000000000000000000000000600052602160045260246000fd5b6002811061245357612452612413565b5b50565b600081905061246482612442565b919050565b600061247482612456565b9050919050565b61248481612469565b82525050565b600073ffffffffffffffffffffffffffffffffffffffff82169050919050565b60006124b58261248a565b9050919050565b6124c5816124aa565b82525050565b600060e0820190506124e0600083018a612404565b6124ed6020830189612404565b81810360408301526124ff818861233c565b905061250e606083018761247b565b61251b6080830186612404565b61252860a08301856124bc565b61253560c0830184612404565b98975050505050505050565b600081519050919050565b600082825260208201905092915050565b6000819050602082019050919050565b612576816123a1565b82525050565b600082825260208201905092915050565b6000612598826122dc565b6125a2818561257c565b93506125b28185602086016122f8565b6125bb8161232b565b840191505092915050565b6125cf816124aa565b82525050565b6000610100830160008301516125ee600086018261256d565b506020830151612601602086018261256d565b506040830151612614604086018261256d565b506060830151848203606086015261262c828261258d565b9150506080830151612641608086018261256d565b5060a083015184820360a0860152612659828261258d565b91505060c083015161266e60c08601826125c6565b5060e083015161268160e086018261256d565b508091505092915050565b600061269883836125d5565b905092915050565b6000602082019050919050565b60006126b882612541565b6126c2818561254c565b9350836020820285016126d48561255d565b8060005b8581101561271057848403895281516126f1858261268c565b94506126fc836126a0565b925060208a019950506001810190506126d8565b50829750879550505050505092915050565b6000602082019050818103600083015261273c81846126ad565b905092915050565b60006020820190506127596000830184612404565b92915050565b600060208201905061277460008301846124bc565b92915050565b600080fd5b600080fd5b600080fd5b60008083601f84011261279f5761279e61277a565b5b8235905067ffffffffffffffff8111156127bc576127bb61277f565b5b6020830191508360018202830111156127d8576127d7612784565b5b9250929050565b600080600080604085870312156127f9576127f8612397565b5b600085013567ffffffffffffffff8111156128175761281661239c565b5b61282387828801612789565b9450945050602085013567ffffffffffffffff8111156128465761284561239c565b5b61285287828801612789565b925092505092959194509250565b61286981612469565b82525050565b600060e083016000830151612887600086018261256d565b50602083015161289a602086018261256d565b50604083015184820360408601526128b2828261258d565b91505060608301516128c76060860182612860565b5060808301516128da608086018261256d565b5060a08301516128ed60a08601826125c6565b5060c083015161290060c086018261256d565b508091505092915050565b60006020820190508181036000830152612925818461286f565b905092915050565b6000806040838503121561294457612943612397565b5b6000612952858286016123c2565b9250506020612963858286016123c2565b9150509250929050565b600061010082019050612983600083018b612404565b612990602083018a612404565b61299d6040830189612404565b81810360608301526129af818861233c565b90506129be6080830187612404565b81810360a08301526129d0818661233c565b90506129df60c08301856124bc565b6129ec60e0830184612404565b9998505050505050505050565b60008115159050919050565b612a0e816129f9565b82525050565b600061010082019050612a2a600083018b612404565b612a37602083018a612404565b8181036040830152612a49818961233c565b90508181036060830152612a5d818861233c565b90508181036080830152612a71818761233c565b9050612a8060a0830186612a05565b612a8d60c08301856124bc565b612a9a60e0830184612404565b9998505050505050505050565b60028110612ab457600080fd5b50565b600081359050612ac681612aa7565b92915050565b600080600080600060808688031215612ae857612ae7612397565b5b6000612af6888289016123c2565b955050602086013567ffffffffffffffff811115612b1757612b1661239c565b5b612b2388828901612789565b94509450506040612b3688828901612ab7565b9250506060612b47888289016123c2565b9150509295509295909350565b7f4e487b7100000000000000000000000000000000000000000000000000000000600052602260045260246000fd5b60006002820490506001821680612b9b57607f821691505b60208210811415612baf57612bae612b54565b5b50919050565b7f496e76616c696420636974697a656e2069640000000000000000000000000000600082015250565b6000612beb6012836122e7565b9150612bf682612bb5565b602082019050919050565b60006020820190508181036000830152612c1a81612bde565b9050919050565b7f4e487b7100000000000000000000000000000000000000000000000000000000600052604160045260246000fd5b7f4e487b7100000000000000000000000000000000000000000000000000000000600052603260045260246000fd5b7f4e487b7100000000000000000000000000000000000000000000000000000000600052601160045260246000fd5b6000612cb9826123a1565b91507fffffffffffffffffffffffffffffffffffffffffffffffffffffffffffffffff821415612cec57612ceb612c7f565b5b600182019050919050565b7f4c616e6420686173682073706563696669636174696f6e20697320726571756960008201527f7265640000000000000000000000000000000000000000000000000000000000602082015250565b6000612d536023836122e7565b9150612d5e82612cf7565b604082019050919050565b60006020820190508181036000830152612d8281612d46565b9050919050565b7f4465736372697074696f6e206973207265717569726564000000000000000000600082015250565b6000612dbf6017836122e7565b9150612dca82612d89565b602082019050919050565b60006020820190508181036000830152612dee81612db2565b9050919050565b7f496e76616c696420616464726573730000000000000000000000000000000000600082015250565b6000612e2b600f836122e7565b9150612e3682612df5565b602082019050919050565b60006020820190508181036000830152612e5a81612e1e565b9050919050565b6000612e6c826123a1565b9150612e77836123a1565b9250827fffffffffffffffffffffffffffffffffffffffffffffffffffffffffffffffff03821115612eac57612eab612c7f565b5b828201905092915050565b600081905092915050565b6000612ecd826122dc565b612ed78185612eb7565b9350612ee78185602086016122f8565b80840191505092915050565b6000612eff8285612ec2565b9150612f0b8284612ec2565b91508190509392505050565b82818337600083830152505050565b6000612f3283856122e7565b9350612f3f838584612f17565b612f488361232b565b840190509392505050565b600061010082019050612f69600083018d612404565b612f76602083018c612404565b8181036040830152612f88818b61233c565b90508181036060830152612f9d81898b612f26565b90508181036080830152612fb2818789612f26565b9050612fc160a0830186612a05565b612fce60c08301856124bc565b612fdb60e0830184612404565b9b9a5050505050505050505050565b7f436974697a656e206964206e756d626572206d75737420636f6e7461696e203160008201527f3020646967697400000000000000000000000000000000000000000000000000602082015250565b60006130466027836122e7565b915061305182612fea565b604082019050919050565b6000602082019050818103600083015261307581613039565b9050919050565b7f496e76616c6964206c616e642069640000000000000000000000000000000000600082015250565b60006130b2600f836122e7565b91506130bd8261307c565b602082019050919050565b600060208201905081810360008301526130e1816130a5565b9050919050565b7f436974697a656e206973207468652063757272656e74206c616e642773206f7760008201527f6e65720000000000000000000000000000000000000000000000000000000000602082015250565b60006131446023836122e7565b915061314f826130e8565b604082019050919050565b6000602082019050818103600083015261317381613137565b9050919050565b600060a08201905061318f6000830188612404565b61319c6020830187612404565b6131a96040830186612404565b6131b660608301856124bc565b6131c36080830184612404565b9695505050505050565b7f436974697a656e206964206e756d62657220616c726561647920657869737400600082015250565b6000613203601f836122e7565b915061320e826131cd565b602082019050919050565b60006020820190508181036000830152613232816131f6565b9050919050565b7f46756c6c206e616d652069732072657175697265640000000000000000000000600082015250565b600061326f6015836122e7565b915061327a82613239565b602082019050919050565b6000602082019050818103600083015261329e81613262565b9050919050565b7f496e76616c696420646f62000000000000000000000000000000000000000000600082015250565b60006132db600b836122e7565b91506132e6826132a5565b602082019050919050565b6000602082019050818103600083015261330a816132ce565b9050919050565b600060e082019050613326600083018b612404565b613333602083018a612404565b818103604083015261334681888a612f26565b9050613355606083018761247b565b6133626080830186612404565b61336f60a08301856124bc565b61337c60c0830184612404565b9998505050505050505050565b7f4e487b7100000000000000000000000000000000000000000000000000000000600052601260045260246000fd5b60006133c3826123a1565b91506133ce836123a1565b9250826133de576133dd613389565b5b828204905092915050565b60006133f4826123a1565b91506133ff836123a1565b92508282101561341257613411612c7f565b5b828203905092915050565b6000613428826123a1565b9150613433836123a1565b92508261344357613442613389565b5b828206905092915050565b7f4e487b7100000000000000000000000000000000000000000000000000000000600052603160045260246000fdfea2646970667358221220fa85804582d766e42b33f1a57c6399e5d41634831fb26997afd93b4a42ffa95764736f6c634300080c0033",
  "immutableReferences": {},
  "source": "// SPDX-License-Identifier: MIT\r\npragma solidity ^0.8.0;\r\n\r\nimport \"@openzeppelin/contracts/utils/Strings.sol\";\r\n\r\ncontract Decentraland{\r\n    enum Gender{MALE, FEMALE}\r\n\r\n    struct Land{\r\n        uint256 id;\r\n        uint256 parcelNumber;\r\n        string landCode;\r\n        string description;\r\n        string landCoordinatorHash;\r\n        bool isOccupied;\r\n        address publishAdmin;\r\n        uint256 publishDate;\r\n    }\r\n\r\n    struct Citizen{\r\n        uint256 id;\r\n        uint256 idNumber;\r\n        string fullName;\r\n        Gender gender;\r\n        uint256 dob;\r\n        address publishAdmin;\r\n        uint256 publishDate;\r\n    }\r\n\r\n    struct landTransferedTrx{\r\n        uint256 id;\r\n        uint256 ownerId;\r\n        uint256 ownerIdNumber;\r\n        string ownerFullname;\r\n        uint256 landId;\r\n        string landCode;\r\n        address admin;\r\n        uint256 transferDate;\r\n    }\r\n\r\n    event LandPublished(\r\n        uint256 id,\r\n        uint256 parcelNumber,\r\n        string landCode,\r\n        string description,\r\n        string landCoordinatorHash,\r\n        bool isOccupied,\r\n        address publishAdmin,\r\n        uint256 publishDate\r\n    );\r\n\r\n    event CitizenPublished(\r\n        uint256 id,\r\n        uint256 idNumber,\r\n        string fullName,\r\n        Gender gender,\r\n        uint256 dob,\r\n        address publishAdmin,\r\n        uint256 publishDate\r\n    );\r\n\r\n    event LandTransfer(\r\n        uint256 id,\r\n        uint256 landId,\r\n        uint256 ownerId,\r\n        address adminAddr,\r\n        uint256 trxTime\r\n    );\r\n\r\n    string public constant name = \"Decentraland\";\r\n    string private constant townshipCode = \"ASD\";\r\n    address public owner;\r\n    uint256 private parcelNumberSeed = 5000;\r\n    uint256 public landCount = 0;\r\n    uint256 public citizenCount = 0;\r\n    uint256 private transactionCount = 0;\r\n    mapping(uint256 => Land) public lands;\r\n    mapping(uint256 => Citizen) public citizens;\r\n    mapping(uint256 => uint256) public idNumbersToCitizenId;\r\n    mapping(uint256 => landTransferedTrx) public landTransferedTrxs;\r\n    mapping(uint256 => uint256[]) private landIdToTrxIds;\r\n    mapping(uint256 => uint256[]) private citizenIdToOwnedLandTrxIds;\r\n\r\n    constructor(){\r\n        owner = msg.sender;\r\n    }\r\n\r\n    modifier validLandId(uint256 _landId){\r\n        require(_landId > 0 && _landId <= landCount, \"Invalid land id\");\r\n        _;\r\n    }\r\n\r\n    modifier validCitizenId(uint256 _citizenId){\r\n        require(_citizenId > 0 && _citizenId <= citizenCount, \"Invalid citizen id\");\r\n        _;\r\n    }\r\n\r\n    modifier validCitizenIdNumber(uint256 _citizenIdNumber){\r\n        bool is10Digit = bytes(Strings.toString(_citizenIdNumber)).length == 10;\r\n        require(is10Digit, \"Citizen id number must contain 10 digit\");\r\n        _;\r\n    }\r\n\r\n    function isCitizenLandOwner(uint256 _landId, uint256 _citizenId) view private returns(bool){\r\n        uint256 landTrxsLength = landIdToTrxIds[_landId].length;\r\n        uint256[] memory landTrxIds = landIdToTrxIds[_landId];\r\n        landTransferedTrx memory lastLandTrx = landTransferedTrxs[landTrxIds[landTrxsLength - 1]];\r\n        return lastLandTrx.ownerId == _citizenId;\r\n    }\r\n\r\n    function revokeCurrentOwner(uint256 _landId) private{\r\n        uint256 landTrxsLength = landIdToTrxIds[_landId].length;\r\n        uint256 trxOwnerId = landIdToTrxIds[_landId][landTrxsLength - 1];\r\n        uint256 currentOwnerId = landTransferedTrxs[trxOwnerId].ownerId;\r\n\r\n        uint256[] storage ownerTrxIds = citizenIdToOwnedLandTrxIds[currentOwnerId];\r\n        bool isAfterIndex = false;\r\n        for(uint256 i = 0; i < ownerTrxIds.length - 1; i++){\r\n            uint256 currentLandId = landTransferedTrxs[ownerTrxIds[i]].landId;\r\n            if(currentLandId == _landId){\r\n                isAfterIndex = true;\r\n            }\r\n            if(isAfterIndex){\r\n                ownerTrxIds[i] = ownerTrxIds[i + 1];\r\n            }\r\n\r\n        }\r\n        ownerTrxIds.pop();\r\n    }\r\n\r\n        function getCitizenByIdNumber(uint256 _idNumber) external view validCitizenIdNumber(_idNumber) returns(Citizen memory){\r\n        return citizens[idNumbersToCitizenId[_idNumber]];\r\n    }\r\n\r\n    function getLandTrxs(uint256 _landId) external view validLandId(_landId) returns(landTransferedTrx[] memory) {\r\n        uint256[] memory trxIds = landIdToTrxIds[_landId];\r\n        uint256 arrLength = trxIds.length;\r\n        landTransferedTrx[] memory result = new landTransferedTrx[](arrLength);\r\n        for(uint256 i = 0; i < arrLength; i++){\r\n            result[i] = landTransferedTrxs[trxIds[i]];\r\n        }\r\n        return result;\r\n    }\r\n\r\n    function getCitizenOwnedTrxs(uint256 _citizenId) external view validCitizenId(_citizenId) returns(landTransferedTrx[] memory){\r\n        uint256[] memory trxIds = citizenIdToOwnedLandTrxIds[_citizenId];\r\n        uint256 arrLength = trxIds.length;\r\n        landTransferedTrx[] memory result = new landTransferedTrx[](arrLength);\r\n        for(uint256 i = 0; i < arrLength; i++){\r\n            result[i] = landTransferedTrxs[trxIds[i]];\r\n        }\r\n        return result;\r\n    }\r\n\r\n    function publishLand(\r\n        string calldata _description,\r\n        string calldata _landCoordinatorHash\r\n    ) external{\r\n        require(bytes(_landCoordinatorHash).length > 0, \"Land hash specification is required\");\r\n        require(bytes(_description).length > 0, \"Description is required\");\r\n        require(msg.sender != address(0), \"Invalid address\");\r\n\r\n        landCount++;\r\n        uint256 parcelNumber = parcelNumberSeed + landCount;\r\n        string memory landCode = string(abi.encodePacked(townshipCode, Strings.toString(parcelNumber)));\r\n        uint256 publishDate = block.timestamp;\r\n\r\n        lands[landCount] = Land(\r\n            landCount,\r\n            parcelNumber,\r\n            landCode,\r\n            _description,\r\n            _landCoordinatorHash,\r\n            false,\r\n            msg.sender,\r\n            publishDate\r\n        );\r\n        emit LandPublished(\r\n            landCount,\r\n            parcelNumber,\r\n            landCode,\r\n            _description,\r\n            _landCoordinatorHash,\r\n            false,\r\n            msg.sender,\r\n            publishDate\r\n        );\r\n    }\r\n\r\n    function publishCitizen (\r\n        uint256 _idNumber, string calldata _fullName, Gender _gender, uint256 _dob\r\n    ) external validCitizenIdNumber(_idNumber){\r\n        bool isIdNumberUnique = idNumbersToCitizenId[_idNumber] == 0;\r\n        require(isIdNumberUnique, \"Citizen id number already exist\");\r\n        require(bytes(_fullName).length > 0, \"Full name is required\");\r\n        require(_dob < block.timestamp, \"Invalid dob\");\r\n        citizenCount++;\r\n        uint256 publishDate = block.timestamp;\r\n        citizens[citizenCount] = Citizen(\r\n            citizenCount,\r\n            _idNumber,\r\n            _fullName,\r\n            _gender,\r\n            _dob,\r\n            msg.sender,\r\n            publishDate\r\n        );\r\n        idNumbersToCitizenId[_idNumber] = citizenCount;\r\n\r\n        emit CitizenPublished(\r\n            citizenCount,\r\n            _idNumber,\r\n            _fullName,\r\n            _gender,\r\n            _dob,\r\n            msg.sender,\r\n            publishDate\r\n        );\r\n    }\r\n\r\n    function transferLand(uint256 _landId, uint256 _citizenIdNumber) external validLandId(_landId) validCitizenIdNumber(_citizenIdNumber){\r\n        uint256 citizenId = idNumbersToCitizenId[_citizenIdNumber];\r\n        uint256 landTrxsLength = landIdToTrxIds[_landId].length;\r\n        if(landTrxsLength > 0){\r\n            if(isCitizenLandOwner(_landId, citizenId)){\r\n                revert(\"Citizen is the current land's owner\");\r\n            }\r\n            revokeCurrentOwner(_landId);\r\n        }\r\n        transactionCount++;\r\n        Land storage land = lands[_landId];\r\n        land.isOccupied = true;\r\n        Citizen storage citizen = citizens[citizenId]; \r\n        landTransferedTrxs[transactionCount] = landTransferedTrx(\r\n            transactionCount,\r\n            citizen.id,\r\n            citizen.idNumber,\r\n            citizen.fullName,\r\n            land.id,\r\n            land.landCode,\r\n            msg.sender,\r\n            block.timestamp\r\n        );\r\n        landIdToTrxIds[_landId].push(transactionCount);\r\n        citizenIdToOwnedLandTrxIds[citizenId].push(transactionCount);\r\n        emit LandTransfer(transactionCount, _landId, citizenId, msg.sender, block.timestamp);\r\n    }\r\n\r\n}",
  "sourcePath": "D:\\Study\\Fourth year\\BACHELOR THESIS\\code\\src\\blockchain\\contracts\\Decentraland.sol",
  "compiler": {
    "name": "solc",
    "version": "0.8.12+commit.f00d7308.Emscripten.clang"
  },
  "schemaVersion": "3.4.3",
  "updatedAt": "2022-02-28T06:02:39.202Z",
  "networkType": "ethereum",
  "devdoc": {
    "kind": "dev",
    "methods": {},
    "version": 1
  },
  "userdoc": {
    "kind": "user",
    "methods": {},
    "version": 1
  }
}