{
  "contractName": "Decentraland",
  "abi": [
    {
      "inputs": [],
      "stateMutability": "nonpayable",
      "type": "constructor"
    },
    {
      "anonymous": false,
      "inputs": [
        {
          "indexed": false,
          "internalType": "uint256",
          "name": "id",
          "type": "uint256"
        },
        {
          "indexed": false,
          "internalType": "string",
          "name": "title",
          "type": "string"
        },
        {
          "indexed": false,
          "internalType": "string",
          "name": "admincode",
          "type": "string"
        },
        {
          "indexed": false,
          "internalType": "address",
          "name": "newAdmin",
          "type": "address"
        },
        {
          "indexed": false,
          "internalType": "address",
          "name": "publishAdmin",
          "type": "address"
        },
        {
          "indexed": false,
          "internalType": "uint256",
          "name": "publishDate",
          "type": "uint256"
        }
      ],
      "name": "AdminPublished",
      "type": "event"
    },
    {
      "anonymous": false,
      "inputs": [
        {
          "indexed": false,
          "internalType": "uint256",
          "name": "id",
          "type": "uint256"
        },
        {
          "indexed": false,
          "internalType": "uint256",
          "name": "idNumber",
          "type": "uint256"
        },
        {
          "indexed": false,
          "internalType": "string",
          "name": "fullName",
          "type": "string"
        },
        {
          "indexed": false,
          "internalType": "enum Decentraland.Gender",
          "name": "gender",
          "type": "uint8"
        },
        {
          "indexed": false,
          "internalType": "uint256",
          "name": "dob",
          "type": "uint256"
        },
        {
          "indexed": false,
          "internalType": "address",
          "name": "publishAdmin",
          "type": "address"
        },
        {
          "indexed": false,
          "internalType": "uint256",
          "name": "publishDate",
          "type": "uint256"
        }
      ],
      "name": "CitizenPublished",
      "type": "event"
    },
    {
      "anonymous": false,
      "inputs": [
        {
          "indexed": false,
          "internalType": "uint256",
          "name": "id",
          "type": "uint256"
        },
        {
          "indexed": false,
          "internalType": "uint256",
          "name": "parcelNumber",
          "type": "uint256"
        },
        {
          "indexed": false,
          "internalType": "string",
          "name": "landCode",
          "type": "string"
        },
        {
          "indexed": false,
          "internalType": "string",
          "name": "description",
          "type": "string"
        },
        {
          "indexed": false,
          "internalType": "string",
          "name": "landCoordinatorHash",
          "type": "string"
        },
        {
          "indexed": false,
          "internalType": "bool",
          "name": "isOccupied",
          "type": "bool"
        },
        {
          "indexed": false,
          "internalType": "address",
          "name": "publishAdmin",
          "type": "address"
        },
        {
          "indexed": false,
          "internalType": "uint256",
          "name": "publishDate",
          "type": "uint256"
        }
      ],
      "name": "LandPublished",
      "type": "event"
    },
    {
      "anonymous": false,
      "inputs": [
        {
          "indexed": false,
          "internalType": "uint256",
          "name": "id",
          "type": "uint256"
        },
        {
          "indexed": false,
          "internalType": "uint256",
          "name": "landId",
          "type": "uint256"
        },
        {
          "indexed": false,
          "internalType": "uint256",
          "name": "ownerId",
          "type": "uint256"
        },
        {
          "indexed": false,
          "internalType": "address",
          "name": "adminAddr",
          "type": "address"
        },
        {
          "indexed": false,
          "internalType": "uint256",
          "name": "trxTime",
          "type": "uint256"
        }
      ],
      "name": "LandTransfer",
      "type": "event"
    },
    {
      "inputs": [],
      "name": "NAME",
      "outputs": [
        {
          "internalType": "string",
          "name": "",
          "type": "string"
        }
      ],
      "stateMutability": "view",
      "type": "function",
      "constant": true
    },
    {
      "inputs": [],
      "name": "owner",
      "outputs": [
        {
          "internalType": "address",
          "name": "",
          "type": "address"
        }
      ],
      "stateMutability": "view",
      "type": "function",
      "constant": true
    },
    {
      "inputs": [],
      "name": "getLandCount",
      "outputs": [
        {
          "internalType": "uint256",
          "name": "",
          "type": "uint256"
        }
      ],
      "stateMutability": "view",
      "type": "function",
      "constant": true
    },
    {
      "inputs": [
        {
          "internalType": "uint256",
          "name": "_id",
          "type": "uint256"
        }
      ],
      "name": "getLand",
      "outputs": [
        {
          "components": [
            {
              "internalType": "uint256",
              "name": "id",
              "type": "uint256"
            },
            {
              "internalType": "uint256",
              "name": "parcelNumber",
              "type": "uint256"
            },
            {
              "internalType": "string",
              "name": "landCode",
              "type": "string"
            },
            {
              "internalType": "string",
              "name": "description",
              "type": "string"
            },
            {
              "internalType": "string",
              "name": "landCoordinatorHash",
              "type": "string"
            },
            {
              "internalType": "bool",
              "name": "isOccupied",
              "type": "bool"
            },
            {
              "internalType": "address",
              "name": "publishAdmin",
              "type": "address"
            },
            {
              "internalType": "uint256",
              "name": "publishDate",
              "type": "uint256"
            }
          ],
          "internalType": "struct Decentraland.Land",
          "name": "",
          "type": "tuple"
        }
      ],
      "stateMutability": "view",
      "type": "function",
      "constant": true
    },
    {
      "inputs": [],
      "name": "getCitizenCount",
      "outputs": [
        {
          "internalType": "uint256",
          "name": "",
          "type": "uint256"
        }
      ],
      "stateMutability": "view",
      "type": "function",
      "constant": true
    },
    {
      "inputs": [
        {
          "internalType": "uint256",
          "name": "_id",
          "type": "uint256"
        }
      ],
      "name": "getCitizen",
      "outputs": [
        {
          "components": [
            {
              "internalType": "uint256",
              "name": "id",
              "type": "uint256"
            },
            {
              "internalType": "uint256",
              "name": "idNumber",
              "type": "uint256"
            },
            {
              "internalType": "string",
              "name": "fullName",
              "type": "string"
            },
            {
              "internalType": "enum Decentraland.Gender",
              "name": "gender",
              "type": "uint8"
            },
            {
              "internalType": "uint256",
              "name": "dob",
              "type": "uint256"
            },
            {
              "internalType": "address",
              "name": "publishAdmin",
              "type": "address"
            },
            {
              "internalType": "uint256",
              "name": "publishDate",
              "type": "uint256"
            }
          ],
          "internalType": "struct Decentraland.Citizen",
          "name": "",
          "type": "tuple"
        }
      ],
      "stateMutability": "view",
      "type": "function",
      "constant": true
    },
    {
      "inputs": [
        {
          "internalType": "uint256",
          "name": "_idNumber",
          "type": "uint256"
        }
      ],
      "name": "getCitizenByIdNumber",
      "outputs": [
        {
          "components": [
            {
              "internalType": "uint256",
              "name": "id",
              "type": "uint256"
            },
            {
              "internalType": "uint256",
              "name": "idNumber",
              "type": "uint256"
            },
            {
              "internalType": "string",
              "name": "fullName",
              "type": "string"
            },
            {
              "internalType": "enum Decentraland.Gender",
              "name": "gender",
              "type": "uint8"
            },
            {
              "internalType": "uint256",
              "name": "dob",
              "type": "uint256"
            },
            {
              "internalType": "address",
              "name": "publishAdmin",
              "type": "address"
            },
            {
              "internalType": "uint256",
              "name": "publishDate",
              "type": "uint256"
            }
          ],
          "internalType": "struct Decentraland.Citizen",
          "name": "",
          "type": "tuple"
        }
      ],
      "stateMutability": "view",
      "type": "function",
      "constant": true
    },
    {
      "inputs": [],
      "name": "getAdminCount",
      "outputs": [
        {
          "internalType": "uint256",
          "name": "",
          "type": "uint256"
        }
      ],
      "stateMutability": "view",
      "type": "function",
      "constant": true
    },
    {
      "inputs": [
        {
          "internalType": "uint256",
          "name": "_id",
          "type": "uint256"
        }
      ],
      "name": "getAdmin",
      "outputs": [
        {
          "components": [
            {
              "internalType": "uint256",
              "name": "id",
              "type": "uint256"
            },
            {
              "internalType": "string",
              "name": "title",
              "type": "string"
            },
            {
              "internalType": "string",
              "name": "adminCode",
              "type": "string"
            },
            {
              "internalType": "address",
              "name": "adminAddr",
              "type": "address"
            },
            {
              "internalType": "address",
              "name": "publishAdmin",
              "type": "address"
            },
            {
              "internalType": "uint256",
              "name": "publishDate",
              "type": "uint256"
            }
          ],
          "internalType": "struct Decentraland.Admin",
          "name": "",
          "type": "tuple"
        }
      ],
      "stateMutability": "view",
      "type": "function",
      "constant": true
    },
    {
      "inputs": [
        {
          "internalType": "address",
          "name": "_address",
          "type": "address"
        }
      ],
      "name": "getAdminByAddress",
      "outputs": [
        {
          "components": [
            {
              "internalType": "uint256",
              "name": "id",
              "type": "uint256"
            },
            {
              "internalType": "string",
              "name": "title",
              "type": "string"
            },
            {
              "internalType": "string",
              "name": "adminCode",
              "type": "string"
            },
            {
              "internalType": "address",
              "name": "adminAddr",
              "type": "address"
            },
            {
              "internalType": "address",
              "name": "publishAdmin",
              "type": "address"
            },
            {
              "internalType": "uint256",
              "name": "publishDate",
              "type": "uint256"
            }
          ],
          "internalType": "struct Decentraland.Admin",
          "name": "",
          "type": "tuple"
        }
      ],
      "stateMutability": "view",
      "type": "function",
      "constant": true
    },
    {
      "inputs": [
        {
          "internalType": "address",
          "name": "_sender",
          "type": "address"
        }
      ],
      "name": "checkIsContractOwner",
      "outputs": [
        {
          "internalType": "bool",
          "name": "",
          "type": "bool"
        }
      ],
      "stateMutability": "view",
      "type": "function",
      "constant": true
    },
    {
      "inputs": [
        {
          "internalType": "uint256",
          "name": "_landId",
          "type": "uint256"
        }
      ],
      "name": "getLandTrxs",
      "outputs": [
        {
          "components": [
            {
              "internalType": "uint256",
              "name": "id",
              "type": "uint256"
            },
            {
              "internalType": "uint256",
              "name": "ownerId",
              "type": "uint256"
            },
            {
              "internalType": "uint256",
              "name": "ownerIdNumber",
              "type": "uint256"
            },
            {
              "internalType": "string",
              "name": "ownerFullname",
              "type": "string"
            },
            {
              "internalType": "uint256",
              "name": "landId",
              "type": "uint256"
            },
            {
              "internalType": "string",
              "name": "landCode",
              "type": "string"
            },
            {
              "internalType": "address",
              "name": "admin",
              "type": "address"
            },
            {
              "internalType": "uint256",
              "name": "transferDate",
              "type": "uint256"
            }
          ],
          "internalType": "struct Decentraland.landTransferedTrx[]",
          "name": "",
          "type": "tuple[]"
        }
      ],
      "stateMutability": "view",
      "type": "function",
      "constant": true
    },
    {
      "inputs": [
        {
          "internalType": "uint256",
          "name": "_citizenId",
          "type": "uint256"
        }
      ],
      "name": "getCitizenOwnedTrxs",
      "outputs": [
        {
          "components": [
            {
              "internalType": "uint256",
              "name": "id",
              "type": "uint256"
            },
            {
              "internalType": "uint256",
              "name": "ownerId",
              "type": "uint256"
            },
            {
              "internalType": "uint256",
              "name": "ownerIdNumber",
              "type": "uint256"
            },
            {
              "internalType": "string",
              "name": "ownerFullname",
              "type": "string"
            },
            {
              "internalType": "uint256",
              "name": "landId",
              "type": "uint256"
            },
            {
              "internalType": "string",
              "name": "landCode",
              "type": "string"
            },
            {
              "internalType": "address",
              "name": "admin",
              "type": "address"
            },
            {
              "internalType": "uint256",
              "name": "transferDate",
              "type": "uint256"
            }
          ],
          "internalType": "struct Decentraland.landTransferedTrx[]",
          "name": "",
          "type": "tuple[]"
        }
      ],
      "stateMutability": "view",
      "type": "function",
      "constant": true
    },
    {
      "inputs": [
        {
          "internalType": "string",
          "name": "_description",
          "type": "string"
        },
        {
          "internalType": "string",
          "name": "_landCoordinatorHash",
          "type": "string"
        }
      ],
      "name": "publishLand",
      "outputs": [],
      "stateMutability": "nonpayable",
      "type": "function"
    },
    {
      "inputs": [
        {
          "internalType": "uint256",
          "name": "_idNumber",
          "type": "uint256"
        },
        {
          "internalType": "string",
          "name": "_fullName",
          "type": "string"
        },
        {
          "internalType": "enum Decentraland.Gender",
          "name": "_gender",
          "type": "uint8"
        },
        {
          "internalType": "uint256",
          "name": "_dob",
          "type": "uint256"
        }
      ],
      "name": "publishCitizen",
      "outputs": [],
      "stateMutability": "nonpayable",
      "type": "function"
    },
    {
      "inputs": [
        {
          "internalType": "uint256",
          "name": "_landId",
          "type": "uint256"
        },
        {
          "internalType": "uint256",
          "name": "_citizenIdNumber",
          "type": "uint256"
        }
      ],
      "name": "transferLand",
      "outputs": [],
      "stateMutability": "nonpayable",
      "type": "function"
    },
    {
      "inputs": [
        {
          "internalType": "string",
          "name": "_title",
          "type": "string"
        },
        {
          "internalType": "address",
          "name": "_newAdmin",
          "type": "address"
        }
      ],
      "name": "publishAdmin",
      "outputs": [],
      "stateMutability": "nonpayable",
      "type": "function"
    }
  ],
  "bytecode": "0x608060405260006001556000600255600060035560006004553480156200002557600080fd5b50336000806101000a81548173ffffffffffffffffffffffffffffffffffffffff021916908373ffffffffffffffffffffffffffffffffffffffff160217905550620000ad6040518060400160405280600e81526020017f436f6e7472616374206f776e657200000000000000000000000000000000000081525033620000b360201b60201c565b62000d75565b338073ffffffffffffffffffffffffffffffffffffffff1660008054906101000a900473ffffffffffffffffffffffffffffffffffffffff1673ffffffffffffffffffffffffffffffffffffffff161462000145576040517f08c379a00000000000000000000000000000000000000000000000000000000081526004016200013c90620007fc565b60405180910390fd5b60008351116200018c576040517f08c379a000000000000000000000000000000000000000000000000000000000815260040162000183906200086e565b60405180910390fd5b6200019d826200046c60201b60201c565b620001df576040517f08c379a0000000000000000000000000000000000000000000000000000000008152600401620001d69062000906565b60405180910390fd5b60036000815480929190620001f49062000961565b91905055506000600354610bb86200020d9190620009ae565b905060006040518060400160405280600581526020017f41444d494e0000000000000000000000000000000000000000000000000000008152506200025d836200054c60201b6200294e1760201c565b6040516020016200027092919062000a8e565b604051602081830303815290604052905060004290506040518060c0016040528060035481526020018781526020018381526020018673ffffffffffffffffffffffffffffffffffffffff1681526020013373ffffffffffffffffffffffffffffffffffffffff168152602001828152506007600060035481526020019081526020016000206000820151816000015560208201518160010190805190602001906200031e929190620006c5565b5060408201518160020190805190602001906200033d929190620006c5565b5060608201518160030160006101000a81548173ffffffffffffffffffffffffffffffffffffffff021916908373ffffffffffffffffffffffffffffffffffffffff16021790555060808201518160040160006101000a81548173ffffffffffffffffffffffffffffffffffffffff021916908373ffffffffffffffffffffffffffffffffffffffff16021790555060a08201518160050155905050600354600960008773ffffffffffffffffffffffffffffffffffffffff1673ffffffffffffffffffffffffffffffffffffffff168152602001908152602001600020819055507fcbaf80e95607e2134643114a42193aa876bc29ea7e0cacd87d54b634a91f026160035487848833866040516200045c9695949392919062000b5e565b60405180910390a1505050505050565b60008073ffffffffffffffffffffffffffffffffffffffff168273ffffffffffffffffffffffffffffffffffffffff1603620004ac576000905062000547565b8173ffffffffffffffffffffffffffffffffffffffff168273ffffffffffffffffffffffffffffffffffffffff1614620004ea576000905062000547565b600080600960008573ffffffffffffffffffffffffffffffffffffffff1673ffffffffffffffffffffffffffffffffffffffff16815260200190815260200160002054149050806200054157600091505062000547565b60019150505b919050565b60606000820362000595576040518060400160405280600181526020017f30000000000000000000000000000000000000000000000000000000000000008152509050620006c0565b600082905060005b60008214620005cd578080620005b39062000961565b915050600a82620005c5919062000c08565b91506200059d565b60008167ffffffffffffffff811115620005ec57620005eb62000c40565b5b6040519080825280601f01601f1916602001820160405280156200061f5781602001600182028036833780820191505090505b5090505b60008514620006b9576001826200063b919062000c6f565b9150600a856200064c919062000caa565b60306200065a9190620009ae565b60f81b81838151811062000673576200067262000ce2565b5b60200101907effffffffffffffffffffffffffffffffffffffffffffffffffffffffffffff1916908160001a905350600a85620006b1919062000c08565b945062000623565b8093505050505b919050565b828054620006d39062000d40565b90600052602060002090601f016020900481019282620006f7576000855562000743565b82601f106200071257805160ff191683800117855562000743565b8280016001018555821562000743579182015b828111156200074257825182559160200191906001019062000725565b5b50905062000752919062000756565b5090565b5b808211156200077157600081600090555060010162000757565b5090565b600082825260208201905092915050565b7f53656e646572206d7573742062652074686520636f6e7472616374206372656160008201527f746f720000000000000000000000000000000000000000000000000000000000602082015250565b6000620007e460238362000775565b9150620007f18262000786565b604082019050919050565b600060208201905081810360008301526200081781620007d5565b9050919050565b7f5469746c65206d757374206e6f7420626520656d707479000000000000000000600082015250565b60006200085660178362000775565b915062000863826200081e565b602082019050919050565b60006020820190508181036000830152620008898162000847565b9050919050565b7f41646d696e2061646472657373206e6f742076616c6964206f7220616c64726560008201527f6164792065786973740000000000000000000000000000000000000000000000602082015250565b6000620008ee60298362000775565b9150620008fb8262000890565b604082019050919050565b600060208201905081810360008301526200092181620008df565b9050919050565b7f4e487b7100000000000000000000000000000000000000000000000000000000600052601160045260246000fd5b6000819050919050565b60006200096e8262000957565b91507fffffffffffffffffffffffffffffffffffffffffffffffffffffffffffffffff8203620009a357620009a262000928565b5b600182019050919050565b6000620009bb8262000957565b9150620009c88362000957565b9250827fffffffffffffffffffffffffffffffffffffffffffffffffffffffffffffffff0382111562000a0057620009ff62000928565b5b828201905092915050565b600081519050919050565b600081905092915050565b60005b8381101562000a4157808201518184015260208101905062000a24565b8381111562000a51576000848401525b50505050565b600062000a648262000a0b565b62000a70818562000a16565b935062000a8281856020860162000a21565b80840191505092915050565b600062000a9c828562000a57565b915062000aaa828462000a57565b91508190509392505050565b62000ac18162000957565b82525050565b6000601f19601f8301169050919050565b600062000ae58262000a0b565b62000af1818562000775565b935062000b0381856020860162000a21565b62000b0e8162000ac7565b840191505092915050565b600073ffffffffffffffffffffffffffffffffffffffff82169050919050565b600062000b468262000b19565b9050919050565b62000b588162000b39565b82525050565b600060c08201905062000b75600083018962000ab6565b818103602083015262000b89818862000ad8565b9050818103604083015262000b9f818762000ad8565b905062000bb0606083018662000b4d565b62000bbf608083018562000b4d565b62000bce60a083018462000ab6565b979650505050505050565b7f4e487b7100000000000000000000000000000000000000000000000000000000600052601260045260246000fd5b600062000c158262000957565b915062000c228362000957565b92508262000c355762000c3462000bd9565b5b828204905092915050565b7f4e487b7100000000000000000000000000000000000000000000000000000000600052604160045260246000fd5b600062000c7c8262000957565b915062000c898362000957565b92508282101562000c9f5762000c9e62000928565b5b828203905092915050565b600062000cb78262000957565b915062000cc48362000957565b92508262000cd75762000cd662000bd9565b5b828206905092915050565b7f4e487b7100000000000000000000000000000000000000000000000000000000600052603260045260246000fd5b7f4e487b7100000000000000000000000000000000000000000000000000000000600052602260045260246000fd5b6000600282049050600182168062000d5957607f821691505b60208210810362000d6f5762000d6e62000d11565b5b50919050565b61483a8062000d856000396000f3fe608060405234801561001057600080fd5b506004361061010b5760003560e01c80638da5cb5b116100a2578063c6c6b98d11610071578063c6c6b98d146102e0578063c756695014610310578063d36ff2701461032c578063f02dd53f1461034a578063f8937fb81461037a5761010b565b80638da5cb5b14610258578063a3f4df7e14610276578063b6a8fe0914610294578063bba8f58d146102b05761010b565b80635ceaa769116100de5780635ceaa769146101bc5780635f4942d8146101da5780638914a8a01461020a5780638b7bf3eb1461023a5761010b565b8063111fd88b146101105780631cd53149146101405780632ef5c4fb1461015c57806336440f451461018c575b600080fd5b61012a60048036038101906101259190613200565b610396565b60405161013791906133a6565b60405180910390f35b61015a60048036038101906101559190613529565b610637565b005b61017660048036038101906101719190613200565b6109c6565b60405161018391906136fe565b60405180910390f35b6101a660048036038101906101a19190613720565b610d63565b6040516101b391906133a6565b60405180910390f35b6101c4610fb3565b6040516101d1919061375c565b60405180910390f35b6101f460048036038101906101ef9190613720565b611014565b6040516102019190613792565b60405180910390f35b610224600480360381019061021f9190613200565b61106c565b60405161023191906138c0565b60405180910390f35b61024261128e565b60405161024f919061375c565b60405180910390f35b610260611328565b60405161026d91906138f1565b60405180910390f35b61027e61134c565b60405161028b9190613956565b60405180910390f35b6102ae60048036038101906102a991906139d8565b611385565b005b6102ca60048036038101906102c59190613200565b611791565b6040516102d791906138c0565b60405180910390f35b6102fa60048036038101906102f59190613200565b6119c7565b60405161030791906136fe565b60405180910390f35b61032a60048036038101906103259190613a59565b611d64565b005b61033461229a565b604051610341919061375c565b60405180910390f35b610364600480360381019061035f9190613200565b6122fb565b6040516103719190613b66565b60405180910390f35b610394600480360381019061038f9190613bad565b6125c5565b005b61039e612f94565b338073ffffffffffffffffffffffffffffffffffffffff1660008054906101000a900473ffffffffffffffffffffffffffffffffffffffff1673ffffffffffffffffffffffffffffffffffffffff161461042d576040517f08c379a000000000000000000000000000000000000000000000000000000000815260040161042490613ca7565b60405180910390fd5b600760008481526020019081526020016000206040518060c00160405290816000820154815260200160018201805461046590613cf6565b80601f016020809104026020016040519081016040528092919081815260200182805461049190613cf6565b80156104de5780601f106104b3576101008083540402835291602001916104de565b820191906000526020600020905b8154815290600101906020018083116104c157829003601f168201915b505050505081526020016002820180546104f790613cf6565b80601f016020809104026020016040519081016040528092919081815260200182805461052390613cf6565b80156105705780601f1061054557610100808354040283529160200191610570565b820191906000526020600020905b81548152906001019060200180831161055357829003601f168201915b505050505081526020016003820160009054906101000a900473ffffffffffffffffffffffffffffffffffffffff1673ffffffffffffffffffffffffffffffffffffffff1673ffffffffffffffffffffffffffffffffffffffff1681526020016004820160009054906101000a900473ffffffffffffffffffffffffffffffffffffffff1673ffffffffffffffffffffffffffffffffffffffff1673ffffffffffffffffffffffffffffffffffffffff168152602001600582015481525050915050919050565b338073ffffffffffffffffffffffffffffffffffffffff1660008054906101000a900473ffffffffffffffffffffffffffffffffffffffff1673ffffffffffffffffffffffffffffffffffffffff16146106c6576040517f08c379a00000000000000000000000000000000000000000000000000000000081526004016106bd90613ca7565b60405180910390fd5b600083511161070a576040517f08c379a000000000000000000000000000000000000000000000000000000000815260040161070190613d73565b60405180910390fd5b61071382612aae565b610752576040517f08c379a000000000000000000000000000000000000000000000000000000000815260040161074990613e05565b60405180910390fd5b6003600081548092919061076590613e54565b91905055506000600354610bb861077c9190613e9c565b905060006040518060400160405280600581526020017f41444d494e0000000000000000000000000000000000000000000000000000008152506107bf8361294e565b6040516020016107d0929190613f2e565b604051602081830303815290604052905060004290506040518060c0016040528060035481526020018781526020018381526020018673ffffffffffffffffffffffffffffffffffffffff1681526020013373ffffffffffffffffffffffffffffffffffffffff1681526020018281525060076000600354815260200190815260200160002060008201518160000155602082015181600101908051906020019061087c929190612ff6565b506040820151816002019080519060200190610899929190612ff6565b5060608201518160030160006101000a81548173ffffffffffffffffffffffffffffffffffffffff021916908373ffffffffffffffffffffffffffffffffffffffff16021790555060808201518160040160006101000a81548173ffffffffffffffffffffffffffffffffffffffff021916908373ffffffffffffffffffffffffffffffffffffffff16021790555060a08201518160050155905050600354600960008773ffffffffffffffffffffffffffffffffffffffff1673ffffffffffffffffffffffffffffffffffffffff168152602001908152602001600020819055507fcbaf80e95607e2134643114a42193aa876bc29ea7e0cacd87d54b634a91f026160035487848833866040516109b696959493929190613f52565b60405180910390a1505050505050565b60603360006109d482610d63565b90506000816000015103610a1d576040517f08c379a0000000000000000000000000000000000000000000000000000000008152600401610a149061400d565b60405180910390fd5b83600081118015610a3057506002548111155b610a6f576040517f08c379a0000000000000000000000000000000000000000000000000000000008152600401610a6690614079565b60405180910390fd5b6000600c6000878152602001908152602001600020805480602002602001604051908101604052809291908181526020018280548015610ace57602002820191906000526020600020905b815481526020019060010190808311610aba575b5050505050905060008151905060008167ffffffffffffffff811115610af757610af66133d2565b5b604051908082528060200260200182016040528015610b3057816020015b610b1d61307c565b815260200190600190039081610b155790505b50905060005b82811015610d5457600a6000858381518110610b5557610b54614099565b5b6020026020010151815260200190815260200160002060405180610100016040529081600082015481526020016001820154815260200160028201548152602001600382018054610ba590613cf6565b80601f0160208091040260200160405190810160405280929190818152602001828054610bd190613cf6565b8015610c1e5780601f10610bf357610100808354040283529160200191610c1e565b820191906000526020600020905b815481529060010190602001808311610c0157829003601f168201915b5050505050815260200160048201548152602001600582018054610c4190613cf6565b80601f0160208091040260200160405190810160405280929190818152602001828054610c6d90613cf6565b8015610cba5780601f10610c8f57610100808354040283529160200191610cba565b820191906000526020600020905b815481529060010190602001808311610c9d57829003601f168201915b505050505081526020016006820160009054906101000a900473ffffffffffffffffffffffffffffffffffffffff1673ffffffffffffffffffffffffffffffffffffffff1673ffffffffffffffffffffffffffffffffffffffff168152602001600782015481525050828281518110610d3657610d35614099565b5b60200260200101819052508080610d4c90613e54565b915050610b36565b50809650505050505050919050565b610d6b612f94565b60076000600960008573ffffffffffffffffffffffffffffffffffffffff1673ffffffffffffffffffffffffffffffffffffffff1681526020019081526020016000205481526020019081526020016000206040518060c001604052908160008201548152602001600182018054610de290613cf6565b80601f0160208091040260200160405190810160405280929190818152602001828054610e0e90613cf6565b8015610e5b5780601f10610e3057610100808354040283529160200191610e5b565b820191906000526020600020905b815481529060010190602001808311610e3e57829003601f168201915b50505050508152602001600282018054610e7490613cf6565b80601f0160208091040260200160405190810160405280929190818152602001828054610ea090613cf6565b8015610eed5780601f10610ec257610100808354040283529160200191610eed565b820191906000526020600020905b815481529060010190602001808311610ed057829003601f168201915b505050505081526020016003820160009054906101000a900473ffffffffffffffffffffffffffffffffffffffff1673ffffffffffffffffffffffffffffffffffffffff1673ffffffffffffffffffffffffffffffffffffffff1681526020016004820160009054906101000a900473ffffffffffffffffffffffffffffffffffffffff1673ffffffffffffffffffffffffffffffffffffffff1673ffffffffffffffffffffffffffffffffffffffff1681526020016005820154815250509050919050565b6000336000610fc182610d63565b9050600081600001510361100a576040517f08c379a00000000000000000000000000000000000000000000000000000000081526004016110019061400d565b60405180910390fd5b6001549250505090565b60008173ffffffffffffffffffffffffffffffffffffffff1660008054906101000a900473ffffffffffffffffffffffffffffffffffffffff1673ffffffffffffffffffffffffffffffffffffffff16149050919050565b6110746130d7565b33600061108082610d63565b905060008160000151036110c9576040517f08c379a00000000000000000000000000000000000000000000000000000000081526004016110c09061400d565b60405180910390fd5b836000811180156110dc57506002548111155b61111b576040517f08c379a000000000000000000000000000000000000000000000000000000000815260040161111290614079565b60405180910390fd5b600660008681526020019081526020016000206040518060e0016040529081600082015481526020016001820154815260200160028201805461115d90613cf6565b80601f016020809104026020016040519081016040528092919081815260200182805461118990613cf6565b80156111d65780601f106111ab576101008083540402835291602001916111d6565b820191906000526020600020905b8154815290600101906020018083116111b957829003601f168201915b505050505081526020016003820160009054906101000a900460ff166001811115611204576112036137ad565b5b6001811115611216576112156137ad565b5b8152602001600482015481526020016005820160009054906101000a900473ffffffffffffffffffffffffffffffffffffffff1673ffffffffffffffffffffffffffffffffffffffff1673ffffffffffffffffffffffffffffffffffffffff1681526020016006820154815250509350505050919050565b6000338073ffffffffffffffffffffffffffffffffffffffff1660008054906101000a900473ffffffffffffffffffffffffffffffffffffffff1673ffffffffffffffffffffffffffffffffffffffff161461131f576040517f08c379a000000000000000000000000000000000000000000000000000000000815260040161131690613ca7565b60405180910390fd5b60035491505090565b60008054906101000a900473ffffffffffffffffffffffffffffffffffffffff1681565b6040518060400160405280600c81526020017f446563656e7472616c616e64000000000000000000000000000000000000000081525081565b33600061139182610d63565b905060008160000151036113da576040517f08c379a00000000000000000000000000000000000000000000000000000000081526004016113d19061400d565b60405180910390fd5b60008484905011611420576040517f08c379a00000000000000000000000000000000000000000000000000000000081526004016114179061413a565b60405180910390fd5b60008686905011611466576040517f08c379a000000000000000000000000000000000000000000000000000000000815260040161145d906141a6565b60405180910390fd5b600073ffffffffffffffffffffffffffffffffffffffff163373ffffffffffffffffffffffffffffffffffffffff16036114d5576040517f08c379a00000000000000000000000000000000000000000000000000000000081526004016114cc90614212565b60405180910390fd5b600160008154809291906114e890613e54565b919050555060006001546113886114ff9190613e9c565b905060006040518060400160405280600381526020017f41534400000000000000000000000000000000000000000000000000000000008152506115428361294e565b604051602001611553929190613f2e565b6040516020818303038152906040529050600042905060405180610100016040528060015481526020018481526020018381526020018a8a8080601f016020809104026020016040519081016040528093929190818152602001838380828437600081840152601f19601f82011690508083019250505050505050815260200188888080601f016020809104026020016040519081016040528093929190818152602001838380828437600081840152601f19601f8201169050808301925050505050505081526020016000151581526020013373ffffffffffffffffffffffffffffffffffffffff168152602001828152506005600060015481526020019081526020016000206000820151816000015560208201518160010155604082015181600201908051906020019061168b929190612ff6565b5060608201518160030190805190602001906116a8929190612ff6565b5060808201518160040190805190602001906116c5929190612ff6565b5060a08201518160050160006101000a81548160ff02191690831515021790555060c08201518160050160016101000a81548173ffffffffffffffffffffffffffffffffffffffff021916908373ffffffffffffffffffffffffffffffffffffffff16021790555060e082015181600601559050507f65e024500d3a8772624bf394e514747f2718ca783604900949638998f5291d3b60015484848c8c8c8c6000338a60405161177e9a9998979695949392919061425f565b60405180910390a1505050505050505050565b6117996130d7565b3360006117a582610d63565b905060008160000151036117ee576040517f08c379a00000000000000000000000000000000000000000000000000000000081526004016117e59061400d565b60405180910390fd5b836000600a6117fc8361294e565b5114905080611840576040517f08c379a000000000000000000000000000000000000000000000000000000000815260040161183790614368565b60405180910390fd5b60066000600860008981526020019081526020016000205481526020019081526020016000206040518060e0016040529081600082015481526020016001820154815260200160028201805461189590613cf6565b80601f01602080910402602001604051908101604052809291908181526020018280546118c190613cf6565b801561190e5780601f106118e35761010080835404028352916020019161190e565b820191906000526020600020905b8154815290600101906020018083116118f157829003601f168201915b505050505081526020016003820160009054906101000a900460ff16600181111561193c5761193b6137ad565b5b600181111561194e5761194d6137ad565b5b8152602001600482015481526020016005820160009054906101000a900473ffffffffffffffffffffffffffffffffffffffff1673ffffffffffffffffffffffffffffffffffffffff1673ffffffffffffffffffffffffffffffffffffffff168152602001600682015481525050945050505050919050565b60603360006119d582610d63565b90506000816000015103611a1e576040517f08c379a0000000000000000000000000000000000000000000000000000000008152600401611a159061400d565b60405180910390fd5b83600081118015611a3157506001548111155b611a70576040517f08c379a0000000000000000000000000000000000000000000000000000000008152600401611a67906143d4565b60405180910390fd5b6000600b6000878152602001908152602001600020805480602002602001604051908101604052809291908181526020018280548015611acf57602002820191906000526020600020905b815481526020019060010190808311611abb575b5050505050905060008151905060008167ffffffffffffffff811115611af857611af76133d2565b5b604051908082528060200260200182016040528015611b3157816020015b611b1e61307c565b815260200190600190039081611b165790505b50905060005b82811015611d5557600a6000858381518110611b5657611b55614099565b5b6020026020010151815260200190815260200160002060405180610100016040529081600082015481526020016001820154815260200160028201548152602001600382018054611ba690613cf6565b80601f0160208091040260200160405190810160405280929190818152602001828054611bd290613cf6565b8015611c1f5780601f10611bf457610100808354040283529160200191611c1f565b820191906000526020600020905b815481529060010190602001808311611c0257829003601f168201915b5050505050815260200160048201548152602001600582018054611c4290613cf6565b80601f0160208091040260200160405190810160405280929190818152602001828054611c6e90613cf6565b8015611cbb5780601f10611c9057610100808354040283529160200191611cbb565b820191906000526020600020905b815481529060010190602001808311611c9e57829003601f168201915b505050505081526020016006820160009054906101000a900473ffffffffffffffffffffffffffffffffffffffff1673ffffffffffffffffffffffffffffffffffffffff1673ffffffffffffffffffffffffffffffffffffffff168152602001600782015481525050828281518110611d3757611d36614099565b5b60200260200101819052508080611d4d90613e54565b915050611b37565b50809650505050505050919050565b336000611d7082610d63565b90506000816000015103611db9576040517f08c379a0000000000000000000000000000000000000000000000000000000008152600401611db09061400d565b60405180910390fd5b83600081118015611dcc57506001548111155b611e0b576040517f08c379a0000000000000000000000000000000000000000000000000000000008152600401611e02906143d4565b60405180910390fd5b836000600a611e198361294e565b5114905080611e5d576040517f08c379a0000000000000000000000000000000000000000000000000000000008152600401611e5490614368565b60405180910390fd5b60006008600088815260200190815260200160002054905060008103611eb8576040517f08c379a0000000000000000000000000000000000000000000000000000000008152600401611eaf90614440565b60405180910390fd5b6000600b60008a81526020019081526020016000208054905090506000811115611f3057611ee68983612b88565b15611f26576040517f08c379a0000000000000000000000000000000000000000000000000000000008152600401611f1d906144d2565b60405180910390fd5b611f2f89612e11565b5b60046000815480929190611f4390613e54565b91905055506000600560008b8152602001908152602001600020905060018160050160006101000a81548160ff021916908315150217905550600060066000858152602001908152602001600020905060405180610100016040528060045481526020018260000154815260200182600101548152602001826002018054611fca90613cf6565b80601f0160208091040260200160405190810160405280929190818152602001828054611ff690613cf6565b80156120435780601f1061201857610100808354040283529160200191612043565b820191906000526020600020905b81548152906001019060200180831161202657829003601f168201915b505050505081526020018360000154815260200183600201805461206690613cf6565b80601f016020809104026020016040519081016040528092919081815260200182805461209290613cf6565b80156120df5780601f106120b4576101008083540402835291602001916120df565b820191906000526020600020905b8154815290600101906020018083116120c257829003601f168201915b505050505081526020013373ffffffffffffffffffffffffffffffffffffffff16815260200142815250600a600060045481526020019081526020016000206000820151816000015560208201518160010155604082015181600201556060820151816003019080519060200190612158929190612ff6565b506080820151816004015560a082015181600501908051906020019061217f929190612ff6565b5060c08201518160060160006101000a81548173ffffffffffffffffffffffffffffffffffffffff021916908373ffffffffffffffffffffffffffffffffffffffff16021790555060e08201518160070155905050600b60008c81526020019081526020016000206004549080600181540180825580915050600190039060005260206000200160009091909190915055600c600085815260200190815260200160002060045490806001815401808255809150506001900390600052602060002001600090919091909150557f614b70eeb7f5cdc74e56cf37e259524ac64676dfdf177d611e8f74b707f64c0a6004548c8633426040516122859594939291906144f2565b60405180910390a15050505050505050505050565b60003360006122a882610d63565b905060008160000151036122f1576040517f08c379a00000000000000000000000000000000000000000000000000000000081526004016122e89061400d565b60405180910390fd5b6002549250505090565b61230361313c565b33600061230f82610d63565b90506000816000015103612358576040517f08c379a000000000000000000000000000000000000000000000000000000000815260040161234f9061400d565b60405180910390fd5b6005600085815260200190815260200160002060405180610100016040529081600082015481526020016001820154815260200160028201805461239b90613cf6565b80601f01602080910402602001604051908101604052809291908181526020018280546123c790613cf6565b80156124145780601f106123e957610100808354040283529160200191612414565b820191906000526020600020905b8154815290600101906020018083116123f757829003601f168201915b5050505050815260200160038201805461242d90613cf6565b80601f016020809104026020016040519081016040528092919081815260200182805461245990613cf6565b80156124a65780601f1061247b576101008083540402835291602001916124a6565b820191906000526020600020905b81548152906001019060200180831161248957829003601f168201915b505050505081526020016004820180546124bf90613cf6565b80601f01602080910402602001604051908101604052809291908181526020018280546124eb90613cf6565b80156125385780601f1061250d57610100808354040283529160200191612538565b820191906000526020600020905b81548152906001019060200180831161251b57829003601f168201915b505050505081526020016005820160009054906101000a900460ff161515151581526020016005820160019054906101000a900473ffffffffffffffffffffffffffffffffffffffff1673ffffffffffffffffffffffffffffffffffffffff1673ffffffffffffffffffffffffffffffffffffffff16815260200160068201548152505092505050919050565b3360006125d182610d63565b9050600081600001510361261a576040517f08c379a00000000000000000000000000000000000000000000000000000000081526004016126119061400d565b60405180910390fd5b866000600a6126288361294e565b511490508061266c576040517f08c379a000000000000000000000000000000000000000000000000000000000815260040161266390614368565b60405180910390fd5b600080600860008c815260200190815260200160002054149050806126c6576040517f08c379a00000000000000000000000000000000000000000000000000000000081526004016126bd90614591565b60405180910390fd5b6000898990501161270c576040517f08c379a0000000000000000000000000000000000000000000000000000000008152600401612703906145fd565b60405180910390fd5b42861061274e576040517f08c379a000000000000000000000000000000000000000000000000000000000815260040161274590614669565b60405180910390fd5b6002600081548092919061276190613e54565b919050555060004290506040518060e0016040528060025481526020018c81526020018b8b8080601f016020809104026020016040519081016040528093929190818152602001838380828437600081840152601f19601f8201169050808301925050505050505081526020018960018111156127e1576127e06137ad565b5b81526020018881526020013373ffffffffffffffffffffffffffffffffffffffff1681526020018281525060066000600254815260200190815260200160002060008201518160000155602082015181600101556040820151816002019080519060200190612851929190612ff6565b5060608201518160030160006101000a81548160ff0219169083600181111561287d5761287c6137ad565b5b02179055506080820151816004015560a08201518160050160006101000a81548173ffffffffffffffffffffffffffffffffffffffff021916908373ffffffffffffffffffffffffffffffffffffffff16021790555060c08201518160060155905050600254600860008d8152602001908152602001600020819055507f9e452ff4b2f83dd156b789a1890a80b05cca0d5160993b984f6828013fff01166002548c8c8c8c8c3388604051612939989796959493929190614698565b60405180910390a15050505050505050505050565b606060008203612995576040518060400160405280600181526020017f30000000000000000000000000000000000000000000000000000000000000008152509050612aa9565b600082905060005b600082146129c75780806129b090613e54565b915050600a826129c0919061473f565b915061299d565b60008167ffffffffffffffff8111156129e3576129e26133d2565b5b6040519080825280601f01601f191660200182016040528015612a155781602001600182028036833780820191505090505b5090505b60008514612aa257600182612a2e9190614770565b9150600a85612a3d91906147a4565b6030612a499190613e9c565b60f81b818381518110612a5f57612a5e614099565b5b60200101907effffffffffffffffffffffffffffffffffffffffffffffffffffffffffffff1916908160001a905350600a85612a9b919061473f565b9450612a19565b8093505050505b919050565b60008073ffffffffffffffffffffffffffffffffffffffff168273ffffffffffffffffffffffffffffffffffffffff1603612aec5760009050612b83565b8173ffffffffffffffffffffffffffffffffffffffff168273ffffffffffffffffffffffffffffffffffffffff1614612b285760009050612b83565b600080600960008573ffffffffffffffffffffffffffffffffffffffff1673ffffffffffffffffffffffffffffffffffffffff1681526020019081526020016000205414905080612b7d576000915050612b83565b60019150505b919050565b600080600b60008581526020019081526020016000208054905090506000600b6000868152602001908152602001600020805480602002602001604051908101604052809291908181526020018280548015612c0357602002820191906000526020600020905b815481526020019060010190808311612bef575b505050505090506000600a600083600186612c1e9190614770565b81518110612c2f57612c2e614099565b5b6020026020010151815260200190815260200160002060405180610100016040529081600082015481526020016001820154815260200160028201548152602001600382018054612c7f90613cf6565b80601f0160208091040260200160405190810160405280929190818152602001828054612cab90613cf6565b8015612cf85780601f10612ccd57610100808354040283529160200191612cf8565b820191906000526020600020905b815481529060010190602001808311612cdb57829003601f168201915b5050505050815260200160048201548152602001600582018054612d1b90613cf6565b80601f0160208091040260200160405190810160405280929190818152602001828054612d4790613cf6565b8015612d945780601f10612d6957610100808354040283529160200191612d94565b820191906000526020600020905b815481529060010190602001808311612d7757829003601f168201915b505050505081526020016006820160009054906101000a900473ffffffffffffffffffffffffffffffffffffffff1673ffffffffffffffffffffffffffffffffffffffff1673ffffffffffffffffffffffffffffffffffffffff168152602001600782015481525050905084816020015114935050505092915050565b6000600b60008381526020019081526020016000208054905090506000600b6000848152602001908152602001600020600183612e4e9190614770565b81548110612e5f57612e5e614099565b5b906000526020600020015490506000600a60008381526020019081526020016000206001015490506000600c600083815260200190815260200160002090506000805b60018380549050612eb39190614770565b811015612f64576000600a6000858481548110612ed357612ed2614099565b5b90600052602060002001548152602001908152602001600020600401549050878103612efe57600192505b8215612f505783600183612f129190613e9c565b81548110612f2357612f22614099565b5b9060005260206000200154848381548110612f4157612f40614099565b5b90600052602060002001819055505b508080612f5c90613e54565b915050612ea2565b5081805480612f7657612f756147d5565b5b60019003818190600052602060002001600090559055505050505050565b6040518060c00160405280600081526020016060815260200160608152602001600073ffffffffffffffffffffffffffffffffffffffff168152602001600073ffffffffffffffffffffffffffffffffffffffff168152602001600081525090565b82805461300290613cf6565b90600052602060002090601f016020900481019282613024576000855561306b565b82601f1061303d57805160ff191683800117855561306b565b8280016001018555821561306b579182015b8281111561306a57825182559160200191906001019061304f565b5b5090506130789190613199565b5090565b604051806101000160405280600081526020016000815260200160008152602001606081526020016000815260200160608152602001600073ffffffffffffffffffffffffffffffffffffffff168152602001600081525090565b6040518060e001604052806000815260200160008152602001606081526020016000600181111561310b5761310a6137ad565b5b815260200160008152602001600073ffffffffffffffffffffffffffffffffffffffff168152602001600081525090565b6040518061010001604052806000815260200160008152602001606081526020016060815260200160608152602001600015158152602001600073ffffffffffffffffffffffffffffffffffffffff168152602001600081525090565b5b808211156131b257600081600090555060010161319a565b5090565b6000604051905090565b600080fd5b600080fd5b6000819050919050565b6131dd816131ca565b81146131e857600080fd5b50565b6000813590506131fa816131d4565b92915050565b600060208284031215613216576132156131c0565b5b6000613224848285016131eb565b91505092915050565b613236816131ca565b82525050565b600081519050919050565b600082825260208201905092915050565b60005b8381101561327657808201518184015260208101905061325b565b83811115613285576000848401525b50505050565b6000601f19601f8301169050919050565b60006132a78261323c565b6132b18185613247565b93506132c1818560208601613258565b6132ca8161328b565b840191505092915050565b600073ffffffffffffffffffffffffffffffffffffffff82169050919050565b6000613300826132d5565b9050919050565b613310816132f5565b82525050565b600060c08301600083015161332e600086018261322d565b5060208301518482036020860152613346828261329c565b91505060408301518482036040860152613360828261329c565b91505060608301516133756060860182613307565b5060808301516133886080860182613307565b5060a083015161339b60a086018261322d565b508091505092915050565b600060208201905081810360008301526133c08184613316565b905092915050565b600080fd5b600080fd5b7f4e487b7100000000000000000000000000000000000000000000000000000000600052604160045260246000fd5b61340a8261328b565b810181811067ffffffffffffffff82111715613429576134286133d2565b5b80604052505050565b600061343c6131b6565b90506134488282613401565b919050565b600067ffffffffffffffff821115613468576134676133d2565b5b6134718261328b565b9050602081019050919050565b82818337600083830152505050565b60006134a061349b8461344d565b613432565b9050828152602081018484840111156134bc576134bb6133cd565b5b6134c784828561347e565b509392505050565b600082601f8301126134e4576134e36133c8565b5b81356134f484826020860161348d565b91505092915050565b613506816132f5565b811461351157600080fd5b50565b600081359050613523816134fd565b92915050565b600080604083850312156135405761353f6131c0565b5b600083013567ffffffffffffffff81111561355e5761355d6131c5565b5b61356a858286016134cf565b925050602061357b85828601613514565b9150509250929050565b600081519050919050565b600082825260208201905092915050565b6000819050602082019050919050565b6000610100830160008301516135ca600086018261322d565b5060208301516135dd602086018261322d565b5060408301516135f0604086018261322d565b5060608301518482036060860152613608828261329c565b915050608083015161361d608086018261322d565b5060a083015184820360a0860152613635828261329c565b91505060c083015161364a60c0860182613307565b5060e083015161365d60e086018261322d565b508091505092915050565b600061367483836135b1565b905092915050565b6000602082019050919050565b600061369482613585565b61369e8185613590565b9350836020820285016136b0856135a1565b8060005b858110156136ec57848403895281516136cd8582613668565b94506136d88361367c565b925060208a019950506001810190506136b4565b50829750879550505050505092915050565b600060208201905081810360008301526137188184613689565b905092915050565b600060208284031215613736576137356131c0565b5b600061374484828501613514565b91505092915050565b613756816131ca565b82525050565b6000602082019050613771600083018461374d565b92915050565b60008115159050919050565b61378c81613777565b82525050565b60006020820190506137a76000830184613783565b92915050565b7f4e487b7100000000000000000000000000000000000000000000000000000000600052602160045260246000fd5b600281106137ed576137ec6137ad565b5b50565b60008190506137fe826137dc565b919050565b600061380e826137f0565b9050919050565b61381e81613803565b82525050565b600060e08301600083015161383c600086018261322d565b50602083015161384f602086018261322d565b5060408301518482036040860152613867828261329c565b915050606083015161387c6060860182613815565b50608083015161388f608086018261322d565b5060a08301516138a260a0860182613307565b5060c08301516138b560c086018261322d565b508091505092915050565b600060208201905081810360008301526138da8184613824565b905092915050565b6138eb816132f5565b82525050565b600060208201905061390660008301846138e2565b92915050565b600082825260208201905092915050565b60006139288261323c565b613932818561390c565b9350613942818560208601613258565b61394b8161328b565b840191505092915050565b60006020820190508181036000830152613970818461391d565b905092915050565b600080fd5b600080fd5b60008083601f840112613998576139976133c8565b5b8235905067ffffffffffffffff8111156139b5576139b4613978565b5b6020830191508360018202830111156139d1576139d061397d565b5b9250929050565b600080600080604085870312156139f2576139f16131c0565b5b600085013567ffffffffffffffff811115613a1057613a0f6131c5565b5b613a1c87828801613982565b9450945050602085013567ffffffffffffffff811115613a3f57613a3e6131c5565b5b613a4b87828801613982565b925092505092959194509250565b60008060408385031215613a7057613a6f6131c0565b5b6000613a7e858286016131eb565b9250506020613a8f858286016131eb565b9150509250929050565b613aa281613777565b82525050565b600061010083016000830151613ac1600086018261322d565b506020830151613ad4602086018261322d565b5060408301518482036040860152613aec828261329c565b91505060608301518482036060860152613b06828261329c565b91505060808301518482036080860152613b20828261329c565b91505060a0830151613b3560a0860182613a99565b5060c0830151613b4860c0860182613307565b5060e0830151613b5b60e086018261322d565b508091505092915050565b60006020820190508181036000830152613b808184613aa8565b905092915050565b60028110613b9557600080fd5b50565b600081359050613ba781613b88565b92915050565b600080600080600060808688031215613bc957613bc86131c0565b5b6000613bd7888289016131eb565b955050602086013567ffffffffffffffff811115613bf857613bf76131c5565b5b613c0488828901613982565b94509450506040613c1788828901613b98565b9250506060613c28888289016131eb565b9150509295509295909350565b7f53656e646572206d7573742062652074686520636f6e7472616374206372656160008201527f746f720000000000000000000000000000000000000000000000000000000000602082015250565b6000613c9160238361390c565b9150613c9c82613c35565b604082019050919050565b60006020820190508181036000830152613cc081613c84565b9050919050565b7f4e487b7100000000000000000000000000000000000000000000000000000000600052602260045260246000fd5b60006002820490506001821680613d0e57607f821691505b602082108103613d2157613d20613cc7565b5b50919050565b7f5469746c65206d757374206e6f7420626520656d707479000000000000000000600082015250565b6000613d5d60178361390c565b9150613d6882613d27565b602082019050919050565b60006020820190508181036000830152613d8c81613d50565b9050919050565b7f41646d696e2061646472657373206e6f742076616c6964206f7220616c64726560008201527f6164792065786973740000000000000000000000000000000000000000000000602082015250565b6000613def60298361390c565b9150613dfa82613d93565b604082019050919050565b60006020820190508181036000830152613e1e81613de2565b9050919050565b7f4e487b7100000000000000000000000000000000000000000000000000000000600052601160045260246000fd5b6000613e5f826131ca565b91507fffffffffffffffffffffffffffffffffffffffffffffffffffffffffffffffff8203613e9157613e90613e25565b5b600182019050919050565b6000613ea7826131ca565b9150613eb2836131ca565b9250827fffffffffffffffffffffffffffffffffffffffffffffffffffffffffffffffff03821115613ee757613ee6613e25565b5b828201905092915050565b600081905092915050565b6000613f088261323c565b613f128185613ef2565b9350613f22818560208601613258565b80840191505092915050565b6000613f3a8285613efd565b9150613f468284613efd565b91508190509392505050565b600060c082019050613f67600083018961374d565b8181036020830152613f79818861391d565b90508181036040830152613f8d818761391d565b9050613f9c60608301866138e2565b613fa960808301856138e2565b613fb660a083018461374d565b979650505050505050565b7f4f6e6c792061646d696e206163636f756e7420697320617574686f72697a6564600082015250565b6000613ff760208361390c565b915061400282613fc1565b602082019050919050565b6000602082019050818103600083015261402681613fea565b9050919050565b7f496e76616c696420636974697a656e2069640000000000000000000000000000600082015250565b600061406360128361390c565b915061406e8261402d565b602082019050919050565b6000602082019050818103600083015261409281614056565b9050919050565b7f4e487b7100000000000000000000000000000000000000000000000000000000600052603260045260246000fd5b7f4c616e6420686173682073706563696669636174696f6e20697320726571756960008201527f7265640000000000000000000000000000000000000000000000000000000000602082015250565b600061412460238361390c565b915061412f826140c8565b604082019050919050565b6000602082019050818103600083015261415381614117565b9050919050565b7f4465736372697074696f6e206973207265717569726564000000000000000000600082015250565b600061419060178361390c565b915061419b8261415a565b602082019050919050565b600060208201905081810360008301526141bf81614183565b9050919050565b7f496e76616c696420616464726573730000000000000000000000000000000000600082015250565b60006141fc600f8361390c565b9150614207826141c6565b602082019050919050565b6000602082019050818103600083015261422b816141ef565b9050919050565b600061423e838561390c565b935061424b83858461347e565b6142548361328b565b840190509392505050565b600061010082019050614275600083018d61374d565b614282602083018c61374d565b8181036040830152614294818b61391d565b905081810360608301526142a981898b614232565b905081810360808301526142be818789614232565b90506142cd60a0830186613783565b6142da60c08301856138e2565b6142e760e083018461374d565b9b9a5050505050505050505050565b7f436974697a656e206964206e756d626572206d75737420636f6e7461696e203160008201527f3020646967697400000000000000000000000000000000000000000000000000602082015250565b600061435260278361390c565b915061435d826142f6565b604082019050919050565b6000602082019050818103600083015261438181614345565b9050919050565b7f496e76616c6964206c616e642069640000000000000000000000000000000000600082015250565b60006143be600f8361390c565b91506143c982614388565b602082019050919050565b600060208201905081810360008301526143ed816143b1565b9050919050565b7f436974697a656e20696420646f6573206e6f7420657869737400000000000000600082015250565b600061442a60198361390c565b9150614435826143f4565b602082019050919050565b600060208201905081810360008301526144598161441d565b9050919050565b7f436974697a656e206973207468652063757272656e74206c616e642773206f7760008201527f6e65720000000000000000000000000000000000000000000000000000000000602082015250565b60006144bc60238361390c565b91506144c782614460565b604082019050919050565b600060208201905081810360008301526144eb816144af565b9050919050565b600060a082019050614507600083018861374d565b614514602083018761374d565b614521604083018661374d565b61452e60608301856138e2565b61453b608083018461374d565b9695505050505050565b7f436974697a656e206964206e756d62657220616c726561647920657869737400600082015250565b600061457b601f8361390c565b915061458682614545565b602082019050919050565b600060208201905081810360008301526145aa8161456e565b9050919050565b7f46756c6c206e616d652069732072657175697265640000000000000000000000600082015250565b60006145e760158361390c565b91506145f2826145b1565b602082019050919050565b60006020820190508181036000830152614616816145da565b9050919050565b7f496e76616c696420646f62000000000000000000000000000000000000000000600082015250565b6000614653600b8361390c565b915061465e8261461d565b602082019050919050565b6000602082019050818103600083015261468281614646565b9050919050565b61469281613803565b82525050565b600060e0820190506146ad600083018b61374d565b6146ba602083018a61374d565b81810360408301526146cd81888a614232565b90506146dc6060830187614689565b6146e9608083018661374d565b6146f660a08301856138e2565b61470360c083018461374d565b9998505050505050505050565b7f4e487b7100000000000000000000000000000000000000000000000000000000600052601260045260246000fd5b600061474a826131ca565b9150614755836131ca565b92508261476557614764614710565b5b828204905092915050565b600061477b826131ca565b9150614786836131ca565b92508282101561479957614798613e25565b5b828203905092915050565b60006147af826131ca565b91506147ba836131ca565b9250826147ca576147c9614710565b5b828206905092915050565b7f4e487b7100000000000000000000000000000000000000000000000000000000600052603160045260246000fdfea2646970667358221220b39d8c119b2b413ff63d65ca15f3da576788f1d6ab1f0a3cadb43210da20f88464736f6c634300080d0033",
  "immutableReferences": {},
  "source": "// SPDX-License-Identifier: MIT\r\npragma solidity ^0.8.0;\r\n\r\nimport \"@openzeppelin/contracts/utils/Strings.sol\";\r\n\r\ncontract Decentraland{  \r\n    enum Gender{MALE, FEMALE}\r\n\r\n    struct Land{\r\n        uint256 id;\r\n        uint256 parcelNumber;\r\n        string landCode;\r\n        string description;\r\n        string landCoordinatorHash;\r\n        bool isOccupied;\r\n        address publishAdmin;\r\n        uint256 publishDate;\r\n    }\r\n\r\n    struct Citizen{\r\n        uint256 id;\r\n        uint256 idNumber;\r\n        string fullName;\r\n        Gender gender;\r\n        uint256 dob;\r\n        address publishAdmin;\r\n        uint256 publishDate;\r\n    }\r\n\r\n    struct Admin{\r\n        uint256 id;\r\n        string title;\r\n        string adminCode;\r\n        address adminAddr;\r\n        address publishAdmin;\r\n        uint256 publishDate;\r\n    }\r\n\r\n    struct landTransferedTrx{\r\n        uint256 id;\r\n        uint256 ownerId;\r\n        uint256 ownerIdNumber;\r\n        string ownerFullname;\r\n        uint256 landId;\r\n        string landCode;\r\n        address admin;\r\n        uint256 transferDate;\r\n    }\r\n\r\n    event LandPublished(\r\n        uint256 id,\r\n        uint256 parcelNumber,\r\n        string landCode,\r\n        string description,\r\n        string landCoordinatorHash,\r\n        bool isOccupied,\r\n        address publishAdmin,\r\n        uint256 publishDate\r\n    );\r\n\r\n    event CitizenPublished(\r\n        uint256 id,\r\n        uint256 idNumber,\r\n        string fullName,\r\n        Gender gender,\r\n        uint256 dob,\r\n        address publishAdmin,\r\n        uint256 publishDate\r\n    );\r\n\r\n    event AdminPublished(\r\n        uint256 id,\r\n        string title,\r\n        string admincode,\r\n        address newAdmin,\r\n        address publishAdmin,\r\n        uint256 publishDate\r\n    );\r\n\r\n    event LandTransfer(\r\n        uint256 id,\r\n        uint256 landId,\r\n        uint256 ownerId,\r\n        address adminAddr,\r\n        uint256 trxTime\r\n    );\r\n\r\n    string public constant NAME = \"Decentraland\";\r\n    address public owner;\r\n    string private constant TOWNSHIP_CODE = \"ASD\";\r\n    string private constant ADMIN_CODE = \"ADMIN\";\r\n    uint256 private constant PARCEL_NUMBER_SEED = 5000;\r\n    uint256 private constant ADMIN_NUMBER_SEED = 3000;\r\n    uint256 private landCount = 0;\r\n    uint256 private citizenCount = 0;\r\n    uint256 private adminCount = 0;\r\n    uint256 private transactionCount = 0;\r\n    mapping(uint256 => Land) private lands;\r\n    mapping(uint256 => Citizen) private citizens;\r\n    mapping(uint256 => Admin) private admins;\r\n\r\n    mapping(uint256 => uint256) private idNumbersToCitizenId;\r\n    mapping(address => uint256) private addressToAdminId;\r\n    mapping(uint256 => landTransferedTrx) private landTransferedTrxs;\r\n    mapping(uint256 => uint256[]) private landIdToTrxIds;\r\n    mapping(uint256 => uint256[]) private citizenIdToOwnedLandTrxIds;\r\n\r\n    modifier onlyOwner(address _sender){\r\n        require(owner == _sender, \"Sender must be the contract creator\");\r\n        _;\r\n    }\r\n\r\n    modifier onlyAdmin(address _sender){\r\n        Admin memory admin = getAdminByAddress(_sender);\r\n        require(admin.id != 0, \"Only admin account is authorized\");\r\n        _;\r\n    }\r\n\r\n    modifier validLandId(uint256 _landId){\r\n        require(_landId > 0 && _landId <= landCount, \"Invalid land id\");\r\n        _;\r\n    }\r\n\r\n    modifier validCitizenId(uint256 _citizenId){\r\n        require(_citizenId > 0 && _citizenId <= citizenCount, \"Invalid citizen id\");\r\n        _;\r\n    }\r\n\r\n    modifier validAdminId(uint256 _adminId){\r\n        require(_adminId > 0 && _adminId <= adminCount, \"Invalid admin id\");\r\n        _;\r\n    }\r\n\r\n    modifier validCitizenIdNumber(uint256 _citizenIdNumber){\r\n        bool is10Digit = bytes(Strings.toString(_citizenIdNumber)).length == 10;\r\n        require(is10Digit, \"Citizen id number must contain 10 digit\");\r\n        _;\r\n    }\r\n\r\n    constructor(){\r\n        owner = msg.sender;\r\n        publishAdmin(\"Contract owner\", msg.sender);\r\n    }\r\n\r\n    function getLandCount() external view onlyAdmin(msg.sender) returns(uint256){\r\n        return landCount;\r\n    }\r\n\r\n    function getLand(uint256 _id) external view onlyAdmin(msg.sender) returns(Land memory){\r\n        return lands[_id];\r\n    }\r\n\r\n    function getCitizenCount() external view onlyAdmin(msg.sender) returns(uint256){\r\n        return citizenCount;\r\n    }\r\n\r\n    function getCitizen(uint256 _id) external view onlyAdmin(msg.sender) validCitizenId(_id) returns(Citizen memory){\r\n        return citizens[_id];\r\n    }\r\n\r\n    function getCitizenByIdNumber(uint256 _idNumber) external view onlyAdmin(msg.sender) validCitizenIdNumber(_idNumber) returns(Citizen memory){\r\n        return citizens[idNumbersToCitizenId[_idNumber]];\r\n    }\r\n\r\n    function getAdminCount() external view onlyOwner(msg.sender) returns(uint256){\r\n        return adminCount;\r\n    }\r\n\r\n    function getAdmin(uint256 _id) external view onlyOwner(msg.sender) returns(Admin memory){\r\n        return admins[_id];\r\n    }\r\n\r\n    function getAdminByAddress(address _address) public view returns(Admin memory){\r\n        return admins[addressToAdminId[_address]];\r\n    }\r\n\r\n    function isCitizenLandOwner(uint256 _landId, uint256 _citizenId) view private returns(bool){\r\n        uint256 landTrxsLength = landIdToTrxIds[_landId].length;\r\n        uint256[] memory landTrxIds = landIdToTrxIds[_landId];\r\n        landTransferedTrx memory lastLandTrx = landTransferedTrxs[landTrxIds[landTrxsLength - 1]];\r\n        return lastLandTrx.ownerId == _citizenId;\r\n    }\r\n\r\n    function checkIsContractOwner(address _sender) external view returns(bool){\r\n        return owner == _sender;\r\n    }\r\n\r\n    function isNewAdminAddressValid(address _newAdmin) private view returns(bool){\r\n        if(_newAdmin == address(0)){\r\n            return false;\r\n        }\r\n        if(_newAdmin != address(_newAdmin)){\r\n            return false;\r\n        }\r\n        bool isNewAdminUnique = addressToAdminId[_newAdmin] == 0;\r\n        if(!isNewAdminUnique){\r\n            return false;\r\n        }\r\n        return true;\r\n\r\n    }\r\n\r\n    function revokeCurrentOwner(uint256 _landId) private{\r\n        uint256 landTrxsLength = landIdToTrxIds[_landId].length;\r\n        uint256 trxOwnerId = landIdToTrxIds[_landId][landTrxsLength - 1];\r\n        uint256 currentOwnerId = landTransferedTrxs[trxOwnerId].ownerId;\r\n\r\n        uint256[] storage ownerTrxIds = citizenIdToOwnedLandTrxIds[currentOwnerId];\r\n        bool isAfterIndex = false;\r\n        for(uint256 i = 0; i < ownerTrxIds.length - 1; i++){\r\n            uint256 currentLandId = landTransferedTrxs[ownerTrxIds[i]].landId;\r\n            if(currentLandId == _landId){\r\n                isAfterIndex = true;\r\n            }\r\n            if(isAfterIndex){\r\n                ownerTrxIds[i] = ownerTrxIds[i + 1];\r\n            }\r\n        }\r\n        ownerTrxIds.pop();\r\n    }\r\n\r\n    function getLandTrxs(uint256 _landId) external view onlyAdmin(msg.sender) validLandId(_landId) returns(landTransferedTrx[] memory) {\r\n        uint256[] memory trxIds = landIdToTrxIds[_landId];\r\n        uint256 arrLength = trxIds.length;\r\n        landTransferedTrx[] memory result = new landTransferedTrx[](arrLength);\r\n        for(uint256 i = 0; i < arrLength; i++){\r\n            result[i] = landTransferedTrxs[trxIds[i]];\r\n        }\r\n        return result;\r\n    }\r\n\r\n    function getCitizenOwnedTrxs(uint256 _citizenId) external view onlyAdmin(msg.sender) validCitizenId(_citizenId) returns(landTransferedTrx[] memory){\r\n        uint256[] memory trxIds = citizenIdToOwnedLandTrxIds[_citizenId];\r\n        uint256 arrLength = trxIds.length;\r\n        landTransferedTrx[] memory result = new landTransferedTrx[](arrLength);\r\n        for(uint256 i = 0; i < arrLength; i++){\r\n            result[i] = landTransferedTrxs[trxIds[i]];\r\n        }\r\n        return result;\r\n    }\r\n\r\n    function publishLand(\r\n        string calldata _description,\r\n        string calldata _landCoordinatorHash\r\n    ) external onlyAdmin(msg.sender){\r\n        require(bytes(_landCoordinatorHash).length > 0, \"Land hash specification is required\");\r\n        require(bytes(_description).length > 0, \"Description is required\");\r\n        require(msg.sender != address(0), \"Invalid address\");\r\n\r\n        landCount++;\r\n        uint256 parcelNumber = PARCEL_NUMBER_SEED + landCount;\r\n        string memory landCode = string(abi.encodePacked(TOWNSHIP_CODE, Strings.toString(parcelNumber)));\r\n        uint256 publishDate = block.timestamp;\r\n\r\n        lands[landCount] = Land(\r\n            landCount,\r\n            parcelNumber,\r\n            landCode,\r\n            _description,\r\n            _landCoordinatorHash,\r\n            false,\r\n            msg.sender,\r\n            publishDate\r\n        );\r\n        emit LandPublished(\r\n            landCount,\r\n            parcelNumber,\r\n            landCode,\r\n            _description,\r\n            _landCoordinatorHash,\r\n            false,\r\n            msg.sender,\r\n            publishDate\r\n        );\r\n    }\r\n\r\n    function publishCitizen (\r\n        uint256 _idNumber, string calldata _fullName, Gender _gender, uint256 _dob\r\n    ) external onlyAdmin(msg.sender) validCitizenIdNumber(_idNumber){\r\n        bool isIdNumberUnique = idNumbersToCitizenId[_idNumber] == 0;\r\n        require(isIdNumberUnique, \"Citizen id number already exist\");\r\n        require(bytes(_fullName).length > 0, \"Full name is required\");\r\n        require(_dob < block.timestamp, \"Invalid dob\");\r\n        citizenCount++;\r\n        uint256 publishDate = block.timestamp;\r\n        citizens[citizenCount] = Citizen(\r\n            citizenCount,\r\n            _idNumber,\r\n            _fullName,\r\n            _gender,\r\n            _dob,\r\n            msg.sender,\r\n            publishDate\r\n        );\r\n        idNumbersToCitizenId[_idNumber] = citizenCount;\r\n\r\n        emit CitizenPublished(\r\n            citizenCount,\r\n            _idNumber,\r\n            _fullName,\r\n            _gender,\r\n            _dob,\r\n            msg.sender,\r\n            publishDate\r\n        );\r\n    }\r\n\r\n    function transferLand(uint256 _landId, uint256 _citizenIdNumber) external onlyAdmin(msg.sender) validLandId(_landId) validCitizenIdNumber(_citizenIdNumber){\r\n        uint256 citizenId = idNumbersToCitizenId[_citizenIdNumber];\r\n        require(citizenId != 0, \"Citizen id does not exist\");\r\n        uint256 landTrxsLength = landIdToTrxIds[_landId].length;\r\n        if(landTrxsLength > 0){\r\n            if(isCitizenLandOwner(_landId, citizenId)){\r\n                revert(\"Citizen is the current land's owner\");\r\n            }\r\n            revokeCurrentOwner(_landId);\r\n        }\r\n        transactionCount++;\r\n        Land storage land = lands[_landId];\r\n        land.isOccupied = true;\r\n        Citizen storage citizen = citizens[citizenId]; \r\n        landTransferedTrxs[transactionCount] = landTransferedTrx(\r\n            transactionCount,\r\n            citizen.id,\r\n            citizen.idNumber,\r\n            citizen.fullName,\r\n            land.id,\r\n            land.landCode,\r\n            msg.sender,\r\n            block.timestamp\r\n        );\r\n        landIdToTrxIds[_landId].push(transactionCount);\r\n        citizenIdToOwnedLandTrxIds[citizenId].push(transactionCount);\r\n        emit LandTransfer(transactionCount, _landId, citizenId, msg.sender, block.timestamp);\r\n    }\r\n\r\n    function publishAdmin(string memory _title, address _newAdmin) public onlyOwner(msg.sender){\r\n        require(bytes(_title).length > 0, \"Title must not be empty\");\r\n        require(isNewAdminAddressValid(_newAdmin), \"Admin address not valid or aldready exist\");\r\n        adminCount++;\r\n        uint256 adminNumber = ADMIN_NUMBER_SEED + adminCount;\r\n        string memory adminCode = string(abi.encodePacked(ADMIN_CODE, Strings.toString(adminNumber)));\r\n        uint256 publishDate = block.timestamp;\r\n        admins[adminCount] = Admin(adminCount, _title, adminCode, _newAdmin, msg.sender, publishDate); \r\n        addressToAdminId[_newAdmin] = adminCount;\r\n\r\n        emit AdminPublished(adminCount, _title, adminCode, _newAdmin, msg.sender, publishDate);\r\n    }\r\n\r\n}",
  "sourcePath": "D:\\Study\\Fourth year\\BACHELOR THESIS\\code\\src\\blockchain\\contracts\\Decentraland.sol",
  "compiler": {
    "name": "solc",
    "version": "0.8.13+commit.abaa5c0e.Emscripten.clang"
  },
  "schemaVersion": "3.4.3",
  "updatedAt": "2022-03-29T13:36:24.686Z",
  "networkType": "ethereum",
  "devdoc": {
    "kind": "dev",
    "methods": {},
    "version": 1
  },
  "userdoc": {
    "kind": "user",
    "methods": {},
    "version": 1
  }
}