{
  "contractName": "Decentraland",
  "abi": [
    {
      "inputs": [],
      "stateMutability": "nonpayable",
      "type": "constructor"
    },
    {
      "inputs": [],
      "name": "landCount",
      "outputs": [
        {
          "internalType": "uint256",
          "name": "",
          "type": "uint256"
        }
      ],
      "stateMutability": "view",
      "type": "function",
      "constant": true
    },
    {
      "inputs": [
        {
          "internalType": "uint256",
          "name": "",
          "type": "uint256"
        }
      ],
      "name": "lands",
      "outputs": [
        {
          "internalType": "uint256",
          "name": "id",
          "type": "uint256"
        },
        {
          "internalType": "address",
          "name": "owner",
          "type": "address"
        },
        {
          "internalType": "address",
          "name": "publishAdmin",
          "type": "address"
        },
        {
          "internalType": "string",
          "name": "description",
          "type": "string"
        },
        {
          "internalType": "string",
          "name": "landCoordinatorHash",
          "type": "string"
        }
      ],
      "stateMutability": "view",
      "type": "function",
      "constant": true
    },
    {
      "inputs": [],
      "name": "name",
      "outputs": [
        {
          "internalType": "string",
          "name": "",
          "type": "string"
        }
      ],
      "stateMutability": "view",
      "type": "function",
      "constant": true
    },
    {
      "inputs": [],
      "name": "owner",
      "outputs": [
        {
          "internalType": "address",
          "name": "",
          "type": "address"
        }
      ],
      "stateMutability": "view",
      "type": "function",
      "constant": true
    },
    {
      "inputs": [
        {
          "internalType": "address",
          "name": "_landOwner",
          "type": "address"
        },
        {
          "internalType": "string",
          "name": "_description",
          "type": "string"
        },
        {
          "internalType": "string",
          "name": "_landCoordinatorHash",
          "type": "string"
        }
      ],
      "name": "publishLand",
      "outputs": [],
      "stateMutability": "nonpayable",
      "type": "function"
    }
  ],
  "bytecode": "0x60806040526040518060400160405280600c81526020017f446563656e7472616c616e6400000000000000000000000000000000000000008152506000908051906020019061004f9291906100a8565b50600060025534801561006157600080fd5b5033600160006101000a81548173ffffffffffffffffffffffffffffffffffffffff021916908373ffffffffffffffffffffffffffffffffffffffff1602179055506101ac565b8280546100b49061017a565b90600052602060002090601f0160209004810192826100d6576000855561011d565b82601f106100ef57805160ff191683800117855561011d565b8280016001018555821561011d579182015b8281111561011c578251825591602001919060010190610101565b5b50905061012a919061012e565b5090565b5b8082111561014757600081600090555060010161012f565b5090565b7f4e487b7100000000000000000000000000000000000000000000000000000000600052602260045260246000fd5b6000600282049050600182168061019257607f821691505b602082108114156101a6576101a561014b565b5b50919050565b610a6d806101bb6000396000f3fe608060405234801561001057600080fd5b50600436106100575760003560e01c806306fdde031461005c57806311c4a2861461007a5780638da5cb5b14610096578063d7bce658146100b4578063e261f1e5146100d2575b600080fd5b610064610106565b60405161007191906106c2565b60405180910390f35b610094600480360381019061008f91906107b1565b610194565b005b61009e6103d4565b6040516100ab9190610855565b60405180910390f35b6100bc6103fa565b6040516100c99190610889565b60405180910390f35b6100ec60048036038101906100e791906108d0565b610400565b6040516100fd9594939291906108fd565b60405180910390f35b600080546101139061098d565b80601f016020809104026020016040519081016040528092919081815260200182805461013f9061098d565b801561018c5780601f106101615761010080835404028352916020019161018c565b820191906000526020600020905b81548152906001019060200180831161016f57829003601f168201915b505050505081565b600082829050116101a457600080fd5b600084849050116101b457600080fd5b600073ffffffffffffffffffffffffffffffffffffffff163373ffffffffffffffffffffffffffffffffffffffff1614156101ee57600080fd5b60026000815480929190610201906109ee565b91905055506040518060a0016040528060025481526020018673ffffffffffffffffffffffffffffffffffffffff1681526020013373ffffffffffffffffffffffffffffffffffffffff16815260200185858080601f016020809104026020016040519081016040528093929190818152602001838380828437600081840152601f19601f82011690508083019250505050505050815260200183838080601f016020809104026020016040519081016040528093929190818152602001838380828437600081840152601f19601f820116905080830192505050505050508152506003600060025481526020019081526020016000206000820151816000015560208201518160010160006101000a81548173ffffffffffffffffffffffffffffffffffffffff021916908373ffffffffffffffffffffffffffffffffffffffff16021790555060408201518160020160006101000a81548173ffffffffffffffffffffffffffffffffffffffff021916908373ffffffffffffffffffffffffffffffffffffffff16021790555060608201518160030190805190602001906103ac929190610586565b5060808201518160040190805190602001906103c9929190610586565b509050505050505050565b600160009054906101000a900473ffffffffffffffffffffffffffffffffffffffff1681565b60025481565b60036020528060005260406000206000915090508060000154908060010160009054906101000a900473ffffffffffffffffffffffffffffffffffffffff16908060020160009054906101000a900473ffffffffffffffffffffffffffffffffffffffff16908060030180546104759061098d565b80601f01602080910402602001604051908101604052809291908181526020018280546104a19061098d565b80156104ee5780601f106104c3576101008083540402835291602001916104ee565b820191906000526020600020905b8154815290600101906020018083116104d157829003601f168201915b5050505050908060040180546105039061098d565b80601f016020809104026020016040519081016040528092919081815260200182805461052f9061098d565b801561057c5780601f106105515761010080835404028352916020019161057c565b820191906000526020600020905b81548152906001019060200180831161055f57829003601f168201915b5050505050905085565b8280546105929061098d565b90600052602060002090601f0160209004810192826105b457600085556105fb565b82601f106105cd57805160ff19168380011785556105fb565b828001600101855582156105fb579182015b828111156105fa5782518255916020019190600101906105df565b5b509050610608919061060c565b5090565b5b8082111561062557600081600090555060010161060d565b5090565b600081519050919050565b600082825260208201905092915050565b60005b83811015610663578082015181840152602081019050610648565b83811115610672576000848401525b50505050565b6000601f19601f8301169050919050565b600061069482610629565b61069e8185610634565b93506106ae818560208601610645565b6106b781610678565b840191505092915050565b600060208201905081810360008301526106dc8184610689565b905092915050565b600080fd5b600080fd5b600073ffffffffffffffffffffffffffffffffffffffff82169050919050565b6000610719826106ee565b9050919050565b6107298161070e565b811461073457600080fd5b50565b60008135905061074681610720565b92915050565b600080fd5b600080fd5b600080fd5b60008083601f8401126107715761077061074c565b5b8235905067ffffffffffffffff81111561078e5761078d610751565b5b6020830191508360018202830111156107aa576107a9610756565b5b9250929050565b6000806000806000606086880312156107cd576107cc6106e4565b5b60006107db88828901610737565b955050602086013567ffffffffffffffff8111156107fc576107fb6106e9565b5b6108088882890161075b565b9450945050604086013567ffffffffffffffff81111561082b5761082a6106e9565b5b6108378882890161075b565b92509250509295509295909350565b61084f8161070e565b82525050565b600060208201905061086a6000830184610846565b92915050565b6000819050919050565b61088381610870565b82525050565b600060208201905061089e600083018461087a565b92915050565b6108ad81610870565b81146108b857600080fd5b50565b6000813590506108ca816108a4565b92915050565b6000602082840312156108e6576108e56106e4565b5b60006108f4848285016108bb565b91505092915050565b600060a082019050610912600083018861087a565b61091f6020830187610846565b61092c6040830186610846565b818103606083015261093e8185610689565b905081810360808301526109528184610689565b90509695505050505050565b7f4e487b7100000000000000000000000000000000000000000000000000000000600052602260045260246000fd5b600060028204905060018216806109a557607f821691505b602082108114156109b9576109b861095e565b5b50919050565b7f4e487b7100000000000000000000000000000000000000000000000000000000600052601160045260246000fd5b60006109f982610870565b91507fffffffffffffffffffffffffffffffffffffffffffffffffffffffffffffffff821415610a2c57610a2b6109bf565b5b60018201905091905056fea2646970667358221220e06bbaf13531799d56a077088f2fb6bfb0f8a4ea3d289cd0fa681e9c59bfc45c64736f6c634300080b0033",
  "immutableReferences": {},
  "source": "// SPDX-License-Identifier: MIT\r\npragma solidity ^0.8.0;\r\n\r\ncontract Decentraland{\r\n    //Store land\r\n    struct Land{\r\n        uint256 id;\r\n        address owner;\r\n        address publishAdmin;\r\n        string description;\r\n        string landCoordinatorHash;\r\n    }\r\n\r\n    string public name = \"Decentraland\";\r\n    address public owner;\r\n    uint256 public landCount = 0;\r\n    mapping(uint256 => Land) public lands;\r\n\r\n    constructor(){\r\n        owner = msg.sender;\r\n    }\r\n\r\n    function publishLand(\r\n        address _landOwner,\r\n        string calldata _description,\r\n        string calldata _landCoordinatorHash\r\n    ) public{\r\n        require(bytes(_landCoordinatorHash).length > 0);\r\n        require(bytes(_description).length > 0);\r\n        require(msg.sender != address(0));\r\n        landCount++;\r\n        lands[landCount] = Land(\r\n            landCount,\r\n            _landOwner,\r\n            msg.sender,\r\n            _description,\r\n            _landCoordinatorHash\r\n        );\r\n    }\r\n}",
  "sourcePath": "D:\\Study\\Fourth year\\BACHELOR THESIS\\code\\src\\contracts\\Decentraland.sol",
  "compiler": {
    "name": "solc",
    "version": "0.8.11+commit.d7f03943.Emscripten.clang"
  },
  "schemaVersion": "3.4.3",
  "updatedAt": "2022-01-28T07:30:02.097Z",
  "networkType": "ethereum",
  "devdoc": {
    "kind": "dev",
    "methods": {},
    "version": 1
  },
  "userdoc": {
    "kind": "user",
    "methods": {},
    "version": 1
  }
}